BL51 BANKED LINKER/LOCATER V6.22                                                        07/05/2021  21:53:45  PAGE 1


BL51 BANKED LINKER/LOCATER V6.22, INVOKED BY:
D:\KEIL_V4\C51\BIN\BL51.EXE main.obj, LCD1602.obj TO 电子时钟promax RAMSIZE (256)


MEMORY MODEL: SMALL


INPUT MODULES INCLUDED:
  main.obj (MAIN)
  LCD1602.obj (LCD1602)
  D:\KEIL_V4\C51\LIB\C51S.LIB (?C_STARTUP)
  D:\KEIL_V4\C51\LIB\C51S.LIB (?C?COPY)
  D:\KEIL_V4\C51\LIB\C51S.LIB (?C?CLDPTR)
  D:\KEIL_V4\C51\LIB\C51S.LIB (?C?CLDOPTR)
  D:\KEIL_V4\C51\LIB\C51S.LIB (?C?CSTPTR)
  D:\KEIL_V4\C51\LIB\C51S.LIB (?C?CSTOPTR)
  D:\KEIL_V4\C51\LIB\C51S.LIB (?C?IMUL)
  D:\KEIL_V4\C51\LIB\C51S.LIB (?C?UIDIV)
  D:\KEIL_V4\C51\LIB\C51S.LIB (?C_INIT)


LINK MAP OF MODULE:  电子时钟promax (MAIN)


            TYPE    BASE      LENGTH    RELOCATION   SEGMENT NAME
            -----------------------------------------------------

            * * * * * * *   D A T A   M E M O R Y   * * * * * * *
            REG     0000H     0008H     ABSOLUTE     "REG BANK 0"
            DATA    0008H     005CH     UNIT         ?DT?MAIN
            DATA    0064H     0010H     UNIT         _DATA_GROUP_
            IDATA   0074H     0001H     UNIT         ?STACK

            * * * * * * *   C O D E   M E M O R Y   * * * * * * *
            CODE    0000H     0003H     ABSOLUTE     
            CODE    0003H     0007H     UNIT         ?PR?_SONG_INIT?MAIN
                    000AH     0001H                  *** GAP ***
            CODE    000BH     0003H     ABSOLUTE     
            CODE    000EH     0005H     UNIT         ?PR?_PLAY_TONE?MAIN
            CODE    0013H     0003H     ABSOLUTE     
                    0016H     0005H                  *** GAP ***
            CODE    001BH     0003H     ABSOLUTE     
            CODE    001EH     0202H     UNIT         ?PR?_DISPLAY_CLOCK?MAIN
            CODE    0220H     01E7H     UNIT         ?CO?MAIN
            CODE    0407H     01D7H     UNIT         ?C?LIB_CODE
            CODE    05DEH     0173H     UNIT         ?PR?DISPLAY_SETTING?MAIN
            CODE    0751H     013EH     UNIT         ?PR?DISPLAY_WORKING?MAIN
            CODE    088FH     010DH     UNIT         ?PR?DISPLAY_TIMING?MAIN
            CODE    099CH     00D6H     UNIT         ?PR?UPDATECLOCK?MAIN
            CODE    0A72H     00C8H     UNIT         ?PR?RESET_TIME_DATE?MAIN
            CODE    0B3AH     00B9H     UNIT         ?PR?WHATWEEK?MAIN
            CODE    0BF3H     009EH     UNIT         ?PR?_SETTING_ALARM?MAIN
            CODE    0C91H     008CH     UNIT         ?C_C51STARTUP
            CODE    0D1DH     0086H     UNIT         ?C_INITSEG
            CODE    0DA3H     0083H     UNIT         ?PR?_TIMER1_INTERRUPT?MAIN
            CODE    0E26H     007BH     UNIT         ?PR?DISPLAY_ALARM?MAIN
            CODE    0EA1H     0070H     UNIT         ?PR?ALARM_GOES_OFF?MAIN
            CODE    0F11H     005AH     UNIT         ?PR?TIMER1?MAIN
BL51 BANKED LINKER/LOCATER V6.22                                                      07/05/2021  21:53:45  PAGE 2


            CODE    0F6BH     003CH     UNIT         ?PR?DISPLAY?MAIN
            CODE    0FA7H     0036H     UNIT         ?PR?MAIN?MAIN
            CODE    0FDDH     0027H     UNIT         ?PR?UPDATECOUNTING?MAIN
            CODE    1004H     0027H     UNIT         ?PR?TIMER0?MAIN
            CODE    102BH     0026H     UNIT         ?PR?_LEAPYEAR?MAIN
            CODE    1051H     0022H     UNIT         ?PR?TIMING?MAIN
            CODE    1073H     0021H     UNIT         ?PR?INT1?MAIN
            CODE    1094H     001FH     UNIT         ?PR?_ALARM_INIT?MAIN
            CODE    10B3H     001EH     UNIT         ?PR?_DELAY_MS?MAIN
            CODE    10D1H     001DH     UNIT         ?PR?KEY1PRESS?MAIN
            CODE    10EEH     0017H     UNIT         ?PR?KEY3PRESS?MAIN
            CODE    1105H     0013H     UNIT         ?PR?_DELAY_US?MAIN
            CODE    1118H     0012H     UNIT         ?PR?TIMER0INIT?MAIN
            CODE    112AH     0012H     UNIT         ?PR?READ_BUSY?LCD1602
            CODE    113CH     0010H     UNIT         ?PR?TIME_INIT?MAIN
            CODE    114CH     0010H     UNIT         ?PR?TIMER1_INIT?MAIN
            CODE    115CH     0010H     UNIT         ?PR?_WRITE_CMD?LCD1602
            CODE    116CH     0010H     UNIT         ?PR?_WRITE_DAT?LCD1602
            CODE    117CH     000FH     UNIT         ?PR?_DELAY?MAIN
            CODE    118BH     000FH     UNIT         ?PR?KEY2PRESS?MAIN
            CODE    119AH     0007H     UNIT         ?PR?INT1INIT?MAIN



OVERLAY MAP OF MODULE:   电子时钟promax (MAIN)


SEGMENT                              DATA_GROUP 
  +--> CALLED SEGMENT              START    LENGTH
--------------------------------------------------
?PR?INT1?MAIN                      -----    -----
  +--> ?PR?_DELAY?MAIN

*** NEW ROOT ***************************************************

?PR?TIMER1?MAIN                    -----    -----
  +--> ?CO?MAIN
  +--> ?PR?_TIMER1_INTERRUPT?MAIN

?PR?_TIMER1_INTERRUPT?MAIN         0064H    0003H
  +--> ?PR?_DELAY_MS?MAIN

*** NEW ROOT ***************************************************

?C_C51STARTUP                      -----    -----
  +--> ?PR?MAIN?MAIN
  +--> ?C_INITSEG

?PR?MAIN?MAIN                      -----    -----
  +--> ?PR?TIMER0INIT?MAIN
  +--> ?PR?TIMER1_INIT?MAIN
  +--> ?PR?INT1INIT?MAIN
  +--> ?PR?_ALARM_INIT?MAIN
  +--> ?PR?KEY1PRESS?MAIN
  +--> ?PR?KEY2PRESS?MAIN
  +--> ?PR?KEY3PRESS?MAIN
  +--> ?PR?DISPLAY?MAIN
BL51 BANKED LINKER/LOCATER V6.22                                                      07/05/2021  21:53:45  PAGE 3


  +--> ?PR?ALARM_GOES_OFF?MAIN

?PR?KEY1PRESS?MAIN                 -----    -----
  +--> ?PR?_DELAY?MAIN

?PR?KEY2PRESS?MAIN                 -----    -----
  +--> ?PR?_DELAY?MAIN

?PR?KEY3PRESS?MAIN                 -----    -----
  +--> ?PR?_DELAY?MAIN

?PR?DISPLAY?MAIN                   -----    -----
  +--> ?PR?UPDATECLOCK?MAIN
  +--> ?PR?WHATWEEK?MAIN
  +--> ?PR?DISPLAY_WORKING?MAIN
  +--> ?PR?_WRITE_CMD?LCD1602
  +--> ?PR?DISPLAY_SETTING?MAIN
  +--> ?PR?_DELAY?MAIN
  +--> ?PR?UPDATECOUNTING?MAIN
  +--> ?PR?DISPLAY_TIMING?MAIN
  +--> ?PR?_DISPLAY_CLOCK?MAIN

?PR?UPDATECLOCK?MAIN               -----    -----
  +--> ?PR?_LEAPYEAR?MAIN

?PR?WHATWEEK?MAIN                  0067H    0008H

?PR?DISPLAY_WORKING?MAIN           0067H    0003H
  +--> ?PR?_WRITE_CMD?LCD1602
  +--> ?PR?_WRITE_DAT?LCD1602

?PR?_WRITE_CMD?LCD1602             -----    -----
  +--> ?PR?READ_BUSY?LCD1602

?PR?_WRITE_DAT?LCD1602             -----    -----
  +--> ?PR?READ_BUSY?LCD1602

?PR?DISPLAY_SETTING?MAIN           0067H    0003H
  +--> ?PR?RESET_TIME_DATE?MAIN
  +--> ?PR?_WRITE_CMD?LCD1602
  +--> ?PR?_WRITE_DAT?LCD1602

?PR?DISPLAY_TIMING?MAIN            0067H    000AH
  +--> ?CO?MAIN
  +--> ?PR?TIMING?MAIN
  +--> ?PR?_WRITE_CMD?LCD1602
  +--> ?PR?_WRITE_DAT?LCD1602

?PR?_DISPLAY_CLOCK?MAIN            0067H    000CH
  +--> ?CO?MAIN
  +--> ?PR?_SETTING_ALARM?MAIN
  +--> ?PR?_WRITE_CMD?LCD1602
  +--> ?PR?_WRITE_DAT?LCD1602

?PR?ALARM_GOES_OFF?MAIN            0067H    0004H
  +--> ?PR?DISPLAY_ALARM?MAIN
  +--> ?CO?MAIN
BL51 BANKED LINKER/LOCATER V6.22                                                      07/05/2021  21:53:45  PAGE 4


  +--> ?PR?_SONG_INIT?MAIN
  +--> ?PR?TIME_INIT?MAIN
  +--> ?PR?_PLAY_TONE?MAIN
  +--> ?PR?TIMER1_INIT?MAIN

?PR?DISPLAY_ALARM?MAIN             006BH    0009H
  +--> ?CO?MAIN
  +--> ?PR?_WRITE_CMD?LCD1602
  +--> ?PR?_WRITE_DAT?LCD1602

?PR?_PLAY_TONE?MAIN                -----    -----
  +--> ?PR?_DELAY_US?MAIN

?C_INITSEG                         -----    -----
  +--> ?CO?MAIN



SYMBOL TABLE OF MODULE:  电子时钟promax (MAIN)

  VALUE           TYPE          NAME
  ----------------------------------

  -------         MODULE        MAIN
  C:0000H         SYMBOL        _ICE_DUMMY_
  D:0090H         PUBLIC        P1
  D:00A0H         PUBLIC        P2
  D:00B0H         PUBLIC        P3
  B:0090H.5       PUBLIC        Buzzer
  B:00A8H.7       PUBLIC        EA
  D:0008H         PUBLIC        tone_p
  C:1051H         PUBLIC        timing
  D:000BH         PUBLIC        t_tone
  D:00A8H         PUBLIC        IE
  D:000CH         PUBLIC        t_sec
  C:1180H         PUBLIC        _delay
  D:000DH         PUBLIC        t_hour
  C:102BH         PUBLIC        _LeapYear
  D:00B8H         PUBLIC        IP
  D:000EH         PUBLIC        t_min
  B:00B0H.1       PUBLIC        k1
  B:00B0H.0       PUBLIC        k2
  B:00B0H.2       PUBLIC        k3
  B:00B0H.3       PUBLIC        k4
  D:000FH         PUBLIC        alarm_1
  D:0013H         PUBLIC        shift
  D:0014H         PUBLIC        s1
  C:0B3AH         PUBLIC        WhatWeek
  C:0FA7H         PUBLIC        main
  C:1094H         PUBLIC        _alarm_init
  D:0015H         PUBLIC        mode
  D:0016H         PUBLIC        month
  C:0DA3H         PUBLIC        _timer1_interrupt
  D:0017H         PUBLIC        tones
  C:10D1H         PUBLIC        key1press
  C:118BH         PUBLIC        key2press
  D:0041H         PUBLIC        week
BL51 BANKED LINKER/LOCATER V6.22                                                      07/05/2021  21:53:45  PAGE 5


  C:10EEH         PUBLIC        key3press
  D:0056H         PUBLIC        year
  C:1004H         PUBLIC        Timer0
  C:0FDDH         PUBLIC        UpdateCounting
  D:0098H         PUBLIC        SCON
  C:0F11H         PUBLIC        Timer1
  D:0089H         PUBLIC        TMOD
  D:0088H         PUBLIC        TCON
  D:0058H         PUBLIC        tone
  C:0A72H         PUBLIC        reset_time_date
  D:005AH         PUBLIC        sec
  C:0EA1H         PUBLIC        alarm_goes_off
  D:005BH         PUBLIC        Week1
  D:005CH         PUBLIC        day
  D:005DH         PUBLIC        hour
  C:03F4H         SYMBOL        _?ix1000
  C:03FBH         SYMBOL        _?ix1001
  C:0401H         SYMBOL        _?ix1002
  D:005EH         PUBLIC        min
  D:005FH         PUBLIC        plus
  C:113CH         PUBLIC        time_init
  B:00A8H.1       PUBLIC        ET0
  B:00A8H.3       PUBLIC        ET1
  C:1118H         PUBLIC        Timer0Init
  D:0060H         PUBLIC        turn
  C:114CH         PUBLIC        Timer1_init
  D:008CH         PUBLIC        TH0
  D:008DH         PUBLIC        TH1
  B:00A8H.2       PUBLIC        EX1
  B:0088H.2       PUBLIC        IT1
  C:0003H         PUBLIC        _song_init
  D:008AH         PUBLIC        TL0
  C:000EH         PUBLIC        _play_tone
  D:008BH         PUBLIC        TL1
  C:10B3H         PUBLIC        _delay_ms
  B:00B8H.3       PUBLIC        PT1
  C:099CH         PUBLIC        UpdateClock
  B:0088H.4       PUBLIC        TR0
  B:0088H.6       PUBLIC        TR1
  C:0267H         PUBLIC        sky
  C:1105H         PUBLIC        _delay_us
  C:1073H         PUBLIC        Int1
  C:05DEH         PUBLIC        display_setting
  C:0751H         PUBLIC        display_working
  C:088FH         PUBLIC        display_timing
  D:00C8H         PUBLIC        T2CON
  D:0061H         PUBLIC        i
  C:001EH         PUBLIC        _display_clock
  C:0E26H         PUBLIC        display_alarm
  C:0BF3H         PUBLIC        _setting_alarm
  C:119AH         PUBLIC        Int1Init
  D:0063H         PUBLIC        music_s
  C:0F6BH         PUBLIC        display
  D:00D0H         PUBLIC        PSW
  -------         PROC          _DELAY_MS
  D:0006H         SYMBOL        t
  -------         DO            
BL51 BANKED LINKER/LOCATER V6.22                                                      07/05/2021  21:53:45  PAGE 6


  D:0004H         SYMBOL        i
  -------         ENDDO         
  C:10B3H         LINE#         206
  C:10B3H         LINE#         207
  C:10B3H         LINE#         208
  C:10B3H         LINE#         209
  C:10BDH         LINE#         210
  C:10D0H         LINE#         211
  -------         ENDPROC       _DELAY_MS
  -------         PROC          _DELAY_US
  D:0006H         SYMBOL        t
  C:1105H         LINE#         213
  C:1105H         LINE#         214
  C:1105H         LINE#         215
  C:110CH         LINE#         216
  C:1117H         LINE#         217
  -------         ENDPROC       _DELAY_US
  -------         PROC          _PLAY_TONE
  D:0006H         SYMBOL        tone
  C:000EH         LINE#         219
  C:000EH         LINE#         220
  C:000EH         LINE#         222
  C:0010H         LINE#         223
  -------         ENDPROC       _PLAY_TONE
  -------         PROC          TIME_INIT
  C:113CH         LINE#         226
  C:113CH         LINE#         227
  C:113CH         LINE#         228
  C:113FH         LINE#         229
  C:1142H         LINE#         230
  C:1145H         LINE#         231
  C:1147H         LINE#         232
  C:1149H         LINE#         233
  C:114BH         LINE#         234
  -------         ENDPROC       TIME_INIT
  -------         PROC          _SONG_INIT
  D:0001H         SYMBOL        song
  C:0003H         LINE#         236
  C:0003H         LINE#         237
  C:0003H         LINE#         238
  C:0009H         LINE#         239
  -------         ENDPROC       _SONG_INIT
  -------         PROC          _TIMER1_INTERRUPT
  D:0064H         SYMBOL        song
  C:0DA3H         LINE#         241
  C:0DA9H         LINE#         242
  C:0DA9H         LINE#         243
  C:0DACH         LINE#         244
  C:0DAFH         LINE#         245
  C:0DB1H         LINE#         247
  C:0DC6H         LINE#         248
  C:0DC6H         LINE#         249
  C:0DC9H         LINE#         250
  C:0DD5H         LINE#         251
  C:0DEEH         LINE#         253
  C:0DF3H         LINE#         254
  C:0E01H         LINE#         256
BL51 BANKED LINKER/LOCATER V6.22                                                      07/05/2021  21:53:45  PAGE 7


  C:0E0CH         LINE#         258
  C:0E1EH         LINE#         260
  C:0E25H         LINE#         261
  C:0E25H         LINE#         262
  -------         ENDPROC       _TIMER1_INTERRUPT
  -------         PROC          TIMER0INIT
  C:1118H         LINE#         45
  C:1118H         LINE#         46
  C:1118H         LINE#         47
  C:111BH         LINE#         48
  C:111EH         LINE#         49
  C:1121H         LINE#         50
  C:1123H         LINE#         51
  C:1125H         LINE#         52
  C:1127H         LINE#         53
  C:1129H         LINE#         54
  -------         ENDPROC       TIMER0INIT
  -------         PROC          INT1INIT
  C:119AH         LINE#         57
  C:119AH         LINE#         58
  C:119AH         LINE#         60
  C:119CH         LINE#         61
  C:119EH         LINE#         62
  C:11A0H         LINE#         63
  -------         ENDPROC       INT1INIT
  -------         PROC          TIMER1_INIT
  C:114CH         LINE#         66
  C:114CH         LINE#         67
  C:114CH         LINE#         68
  C:114FH         LINE#         69
  C:1152H         LINE#         70
  C:1155H         LINE#         71
  C:1157H         LINE#         72
  C:1159H         LINE#         73
  C:115BH         LINE#         74
  -------         ENDPROC       TIMER1_INIT
  -------         PROC          _ALARM_INIT
  D:0001H         SYMBOL        alarm
  C:1094H         LINE#         77
  C:1094H         LINE#         78
  C:1094H         LINE#         79
  C:1099H         LINE#         80
  C:10A3H         LINE#         81
  C:10ABH         LINE#         82
  -------         ENDPROC       _ALARM_INIT
  C:117CH         SYMBOL        L?0226
  -------         PROC          L?0225
  -------         ENDPROC       L?0225
  C:117CH         SYMBOL        L?0226
  -------         PROC          _DELAY
  D:0006H         SYMBOL        a
  C:1180H         LINE#         88
  C:1180H         LINE#         89
  C:1180H         LINE#         90
  C:118AH         LINE#         91
  -------         ENDPROC       _DELAY
  -------         PROC          KEY1PRESS
BL51 BANKED LINKER/LOCATER V6.22                                                      07/05/2021  21:53:45  PAGE 8


  C:10D1H         LINE#         96
  C:10D1H         LINE#         97
  C:10D1H         LINE#         98
  C:10D4H         LINE#         99
  C:10D4H         LINE#         100
  C:10D7H         LINE#         101
  C:10DAH         LINE#         102
  C:10DAH         LINE#         103
  C:10DCH         LINE#         105
  C:10DFH         LINE#         106
  C:10E2H         LINE#         108
  C:10EAH         LINE#         109
  C:10EAH         LINE#         110
  C:10EDH         LINE#         111
  C:10EDH         LINE#         112
  -------         ENDPROC       KEY1PRESS
  -------         PROC          KEY2PRESS
  C:118BH         LINE#         115
  C:118BH         LINE#         116
  C:118BH         LINE#         117
  C:118EH         LINE#         118
  C:118EH         LINE#         119
  C:1191H         LINE#         120
  C:1194H         LINE#         121
  C:1194H         LINE#         122
  C:1196H         LINE#         123
  C:1196H         LINE#         124
  C:1199H         LINE#         125
  C:1199H         LINE#         126
  -------         ENDPROC       KEY2PRESS
  -------         PROC          KEY3PRESS
  C:10EEH         LINE#         129
  C:10EEH         LINE#         130
  C:10EEH         LINE#         131
  C:10F1H         LINE#         132
  C:10F1H         LINE#         133
  C:10F4H         LINE#         134
  C:10F7H         LINE#         135
  C:10F7H         LINE#         136
  C:10F9H         LINE#         137
  C:1101H         LINE#         138
  C:1101H         LINE#         139
  C:1104H         LINE#         140
  C:1104H         LINE#         141
  -------         ENDPROC       KEY3PRESS
  -------         PROC          _LEAPYEAR
  D:0002H         SYMBOL        b
  C:102BH         LINE#         148
  C:102FH         LINE#         149
  C:102FH         LINE#         150
  C:104DH         LINE#         151
  C:104DH         LINE#         152
  C:104FH         LINE#         153
  C:104FH         LINE#         155
  C:104FH         LINE#         156
  C:1050H         LINE#         157
  C:1050H         LINE#         158
BL51 BANKED LINKER/LOCATER V6.22                                                      07/05/2021  21:53:45  PAGE 9


  -------         ENDPROC       _LEAPYEAR
  -------         PROC          WHATWEEK
  -------         DO            
  D:0067H         SYMBOL        c
  D:0069H         SYMBOL        y
  D:006BH         SYMBOL        m
  D:006DH         SYMBOL        d
  -------         ENDDO         
  C:0B3AH         LINE#         160
  C:0B3AH         LINE#         161
  C:0B3AH         LINE#         163
  C:0B40H         LINE#         164
  C:0B47H         LINE#         165
  C:0B47H         LINE#         166
  C:0B56H         LINE#         167
  C:0B65H         LINE#         168
  C:0B6BH         LINE#         169
  C:0B6DH         LINE#         171
  C:0B6DH         LINE#         172
  C:0B77H         LINE#         173
  C:0B8FH         LINE#         174
  C:0B9EH         LINE#         175
  C:0B9EH         LINE#         176
  C:0BE2H         LINE#         177
  C:0BF2H         LINE#         178
  -------         ENDPROC       WHATWEEK
  -------         PROC          UPDATECLOCK
  C:099CH         LINE#         180
  C:099CH         LINE#         181
  C:099CH         LINE#         182
  C:09A3H         LINE#         183
  C:09A3H         LINE#         184
  C:09A5H         LINE#         185
  C:09A8H         LINE#         186
  C:09A8H         LINE#         187
  C:09AFH         LINE#         188
  C:09AFH         LINE#         189
  C:09B1H         LINE#         190
  C:09B4H         LINE#         191
  C:09B4H         LINE#         192
  C:09BBH         LINE#         193
  C:09BBH         LINE#         194
  C:09BDH         LINE#         195
  C:09C0H         LINE#         196
  C:09C0H         LINE#         197
  C:09C9H         LINE#         198
  C:09C9H         LINE#         199
  C:09D5H         LINE#         200
  C:09D5H         LINE#         201
  C:09D5H         LINE#         202
  C:09D5H         LINE#         203
  C:09D5H         LINE#         204
  C:09D7H         LINE#         206
  C:09D7H         LINE#         207
  C:09E3H         LINE#         208
  C:09E3H         LINE#         209
  C:09E5H         LINE#         210
BL51 BANKED LINKER/LOCATER V6.22                                                      07/05/2021  21:53:45  PAGE 10


  C:09E8H         LINE#         211
  C:09E8H         LINE#         212
  C:09E8H         LINE#         213
  C:0A18H         LINE#         214
  C:0A18H         LINE#         215
  C:0A18H         LINE#         216
  C:0A18H         LINE#         217
  C:0A1AH         LINE#         218
  C:0A38H         LINE#         219
  C:0A38H         LINE#         220
  C:0A3AH         LINE#         221
  C:0A3DH         LINE#         222
  C:0A3DH         LINE#         223
  C:0A44H         LINE#         224
  C:0A44H         LINE#         225
  C:0A4CH         LINE#         226
  C:0A4FH         LINE#         227
  C:0A4FH         LINE#         228
  C:0A5AH         LINE#         229
  C:0A5AH         LINE#         230
  C:0A60H         LINE#         231
  C:0A60H         LINE#         232
  C:0A6BH         LINE#         233
  C:0A6BH         LINE#         234
  C:0A71H         LINE#         235
  C:0A71H         LINE#         236
  -------         ENDPROC       UPDATECLOCK
  -------         PROC          UPDATECOUNTING
  C:0FDDH         LINE#         238
  C:0FDDH         LINE#         239
  C:0FDDH         LINE#         240
  C:0FE4H         LINE#         241
  C:0FE4H         LINE#         242
  C:0FE6H         LINE#         243
  C:0FE9H         LINE#         244
  C:0FE9H         LINE#         245
  C:0FF0H         LINE#         246
  C:0FF0H         LINE#         247
  C:0FF2H         LINE#         248
  C:0FF5H         LINE#         249
  C:0FF5H         LINE#         250
  C:0FFCH         LINE#         251
  C:0FFCH         LINE#         252
  C:0FFFH         LINE#         253
  C:1001H         LINE#         254
  C:1003H         LINE#         255
  C:1003H         LINE#         256
  -------         ENDPROC       UPDATECOUNTING
  -------         PROC          RESET_TIME_DATE
  C:0A72H         LINE#         259
  C:0A72H         LINE#         260
  C:0A72H         LINE#         261
  C:0A8EH         LINE#         262
  C:0A8EH         LINE#         263
  C:0A98H         LINE#         264
  C:0A98H         LINE#         265
  C:0AA8H         LINE#         266
BL51 BANKED LINKER/LOCATER V6.22                                                      07/05/2021  21:53:45  PAGE 11


  C:0AA8H         LINE#         267
  C:0AA8H         LINE#         268
  C:0AABH         LINE#         270
  C:0AB5H         LINE#         271
  C:0AB5H         LINE#         272
  C:0AC5H         LINE#         273
  C:0AC5H         LINE#         274
  C:0AC5H         LINE#         275
  C:0AC7H         LINE#         277
  C:0ACEH         LINE#         278
  C:0ACEH         LINE#         279
  C:0ADEH         LINE#         280
  C:0ADEH         LINE#         281
  C:0ADEH         LINE#         282
  C:0AE0H         LINE#         284
  C:0AE7H         LINE#         285
  C:0AE7H         LINE#         286
  C:0AF7H         LINE#         287
  C:0AF7H         LINE#         288
  C:0AF7H         LINE#         289
  C:0AF9H         LINE#         291
  C:0B00H         LINE#         292
  C:0B00H         LINE#         293
  C:0B10H         LINE#         294
  C:0B10H         LINE#         295
  C:0B10H         LINE#         296
  C:0B12H         LINE#         298
  C:0B19H         LINE#         299
  C:0B19H         LINE#         300
  C:0B36H         LINE#         301
  C:0B39H         LINE#         302
  C:0B39H         LINE#         303
  C:0B39H         LINE#         304
  C:0B39H         LINE#         307
  -------         ENDPROC       RESET_TIME_DATE
  -------         PROC          TIMING
  C:1051H         LINE#         310
  C:1051H         LINE#         311
  C:1051H         LINE#         312
  C:1056H         LINE#         313
  C:105AH         LINE#         315
  C:105CH         LINE#         317
  C:1061H         LINE#         318
  C:1061H         LINE#         319
  C:1063H         LINE#         320
  C:1066H         LINE#         321
  C:1068H         LINE#         322
  C:106AH         LINE#         323
  C:106CH         LINE#         324
  C:106FH         LINE#         325
  C:1072H         LINE#         326
  C:1072H         LINE#         327
  -------         ENDPROC       TIMING
  -------         PROC          _SETTING_ALARM
  D:0001H         SYMBOL        alarm
  C:0BF3H         LINE#         331
  C:0BF3H         LINE#         332
BL51 BANKED LINKER/LOCATER V6.22                                                      07/05/2021  21:53:45  PAGE 12


  C:0BF3H         LINE#         333
  C:0C06H         LINE#         334
  C:0C06H         LINE#         335
  C:0C10H         LINE#         336
  C:0C10H         LINE#         337
  C:0C24H         LINE#         338
  C:0C24H         LINE#         339
  C:0C24H         LINE#         340
  C:0C26H         LINE#         342
  C:0C2DH         LINE#         343
  C:0C2DH         LINE#         344
  C:0C47H         LINE#         345
  C:0C47H         LINE#         346
  C:0C47H         LINE#         347
  C:0C49H         LINE#         349
  C:0C50H         LINE#         350
  C:0C50H         LINE#         351
  C:0C66H         LINE#         352
  C:0C66H         LINE#         353
  C:0C66H         LINE#         354
  C:0C68H         LINE#         356
  C:0C6FH         LINE#         357
  C:0C6FH         LINE#         358
  C:0C89H         LINE#         359
  C:0C8CH         LINE#         360
  C:0C8CH         LINE#         361
  C:0C8DH         LINE#         363
  C:0C90H         LINE#         364
  C:0C90H         LINE#         365
  C:0C90H         LINE#         366
  -------         ENDPROC       _SETTING_ALARM
  -------         PROC          DISPLAY_WORKING
  -------         DO            
  D:0067H         SYMBOL        Week2
  -------         ENDDO         
  C:0751H         LINE#         373
  C:0751H         LINE#         374
  C:0751H         LINE#         378
  C:0756H         LINE#         379
  C:075BH         LINE#         381
  C:0760H         LINE#         382
  C:0765H         LINE#         385
  C:076AH         LINE#         386
  C:076FH         LINE#         387
  C:077BH         LINE#         388
  C:0789H         LINE#         389
  C:078EH         LINE#         390
  C:079AH         LINE#         391
  C:07A8H         LINE#         392
  C:07ADH         LINE#         393
  C:07B9H         LINE#         394
  C:07C7H         LINE#         395
  C:07CCH         LINE#         396
  C:07E2H         LINE#         397
  C:07EDH         LINE#         398
  C:07EDH         LINE#         399
  C:07FEH         LINE#         400
BL51 BANKED LINKER/LOCATER V6.22                                                      07/05/2021  21:53:45  PAGE 13


  C:0800H         LINE#         402
  C:0805H         LINE#         405
  C:080AH         LINE#         406
  C:080FH         LINE#         407
  C:0814H         LINE#         408
  C:0819H         LINE#         409
  C:082BH         LINE#         410
  C:083DH         LINE#         411
  C:0842H         LINE#         412
  C:084EH         LINE#         413
  C:085CH         LINE#         414
  C:0861H         LINE#         415
  C:086DH         LINE#         416
  C:087BH         LINE#         417
  C:0880H         LINE#         418
  C:0885H         LINE#         419
  C:088AH         LINE#         420
  -------         ENDPROC       DISPLAY_WORKING
  -------         PROC          DISPLAY_SETTING
  -------         DO            
  D:0067H         SYMBOL        Week2
  -------         ENDDO         
  C:05DEH         LINE#         425
  C:05DEH         LINE#         426
  C:05DEH         LINE#         429
  C:05E1H         LINE#         432
  C:05E6H         LINE#         433
  C:05EBH         LINE#         435
  C:05F0H         LINE#         436
  C:05F5H         LINE#         438
  C:0602H         LINE#         439
  C:0602H         LINE#         440
  C:0606H         LINE#         441
  C:060AH         LINE#         442
  C:060EH         LINE#         444
  C:0613H         LINE#         445
  C:0613H         LINE#         446
  C:0618H         LINE#         449
  C:0624H         LINE#         450
  C:0632H         LINE#         451
  C:0637H         LINE#         452
  C:0643H         LINE#         453
  C:0651H         LINE#         454
  C:0656H         LINE#         455
  C:0662H         LINE#         456
  C:0670H         LINE#         457
  C:0675H         LINE#         458
  C:068BH         LINE#         459
  C:0696H         LINE#         460
  C:0696H         LINE#         461
  C:06A7H         LINE#         462
  C:06A9H         LINE#         464
  C:06AEH         LINE#         465
  C:06BBH         LINE#         466
  C:06BBH         LINE#         467
  C:06BFH         LINE#         468
  C:06C3H         LINE#         469
BL51 BANKED LINKER/LOCATER V6.22                                                      07/05/2021  21:53:45  PAGE 14


  C:06C7H         LINE#         470
  C:06CCH         LINE#         471
  C:06CCH         LINE#         472
  C:06D1H         LINE#         475
  C:06D6H         LINE#         476
  C:06DBH         LINE#         477
  C:06EDH         LINE#         478
  C:06FFH         LINE#         479
  C:0704H         LINE#         480
  C:0710H         LINE#         481
  C:071EH         LINE#         482
  C:0723H         LINE#         483
  C:072FH         LINE#         484
  C:073DH         LINE#         485
  C:0742H         LINE#         486
  C:0747H         LINE#         487
  C:074CH         LINE#         488
  -------         ENDPROC       DISPLAY_SETTING
  -------         PROC          DISPLAY_TIMING
  -------         DO            
  D:0067H         SYMBOL        title
  D:006EH         SYMBOL        p
  -------         ENDDO         
  C:088FH         LINE#         493
  C:088FH         LINE#         494
  C:088FH         LINE#         495
  C:08ABH         LINE#         497
  C:08AEH         LINE#         499
  C:08B3H         LINE#         500
  C:08B8H         LINE#         501
  C:08BDH         LINE#         503
  C:08C2H         LINE#         505
  C:08C7H         LINE#         506
  C:08CCH         LINE#         507
  C:08D1H         LINE#         508
  C:08D6H         LINE#         509
  C:08DAH         LINE#         510
  C:08E5H         LINE#         511
  C:08F8H         LINE#         512
  C:08FDH         LINE#         513
  C:0902H         LINE#         514
  C:0907H         LINE#         515
  C:090CH         LINE#         516
  C:0911H         LINE#         518
  C:0916H         LINE#         520
  C:091BH         LINE#         521
  C:0920H         LINE#         522
  C:0925H         LINE#         523
  C:0931H         LINE#         524
  C:093FH         LINE#         525
  C:0944H         LINE#         526
  C:0950H         LINE#         527
  C:095EH         LINE#         528
  C:0963H         LINE#         529
  C:096FH         LINE#         530
  C:097DH         LINE#         531
  C:0982H         LINE#         532
BL51 BANKED LINKER/LOCATER V6.22                                                      07/05/2021  21:53:45  PAGE 15


  C:098EH         LINE#         533
  -------         ENDPROC       DISPLAY_TIMING
  -------         PROC          _DISPLAY_CLOCK
  D:0067H         SYMBOL        alarm
  -------         DO            
  D:006AH         SYMBOL        title
  D:0070H         SYMBOL        p
  -------         ENDDO         
  C:001EH         LINE#         537
  C:0024H         LINE#         538
  C:0024H         LINE#         539
  C:0040H         LINE#         541
  C:0049H         LINE#         543
  C:004EH         LINE#         544
  C:0053H         LINE#         545
  C:0058H         LINE#         547
  C:005DH         LINE#         549
  C:0068H         LINE#         550
  C:007BH         LINE#         551
  C:0080H         LINE#         552
  C:0091H         LINE#         553
  C:0091H         LINE#         554
  C:0094H         LINE#         555
  C:0099H         LINE#         556
  C:009BH         LINE#         557
  C:009DH         LINE#         559
  C:009DH         LINE#         560
  C:00A0H         LINE#         561
  C:00A5H         LINE#         562
  C:00AAH         LINE#         563
  C:00AAH         LINE#         564
  C:00AFH         LINE#         565
  C:00B4H         LINE#         566
  C:00B9H         LINE#         567
  C:00BEH         LINE#         568
  C:00C3H         LINE#         569
  C:00C8H         LINE#         570
  C:00D1H         LINE#         571
  C:00D6H         LINE#         574
  C:00DFH         LINE#         575
  C:00DFH         LINE#         576
  C:00E4H         LINE#         578
  C:00E9H         LINE#         579
  C:00EEH         LINE#         580
  C:00F3H         LINE#         581
  C:00F8H         LINE#         582
  C:00FDH         LINE#         583
  C:0113H         LINE#         584
  C:0136H         LINE#         585
  C:014EH         LINE#         586
  C:0153H         LINE#         587
  C:0158H         LINE#         588
  C:015DH         LINE#         589
  C:0162H         LINE#         590
  C:0167H         LINE#         591
  C:016CH         LINE#         592
  C:0171H         LINE#         593
BL51 BANKED LINKER/LOCATER V6.22                                                      07/05/2021  21:53:45  PAGE 16


  C:0173H         LINE#         594
  C:0176H         LINE#         596
  C:0176H         LINE#         597
  C:017BH         LINE#         599
  C:0180H         LINE#         600
  C:0185H         LINE#         601
  C:018AH         LINE#         602
  C:018FH         LINE#         603
  C:0194H         LINE#         604
  C:0199H         LINE#         605
  C:01AFH         LINE#         606
  C:01C7H         LINE#         607
  C:01CCH         LINE#         608
  C:01DFH         LINE#         609
  C:01F4H         LINE#         610
  C:01F9H         LINE#         611
  C:01FEH         LINE#         612
  C:0203H         LINE#         613
  C:0208H         LINE#         614
  C:0211H         LINE#         615
  C:021AH         LINE#         616
  C:021FH         LINE#         617
  C:021FH         LINE#         618
  -------         ENDPROC       _DISPLAY_CLOCK
  -------         PROC          DISPLAY
  C:0F6BH         LINE#         621
  C:0F6BH         LINE#         622
  C:0F6BH         LINE#         623
  C:0F6EH         LINE#         624
  C:0F71H         LINE#         625
  C:0F76H         LINE#         626
  C:0F79H         LINE#         628
  C:0F7EH         LINE#         629
  C:0F7EH         LINE#         630
  C:0F83H         LINE#         631
  C:0F86H         LINE#         632
  C:0F8DH         LINE#         633
  C:0F8DH         LINE#         635
  C:0F92H         LINE#         636
  C:0F92H         LINE#         637
  C:0F95H         LINE#         638
  C:0F98H         LINE#         639
  C:0F98H         LINE#         640
  C:0F9DH         LINE#         641
  C:0F9DH         LINE#         642
  C:0FA6H         LINE#         643
  C:0FA6H         LINE#         644
  -------         ENDPROC       DISPLAY
  -------         PROC          DISPLAY_ALARM
  -------         DO            
  D:006BH         SYMBOL        title
  D:0071H         SYMBOL        p
  -------         ENDDO         
  C:0E26H         LINE#         647
  C:0E26H         LINE#         648
  C:0E26H         LINE#         649
  C:0E42H         LINE#         651
BL51 BANKED LINKER/LOCATER V6.22                                                      07/05/2021  21:53:45  PAGE 17


  C:0E47H         LINE#         652
  C:0E4CH         LINE#         653
  C:0E51H         LINE#         655
  C:0E56H         LINE#         656
  C:0E61H         LINE#         657
  C:0E74H         LINE#         659
  C:0E79H         LINE#         660
  C:0E82H         LINE#         661
  C:0E8DH         LINE#         662
  C:0EA0H         LINE#         663
  -------         ENDPROC       DISPLAY_ALARM
  -------         PROC          ALARM_GOES_OFF
  D:0067H         SYMBOL        alarm
  C:0EA1H         LINE#         668
  C:0EA1H         LINE#         669
  C:0EA1H         LINE#         670
  C:0EA7H         LINE#         671
  C:0EA7H         LINE#         672
  C:0EAEH         LINE#         673
  C:0EC2H         LINE#         674
  C:0EDAH         LINE#         675
  C:0EDDH         LINE#         676
  C:0EE5H         LINE#         677
  C:0EE5H         LINE#         679
  C:0EEAH         LINE#         680
  C:0EEAH         LINE#         681
  C:0EEDH         LINE#         682
  C:0EF6H         LINE#         683
  C:0EF9H         LINE#         684
  C:0EFEH         LINE#         685
  C:0F0DH         LINE#         688
  C:0F10H         LINE#         689
  C:0F10H         LINE#         690
  -------         ENDPROC       ALARM_GOES_OFF
  -------         PROC          MAIN
  C:0FA7H         LINE#         694
  C:0FA7H         LINE#         695
  C:0FA7H         LINE#         696
  C:0FAAH         LINE#         697
  C:0FADH         LINE#         698
  C:0FB0H         LINE#         699
  C:0FB9H         LINE#         700
  C:0FB9H         LINE#         701
  C:0FB9H         LINE#         703
  C:0FBCH         LINE#         704
  C:0FBFH         LINE#         705
  C:0FC2H         LINE#         707
  C:0FC5H         LINE#         708
  C:0FDBH         LINE#         709
  -------         ENDPROC       MAIN
  -------         PROC          TIMER0
  C:1004H         LINE#         712
  C:1008H         LINE#         714
  C:100BH         LINE#         715
  C:100EH         LINE#         716
  C:1016H         LINE#         717
  C:101EH         LINE#         718
BL51 BANKED LINKER/LOCATER V6.22                                                      07/05/2021  21:53:45  PAGE 18


  C:101EH         LINE#         719
  C:1020H         LINE#         720
  C:1026H         LINE#         721
  C:1026H         LINE#         723
  -------         ENDPROC       TIMER0
  -------         PROC          INT1
  C:1073H         LINE#         727
  C:1080H         LINE#         729
  C:1083H         LINE#         730
  C:1086H         LINE#         731
  C:1086H         LINE#         732
  C:1089H         LINE#         733
  C:1089H         LINE#         734
  -------         ENDPROC       INT1
  -------         PROC          TIMER1
  C:0F11H         LINE#         737
  C:0F2EH         LINE#         740
  C:0F33H         LINE#         741
  C:0F33H         LINE#         742
  C:0F3CH         LINE#         743
  C:0F3EH         LINE#         746
  C:0F3EH         LINE#         747
  C:0F41H         LINE#         748
  C:0F44H         LINE#         749
  C:0F46H         LINE#         750
  C:0F4BH         LINE#         751
  C:0F4BH         LINE#         752
  C:0F4EH         LINE#         753
  C:0F50H         LINE#         754
  C:0F50H         LINE#         755
  C:0F50H         LINE#         756
  -------         ENDPROC       TIMER1
  -------         ENDMOD        MAIN

  -------         MODULE        LCD1602
  C:0000H         SYMBOL        _ICE_DUMMY_
  D:0080H         PUBLIC        P0
  D:0090H         PUBLIC        P1
  D:00A0H         PUBLIC        P2
  D:00B0H         PUBLIC        P3
  D:00A8H         PUBLIC        IE
  B:00A0H.7       PUBLIC        EN
  D:00B8H         PUBLIC        IP
  B:00A0H.6       PUBLIC        RS
  B:00A0H.5       PUBLIC        RW
  D:0098H         PUBLIC        SCON
  D:0088H         PUBLIC        TCON
  C:115CH         PUBLIC        _write_cmd
  C:112AH         PUBLIC        read_busy
  C:116CH         PUBLIC        _write_dat
  D:00C8H         PUBLIC        T2CON
  D:00D0H         PUBLIC        PSW
  -------         PROC          READ_BUSY
  -------         DO            
  D:0007H         SYMBOL        busy
  -------         ENDDO         
  C:112AH         LINE#         4
BL51 BANKED LINKER/LOCATER V6.22                                                      07/05/2021  21:53:45  PAGE 19


  C:112AH         LINE#         5
  C:112AH         LINE#         7
  C:112DH         LINE#         8
  C:112FH         LINE#         9
  C:1131H         LINE#         11
  C:1131H         LINE#         12
  C:1133H         LINE#         13
  C:1135H         LINE#         14
  C:1137H         LINE#         15
  C:113BH         LINE#         16
  -------         ENDPROC       READ_BUSY
  -------         PROC          _WRITE_CMD
  D:0006H         SYMBOL        cmd
  C:115CH         LINE#         19
  C:115EH         LINE#         20
  C:115EH         LINE#         21
  C:1161H         LINE#         22
  C:1163H         LINE#         23
  C:1165H         LINE#         24
  C:1167H         LINE#         25
  C:1169H         LINE#         26
  C:116BH         LINE#         27
  -------         ENDPROC       _WRITE_CMD
  -------         PROC          _WRITE_DAT
  D:0006H         SYMBOL        dat
  C:116CH         LINE#         30
  C:116EH         LINE#         31
  C:116EH         LINE#         32
  C:1171H         LINE#         33
  C:1173H         LINE#         34
  C:1175H         LINE#         35
  C:1177H         LINE#         36
  C:1179H         LINE#         37
  C:117BH         LINE#         38
  -------         ENDPROC       _WRITE_DAT
  -------         ENDMOD        LCD1602

  -------         MODULE        ?C?COPY
  C:04D7H         PUBLIC        ?C?COPY
  -------         ENDMOD        ?C?COPY

  -------         MODULE        ?C?CLDPTR
  C:04FDH         PUBLIC        ?C?CLDPTR
  -------         ENDMOD        ?C?CLDPTR

  -------         MODULE        ?C?CLDOPTR
  C:0516H         PUBLIC        ?C?CLDOPTR
  -------         ENDMOD        ?C?CLDOPTR

  -------         MODULE        ?C?CSTPTR
  C:0543H         PUBLIC        ?C?CSTPTR
  -------         ENDMOD        ?C?CSTPTR

  -------         MODULE        ?C?CSTOPTR
  C:0555H         PUBLIC        ?C?CSTOPTR
  -------         ENDMOD        ?C?CSTOPTR

BL51 BANKED LINKER/LOCATER V6.22                                                      07/05/2021  21:53:45  PAGE 20


  -------         MODULE        ?C?IMUL
  C:0577H         PUBLIC        ?C?IMUL
  -------         ENDMOD        ?C?IMUL

  -------         MODULE        ?C?UIDIV
  C:0589H         PUBLIC        ?C?UIDIV
  -------         ENDMOD        ?C?UIDIV

Program Size: data=117.0 xdata=0 code=4507
LINK/LOCATE RUN COMPLETE.  0 WARNING(S),  0 ERROR(S)
