:1002200053756E2E004D6F6E2E00547565732E0043
:100230005765642E00546875722E004672692E0050
:100240005361742E00202054686520616C61726DCA
:10025000206973202000202020676F696E67206F5F
:10026000666620202020000000020000020000023C
:100270000601010701010102030701010102020356
:100280000202070104000202030101030101060149
:100290000305010106010201020205010400010239
:1002A000030102040103030101040102010202032C
:1002B0000103000001010201010201010201070125
:1002C0000304010104010207010207010400000206
:1002D00006010107010101020307010101020203F6
:1002E00002020701040000020301010301010601EB
:1002F00003050101060102010202050104000002DA
:1003000002010103010104010201020107010201CE
:1003100002030202010202010302010102030000C2
:1003200002010201070101060101060101070102A4
:10033000050102060104000002010201020201039C
:10034000020302020103020205020202020400008B
:100350000205010105010101020307010101020279
:100360000302020302040000020601010701010169
:100370000202070102020201020201010203050159
:10038000010501030000010402020302020202024D
:100390000102020302040000020302020602040535
:1003A000020205020203020102020101020400022C
:1003B0000101020102020201020102020102020223
:1003C00005020203020400020203020206020405FF
:1003D0000204030201020201010204000001010201
:1003E00001020202010201020201020202070102ED
:1003F0000601020854696D696E6700416C61726D97
:0704000000FF0245FF025658
:100D1D00202A170EE80D490BD60B3109F708E0070D
:100D2D00E8077806A705ED059804FB047003F403A6
:100D3D00C5035302F602CB025D021A01D201630014
:100D4D00010B00025800000308FF0267015A000161
:100D5D005E00015D0C015C0B0116070256001515B6
:100D6D0041FF0220FF0225FF022AFF0230FF02355C
:100D7D00FF023BFF0240015B06011501015F01010E
:100D8D001301011400010C00010E00010D000261A0
:050D9D000000016000F0
:1010B300EF1FAA0670011E4A6013E4FCFDC3ED9402
:0D10C3004BEC940050EA0DBD00010C80F0D4
:0110D00022FD
:101105007C007D0A120589EF4E6007EF1F70F81EFF
:0311150080F52240
:05000E00B2950211058E
:10113C00438910758D02758B18D2AFD2ABD28E222B
:070003008B088A09890A221B
:100DA3008B648A658966758D3C758BB00563E50B2D
:100DB30075F004A4FFC3E5639FE5F06480F87480D5
:100DC30098405FE4F563AB08AA09A90A1204FDFF82
:100DD300601990000112051675F007A42F25E02471
:100DE30015F8E6F55808E6F5598005E4F558F55980
:100DF300AB08AA09A90A900002120516F50B7403A1
:100E0300250AF50AE43509F509FAA90A1204FDB41D
:100E1300080985640885650985660A7F1E7E0012B8
:030E230010B322E7
:10111800438901758CFC758A18D2A9D2AFD28CD2BA
:02112800BB22E8
:07119A00D28AD2AAD2AF22D3
:10114C00758911758DD8758BF0D2ABD2AFC28E224A
:101094007401120543F582758300740C1205559092
:0F10A4000002740112055590000374FE020555F9
:04117C007FE87E0387
:0B118000EF1FAC0670011E4C70F62241
:1010D10020B11912117C20B1100515751301755F2E
:0D10E10001E515B4050375150130B1FD22C0
:0F118B0020B00B12117C20B002055F30B0FD22A6
:1010EE0020B21312117C20B20A0513E513B40703C4
:0710FE0075130130B2FD2261
:10102B00AB07AA06EB5403700AFC7D64120589ED2D
:10103B004C700FAE02AF037C017D90120589ED4C15
:06104B007002D322C32253
:100B3A00756D00855C6EE516C394034026AE56AF0C
:100B4A00577C007D641205898E678F68AE56AF5751
:100B5A007C007D641205898C698D6A756B00851627
:100B6A006C8031E516240CF56CE433F56BE55724FB
:100B7A00FFFBE55634FFFA7C007D64AF03FE1205E5
:100B8A00898C698D6A7C007D64AF03AE0212058987
:100B9A008E678F68E56AAE697802CEC313CE13D822
:100BAA00F9256AFDE568AE677802CEC313CE13D87D
:100BBA00F92DFFE56825E0FEC3EF9EFBE56C2401F5
:100BCA00FFE4356BFE7C007D1A1205777D0A12055B
:100BDA0089EB2F256E14F55B24BCFFE43402FE7CFE
:080BEA00007D071205898D5BF7
:010BF20022E0
:10099C00E55AC3943C4005055EE4F55AE55EC39404
:1009AC003C4005055DE4F55EE55DC3941840050526
:1009BC005CE4F55DAF57AE5612102B500EE516B435
:1009CC00021AE55CD3941D4013800CE516B4020C9E
:1009DC00E55CD3941C40050516755C01E5166401B5
:1009EC006023E5166403601DE51664056017E516C3
:1009FC0064076011E5166408600BE516640A60056F
:100A0C00E516B40C09E55CD3941F4002801EE51674
:100A1C0064046011E5166406600BE5166409600554
:100A2C00E516B40B0CE55CD3941E40050516755CFD
:100A3C0001E516D3940C400B0557E557700205568B
:100A4C00751601D3E557940FE55694274006755655
:100A5C002775570FC3E5579401E55694005006755A
:060A6C005600755701223F
:100FDD00E50CC3943C4005050EE4F50CE50EC394F9
:100FED003C4005050DE4F50EE50DC394184007E4EE
:070FFD00F50DF50CF50E22C5
:100A7200E51324FE603314604C1460621460781431
:100A82007003020B1224056003020B39E55FC39465
:100A9200025003020B39E55A943B5006E55A04FF13
:100AA20080027F008F5A020B36E55FC39402500327
:100AB200020B39E55E943B5006E55E04FF80027F3F
:100AC200008F5E806FE55FC39402406BE55D941713
:100AD2005006E55D04FF80027F008F5D8056E55F72
:100AE200C394024052E55C941F5006E55C04FF800B
:100AF200027F018F5C803DE55FC394024039E516B9
:100B0200940C5006E51604FF80027F018F168024A4
:100B1200E55FC394024020E5579463E55694005084
:100B22000BE5572401FFE43556FE80047E007F006A
:080B32008E568F57755F0122FA
:10105100E55F20E004D28E8002C28EE513B4021156
:10106100C28EE4F514F50CF50EF50D755F017513DF
:0210710001225A
:100BF300E51324FE602D14604D1460692403600323
:100C0300020C8DE55FC394025003020C901204FDA5
:100C1300FFC3943B5005EF04FF80027F00EF1205F2
:100C2300438063E55FC3940240639000011205169D
:100C3300FFC394175005EF04FF80027F009000016B
:100C4300EF1205558040E55FC394024040900002D7
:100C5300120516B401047F0080027F01900002EFA9
:100C63001205558021E55FC39402402190000312D1
:100C73000516FFC394FE5005EF04FF80027F019029
:0E0C83000003EF120555755F01227513012263
:100751007F3812115C7F0C12115C7F0612115C7FD5
:100761008012115C7F2012116C7F2012116CE55DEB
:1007710075F00A842430FF12116CE55D75F00A846E
:10078100E5F02430FF12116C7F3A12116CE55E75B1
:10079100F00A842430FF12116CE55E75F00A84E5DD
:1007A100F02430FF12116C7F3A12116CE55A75F08A
:1007B1000A842430FF12116CE55A75F00A84E5F0C1
:1007C1002430FF12116C7F2012116CE55B75F00370
:1007D100A42441F8860308E6FA08E68B678A68F5DF
:1007E10069AB67AA68A9691204FD60130569E56927
:1007F1007002056814F91204FDFF12116C80E27F8A
:10080100C012115C7F2012116C7F2012116C7F329B
:1008110012116C7F3012116CAE56AF577C007D0AFD
:10082100120589EF2430FF12116CAE56AF577C00D0
:100831007D0A120589ED2430FF12116C7F2F1211F0
:100841006CE51675F00A842430FF12116CE51675FB
:10085100F00A84E5F02430FF12116C7F2F12116C25
:10086100E55C75F00A842430FF12116CE55C75F0CB
:100871000A84E5F02430FF12116C7F2012116C7F85
:0E0881002012116C7F2012116C7F2002116C6E
:1005DE00120A727F3812115C7F0C12115C7F0612A8
:1005EE00115C7F8012115CE51324FE600B14600C0D
:1005FE002402700C7F73800A7F6D80067F688002F4
:10060E007F2012116C7F2012116CE55D75F00A844B
:10061E002430FF12116CE55D75F00A84E5F024308C
:10062E00FF12116C7F3A12116CE55E75F00A84248C
:10063E0030FF12116CE55E75F00A84E5F02430FF90
:10064E0012116C7F3A12116CE55A75F00A8424303F
:10065E00FF12116CE55A75F00A84E5F02430FF1292
:10066E00116C7F2012116CE55B75F003A42441F828
:10067E00860308E6FA08E68B678A68F569AB67AA0F
:10068E0068A9691204FD60130569E56970020568C1
:10069E0014F91204FDFF12116C80E27FC012115C7E
:1006AE00E51324FB600B14600C2402700C7F648035
:1006BE000A7F6D80067F7980027F2012116C7F2069
:1006CE0012116C7F3212116C7F3012116CAE56AF5C
:1006DE00577C007D0A120589EF2430FF12116CAE93
:1006EE0056AF577C007D0A120589ED2430FF12119A
:1006FE006C7F2F12116CE51675F00A842430FF12F0
:10070E00116CE51675F00A84E5F02430FF12116CB9
:10071E007F2F12116CE55C75F00A842430FF1211E4
:10072E006CE55C75F00A84E5F02430FF12116C7FE5
:10073E002012116C7F2012116C7F2012116C7F2001
:03074E0002116C29
:10088F0078677C007D007BFF7A0379F47E007F0719
:10089F001204D7756E00756F007570671210517F57
:1008AF003812115C7F0C12115C7F0612115C7F8075
:1008BF0012115C7F2012116C7F2012116C7F20129D
:1008CF00116C7F2012116C7F208019AB6EAA6FA95B
:1008DF00701204FD60130570E5707002056F14F956
:1008EF001204FDFF12116C80E27F2012116C7F2029
:1008FF0012116C7F2012116C7F2012116C7F20124D
:10090F00116C7FC012115C7F2012116C7F201211AD
:10091F006C7F2012116CE50D75F00A842430FF12E4
:10092F00116CE50D75F00A84E5F02430FF12116C9F
:10093F007F3A12116CE50E75F00A842430FF121104
:10094F006CE50E75F00A84E5F02430FF12116C7F10
:10095F003A12116CE50C75F00A842430FF12116CF9
:10096F00E50C75F00A84E5F02430FF12116C7F3A24
:10097F0012116CE51475F00A842430FF12116CE526
:0D098F001475F00A84E5F02430FF02116CAD
:06001E008B678A68896906
:10002400786A7C007D007BFF7A0379FB7E007F0683
:100034001204D775700075710075726AAB67AA688F
:10004400A969120BF37F3812115C7F0C12115C7FCB
:100054000612115C7F8012115CAB70AA71A9721236
:1000640004FD60130572E5727002057114F912043F
:10007400FDFF12116C80E27F2012116CAB67AA683D
:10008400A9699000021205167F6FB4010C12116C5D
:100094007F6E12116C7F20800A12116C7F66121120
:1000A4006C7F6612116C7F2012116C7F2012116C10
:1000B4007F2012116C7F2012116C7F2012116C7F33
:1000C4002012116CE513B403047F3C80027F2012DC
:1000D400116CE513640460030201767FC012115CA5
:1000E4007F3112116C7F2D12116C7F3712116C7FCE
:1000F4003A12116C7F2012116CAB67AA68A969903F
:10010400000312051675F064842430FF12116CABE1
:1001140067AA68A969900003120516FF75F0648444
:1001240075F00AA4FEEF75F00A84C39E2430FF1212
:10013400116CAB67AA68A96990000312051675F0E3
:100144000A84E5F02430FF12116C7F2012116C7FB9
:100154002012116C7F2012116C7F2012116C7F20F1
:1001640012116C7F2012116C7F2012116C7F3C02E3
:10017400021C7FC012115C7F2012116C7F201211AF
:100184006C7F2012116C7F2012116C7F2012116C75
:100194007F2012116CAB67AA68A96990000112054F
:1001A4001675F00A842430FF12116CAB67AA68A993
:1001B4006990000112051675F00A84E5F02430FFF9
:1001C40012116C7F3A12116CAB67AA68A969120408
:1001D400FD75F00A842430FF12116CAB67AA68A97C
:1001E400691204FD75F00A84E5F02430FF12116CE5
:1001F4007F2012116C7F2012116C7F2012116C7FF2
:100204002012116CE513B401047F6D800BE513B467
:0B02140002047F6880027F2012116C42
:01021F0022BC
:100F6B0012099C120B3AE515B40103020751E51562
:100F7B00B4020F7F0112115C1205DE7FE87E0302C3
:100F8B001180E515B40306120FDD02088FE515B4C9
:0C0F9B0004097B007A00790F12001E226E
:100E2600786B7C007D007BFF7A0479017E007F066B
:100E36001204D7856B71856C72856D737F381211BC
:100E46005C7F0C12115C7F0612115C7F8012115CB4
:100E5600AB71AA72A9731204FD60130573E5737072
:100E660002057214F91204FDFF12116C80E27FC0B4
:100E760012115C856E71856F72857073AB71AA7283
:100E8600A9731204FD60130573E5737002057214ED
:0A0E9600F91204FDFF12116C80E256
:010EA000222F
:100EA100E5696401703EE55B7003755B07C3740817
:100EB100955BFFE56AA807088002C313D8FC30E000
:100EC1001BE55DB56816E55EB56711E55AC394008B
:100ED100400AE55AD394025003756001E55BB407FB
:100EE10003E4F55BE560B40126120E267BFF7A026E
:100EF100796712000312113CE560B4010FE5594511
:100F01005860F5AF59AE5812000E80EC12114C2208
:100FA70012111812114C12119A7B007A00790F1244
:100FB70010941210D112118B1210EE120F6B78676A
:100FC7007C007D007B007A00790F7E007F0412048D
:060FD700D7120EA180DC20
:03000B00021004DC
:10100400C0E0C0D0758CFC758A180562E562700278
:101014000561B4DC0DE561B40308055A756100751A
:071024006200D0D0D0E032E1
:0300130002107365
:10107300C0E0C0D075D000C004C006C00712117C08
:1010830020B303756000D007D006D004D0D0D0E0E1
:01109300322A
:03001B00020F11C0
:100F1100C0E0C0F0C083C082C0D075D000C000C0A6
:100F210001C002C003C004C005C006C007E560B42B
:100F3100010B7BFF7A027967120DA38012758DD8A0
:100F4100758BF00514E514B46405751400050CD017
:100F510007D006D005D004D003D002D001D000D0F4
:0A0F6100D0D082D083D0F0D0E0326F
:10112A007580FFC2A6D2A5D2A7AF80C2A7EF20E7DB
:01113A00F6BE
:01113B002291
:10115C00AE0712112AC2A6C2A58E80D2A7C2A722A0
:10116C00AE0712112AD2A6C2A58E80D2A7C2A72280
:03000000020C915E
:0C0C9100787FE4F6D8FD758173020CD862
:10040700E709F608DFFA8046E709F208DFFA803ED7
:1004170088828C83E709F0A3DFFA8032E309F608C4
:10042700DFFA8078E309F208DFFA807088828C832C
:10043700E309F0A3DFFA806489828A83E0A3F608E0
:10044700DFFA805889828A83E0A3F208DFFA804CBA
:1004570080D280FA80C680D4806980F28033801091
:1004670080A680EA809A80A880DA80E280CA8033FA
:1004770089828A83ECFAE493A3C8C582C8CCC58372
:10048700CCF0A3C8C582C8CCC583CCDFE9DEE78042
:100497000D89828A83E493A3F608DFF9ECFAA9F0C1
:1004A700EDFB2289828A83ECFAE0A3C8C582C8CC17
:1004B700C583CCF0A3C8C582C8CCC583CCDFEADE30
:1004C700E880DB89828A83E493A3F208DFF980CC92
:1004D70088F0EF60010E4E60C388F0ED2402B4048B
:1004E7000050B9F582EB2402B4040050AF23234532
:0604F700822390045773FC
:1004FD00BB010689828A83E0225002E722BBFE02FD
:09050D00E32289828A83E493222F
:10051600BB010CE58229F582E5833AF583E022509A
:1005260006E92582F8E622BBFE06E92582F8E222E4
:0D053600E58229F582E5833AF583E49322FE
:10054300BB010689828A83F0225002F722BBFE0197
:02055300F32291
:10055500F8BB010DE58229F582E5833AF583E8F0DC
:10056500225006E92582C8F622BBFE05E92582C888
:02057500F22270
:10057700EF8DF0A4A8F0CF8CF0A428CE8DF0A42E98
:02058700FE2252
:10058900BC000BBE0029EF8DF084FFADF022E4CC56
:10059900F875F008EF2FFFEE33FEEC33FCEE9DEC1F
:1005A900984005FCEE9DFE0FD5F0E9E4CEFD22ED65
:1005B900F8F5F0EE8420D21CFEADF075F008EF2FAF
:1005C900FFED33FD4007985006D5F0F222C398FDA0
:0505D9000FD5F0EA223D
:100C9D00020FA7E493A3F8E493A34003F68001F2B7
:100CAD0008DFF48029E493A3F85407240CC8C33358
:100CBD00C4540F4420C8834004F456800146F6DF27
:100CCD00E4800B0102040810204080900D1DE47E8D
:100CDD00019360BCA3FF543F30E509541FFEE4931C
:100CED00A360010ECF54C025E060A840B8E493A3E3
:100CFD00FAE493A3F8E493A3C8C582C8CAC583CA0E
:100D0D00F0A3C8C582C8CAC583CADFE9DEE780BEC5
:010DA2000050
:00000001FF
