:100EF0003F065B4F666D7D077F6F400080000408F2
:050F00000C1014181C88
:100E7500011E00010F00010900011000011400010D
:100E85001300011900011D00011C01010800020DDC
:0A0E950007E4020A00020211000245
:040F25007FE87E03E0
:0B0F2900EF1FAC0670011E4C70F6229A
:100DFC0075F00A84FD7C007E00120E17E51C7F0640
:0B0E0C0075F00A84E5F0FD7C007E001C
:100E170074FD2FF582740E3EF583E493F5A074F00C
:100E27002DF582740E3CF583E493F5807F647E0094
:030E3700020F297E
:10000E00E51E7053E50CC394C8504CE51075F00A0C
:10001E0084E5F0FD7C00E4FFFE120E17E51075F08E
:10002E000A84FD7C007F017E00120E177D0A7C0083
:10003E007F027E00120E17E5147F03120E0CE514DC
:10004E0075F00A84FD7C007F047E00120E177D0A77
:10005E007C007F05020203E51E6401600302013588
:10006E00E50CD39432402FE50CD394644006E50C96
:10007E0094964022E50CD394C84006E50C94FA40C1
:10008E0015AF0CD3EF942C748094814015EF945ED1
:10009E0074809481500C7D0B7C00E4FFFE120E17D1
:1000AE00805CE50CD394324007E50CD39464403663
:1000BE00E50CD394964007E50CD394C84028E50C84
:1000CE00D394FA400BD3E50C942C74809481401693
:1000DE00AF0CD3EF945E74809481402BD3EF949049
:1000EE00748094815021E51075F00A84E5F0FD7C52
:1000FE0000E4FFFE120E17E51075F00A84FD7C0079
:10010E007F017E00120E17E51475F00A84E5F0FDEE
:10011E007C007F037E00120E17E51475F00A84FD35
:10012E007C007F04020203E51E64026003020212D9
:10013E00E50CD39432402FE50CD394644006E50CC5
:10014E0094964022E50CD394C84006E50C94FA40F0
:10015E0015AF0CD3EF942C748094814016EF945EFF
:10016E0074809481500D7D0B7C007F037E00120EF7
:10017E0017805DE50CD394324007E50CD3946440B0
:10018E0036E50CD394964007E50CD394C84028E589
:10019E000CD394FA400BD3E50C942C7480948140CC
:1001AE0016AF0CD3EF945E74809481402CD3EF94F1
:1001BE0090748094815022E51475F00A84E5F0FD68
:1001CE007C007F037E00120E17E51475F00A84FD85
:1001DE007C007F047E00120E17E51075F00A84E590
:1001EE00F0FD7C00E4FFFE120E17E51075F00A8498
:1001FE00FD7C007F017E00120E17E513120E0AE53C
:10020E0013020489E51E640360030202EFE50CD3BA
:10021E009432402FE50CD394644006E50C9496403E
:10022E0022E50CD394C84006E50C94FA4015AF0CA9
:10023E00D3EF942C748094814016EF945E74809466
:10024E0081500D7D0B7C007F067E00120E178050B4
:10025E00E50CD394324007E50CD394644036E50C9C
:10026E00D394964007E50CD394C84028E50CD3945C
:10027E00FA400BD3E50C942C748094814016AF0C8D
:10028E00D3EF945E74809481401FD3EF949074806A
:10029E0094815015E513120E0AE51375F00A84FDCC
:1002AE007C007F077E00120E17E51075F00A84E5BC
:1002BE00F0FD7C00E4FFFE120E17E51075F00A84C7
:1002CE00FD7C007F017E00120E17E51475F00A8486
:1002DE00E5F0FD7C007F037E00120E17E51402058B
:1002EE006DE51E640460030203BDE50CD394324039
:1002FE002FE50CD394644006E50C94964022E50C51
:10030E00D394C84006E50C94FA4015AF0CD3EF9485
:10031E002C748094814015EF945E74809481500CFF
:10032E007D0B7C00E4FFFE120E17805CE50CD3946F
:10033E00324007E50CD394644036E50CD3949640D6
:10034E0007E50CD394C84028E50CD394FA400BD3A0
:10035E00E50C942C748094814016AF0CD3EF945E10
:10036E0074809481402BD3EF9490748094815021AB
:10037E00E51975F00A84E5F0FD7C00E4FFFE120E2F
:10038E0017E51975F00A84FD7C007F017E00120EC0
:10039E0017E51D75F00A84E5F0FD7C007F037E00F5
:1003AE00120E17E51D7F04120DFCE51C020489E5F3
:1003BE001E64056003020495E50CD39432402FE5CC
:1003CE000CD394644006E50C94964022E50CD3942D
:1003DE00C84006E50C94FA4015AF0CD3EF942C747C
:1003EE008094814016EF945E74809481500D7D0B45
:1003FE007C007F037E00120E17805DE50CD39432D5
:10040E004007E50CD394644036E50CD39496400730
:10041E00E50CD394C84028E50CD394FA400BD3E5F1
:10042E000C942C748094814016AF0CD3EF945E74B0
:10043E00809481402CD3EF9490748094815022E567
:10044E001D75F00A84E5F0FD7C007F037E00120E20
:10045E0017E51D75F00A84FD7C007F047E00120EE8
:10046E0017E51975F00A84E5F0FD7C00E4FFFE1235
:10047E000E17E5197F01120DFCE51C75F00A84FDBF
:10048E007C007F07020576E51E6406600302057B8D
:10049E00E50CD39432402FE50CD394644006E50C62
:1004AE0094964022E50CD394C84006E50C94FA408D
:1004BE0015AF0CD3EF942C748094814016EF945E9C
:1004CE0074809481500D7D0B7C007F067E00120E91
:1004DE0017804EE50CD394324007E50CD39464405C
:1004EE0036E50CD394964007E50CD394C84028E526
:1004FE000CD394FA400BD3E50C942C748094814069
:10050E0016AF0CD3EF945E74809481401DD3EF949C
:10051E0090748094815013120E08E51C75F00A84B5
:10052E00FD7C007F077E00120E17E51975F00A8418
:10053E00E5F0FD7C00E4FFFE120E17E51975F00ADA
:10054E0084FD7C007F017E00120E17E51D75F00AFA
:10055E0084E5F0FD7C007F037E00120E17E51D750D
:10056E00F00A84FD7C007F047E00120E17E50FB4A6
:10057E00010AE51EB40105E4F50F0510E50FB401FF
:10058E000AE51EB40205E4F50F0514E50FB4010AE1
:10059E00E51EB40305E4F50F0513E509B40112E5F4
:1005AE001EB4010DE4F5091510E510B4FF03751026
:1005BE003BE509B40112E51EB4020DE4F50915146C
:1005CE00E514B4FF0375143BE509B40112E51EB43E
:1005DE00030DE4F5091513E513B4FF03751317E5C1
:1005EE000FB40114E51EB4040FE4F50F0519E51957
:1005FE00D3943B4003E4F519E50FB40114E51EB4A2
:10060E00050FE4F50F051DE51DD3943B4003E4F5FE
:10061E001DE50FB40112E51EB4060DE4F50F051C21
:10062E00E51CB41803E4F51CE509B40112E51EB48B
:10063E00040DE4F5091519E519B4FF0375193BE529
:10064E0009B40112E51EB4050DE4F509151DE51DED
:10065E00B4FF03751D3BE509B40112E51EB4060D8A
:0E066E00E4F509151CE51CB4FF03751C1722EA
:10067C00AE0DAF0E7C037DE8120DA77C007D0A1237
:10068C000D95AA06AB07AE0DAF0E7D64120DA7C378
:10069C00EF9BF520EE9AF51FAE0DAF0E7C037DE8B7
:1006AC00120DA77C007D64120D95AA06AB07AE0D4A
:1006BC00AF0E7D0A120DA7C3EF9BFBEE9AFAAE1F8D
:1006CC00AF207C007D0A120D95C3EB9FFFEA9EAB19
:1006DC0007FAE51E702DE50CD394C84026AE11AF79
:1006EC0012120DA7E4FFFE120E17AE11AF127C0012
:1006FC007D0A120DA7AC06AD077F017E00120E1706
:10070C000207C7E51E640760030207EDE50CD394EE
:10071C0032402FE50CD394644006E50C94964022AD
:10072C00E50CD394C84006E50C94FA4015AF0CD3F5
:10073C00EF942C748094814017EF945E74809481B4
:10074C00500E7D0B7C00E4FFFE120E177C008064C3
:10075C00E50CD394324007E50CD394644036E50C99
:10076C00D394964007E50CD394C84028E50CD39459
:10077C00FA400BD3E50C942C748094814016AF0C8A
:10078C00D3EF945E748094814031D3EF9490748055
:10079C0094815027AE11AF127C007D0A120DA7E494
:1007AC00FFFE120E17AE11AF127C007D0A120DA7C0
:1007BC00AC06AD077F017E00120E17AE0AAF0B7CA4
:1007CC00007D0A120DA77F027E00120E17AE0AAF33
:1007DC000B7C007D0A120DA7AC06AD077F03020847
:1007EC00CCE51E6408600302090DE50CD39432407D
:1007FC0032E50CD394644007E50CD394964024E581
:10080C000CD394C84007E50CD394FA4016AF0CD324
:10081C00EF942C748094814019D3EF945E7480947F
:10082C0081500F7D0B7C007F027E00120E177C0026
:10083C008065E50CD394324007E50CD394644036C4
:10084C00E50CD394964007E50CD394C84028E50CEE
:10085C00D394FA400BD3E50C942C748094814016FD
:10086C00AF0CD3EF945E748094814032D3EF9490AC
:10087C00748094815028AE0AAF0B7C007D0A120D57
:10088C00A77F027E00120E17AE0AAF0B7C007D0A0A
:10089C00120DA7AC06AD077F037E00120E17AE112A
:1008AC00AF127C007D0A120DA7E4FFFE120E17AEEC
:1008BC0011AF127C007D0A120DA7AC06AD077F01AB
:1008CC007E00120E17AE0DAF0E7C007D0A120DA726
:1008DC007F047E00120E17AD03AC027F057E001262
:1008EC000E17AD20AC1F7F067E00120E17AE0DAF9B
:1008FC000E7C037DE8120DA7AC06AD077F07020A3C
:10090C0039E51E64096003020A3EE50CD3943240BB
:10091C002FE50CD394644006E50C94964022E50C2C
:10092C00D394C84006E50C94FA4015AF0CD3EF9461
:10093C002C74809481402AEF945E748094815021B1
:10094C007D0B7C007F047E00120E177C007F057EE1
:10095C0000120E177C007F067E00120E177C0080A2
:10096C007BE50CD394324007E50CD394644036E518
:10097C000CD394964007E50CD394C84028E50CD3CF
:10098C0094FA400BD3E50C942C748094814016AFF0
:10099C000CD3EF945E748094814048D3EF949074A0
:1009AC00809481503EAE0DAF0E7C007D0A120DA7D7
:1009BC007F047E00120E17AD03AC027F057E001281
:1009CC000E17AD20AC1F7F067E00120E17AE0DAFBA
:1009DC000E7C037DE8120DA7AC06AD077F077E00E9
:1009EC00120E17AE11AF127C007D0A120DA7E4FF98
:1009FC00FE120E17AE11AF127C007D0A120DA7ACC1
:100A0C0006AD077F017E00120E17AE0AAF0B7C00FD
:100A1C007D0A120DA77F027E00120E17AE0AAF0BD5
:100A2C007C007D0A120DA7AC06AD077F037E001279
:100A3C000E17E50FB40110E51EB4070BE4F50F0516
:100A4C0012E51270020511E50FB40110E51EB40891
:100A5C000BE4F50F050BE50B7002050AE50FB4016D
:100A6C0010E51EB4090BE4F50F050EE50E7002053A
:100A7C000DE509B40121E51EB4071CE4F509E512E6
:100A8C00151270021511C3E5129401E51194005072
:100A9C000675110075121CE509B40121E51EB40898
:100AAC001CE4F509E50B150B7002150AC3E50B9454
:100ABC0001E50A94005006750A00750B0CE509B4A3
:100ACC00011DE51EB40918E4F509E50E150E7002BA
:0F0ADC00150DC3E50D94005006750D07750EE45A
:010AEB0022E8
:100ED70020B115120F2520B10C051EE51ED394096C
:090EE7004003E4F51E30B1FD22C8
:0F0F340020B00B120F2520B002050F30B0FD22A8
:0F0F430020B20B120F2520B202050930B2FD2299
:100F050020B30C120F2520B303E4F50830B3FD22FE
:100EBD00E519B5100DE51DB51408E51CB513037541
:0A0ECD000801E508B40102B2952205
:100AEC00E510C3943C400874C42510F5100514E5BA
:100AFC0014C3943C400874C42514F5140513E51371
:100B0C00D39418400E74E82513F5130512E51270F2
:100B1C00020511E50A6003020D08E50B14B40C0084
:100B2C004003020D08900B3F75F003A4C58325F01C
:100B3C00C58373020B63020B80020BF0020C0D02D7
:100B4C000C2A020C47020C64020C81020C9B020C56
:100B5C00B5020CCF020CE9D3E512941FE5119400F9
:100B6C005003020D08751100751201050BE50B7091
:100B7C0002050A22E50E54037026AE0DAF0EFC7D65
:100B8C0064120DA7ED4C6018D3E512941DE5119479
:100B9C00005003020D08050BE50B7041050A803D62
:100BAC00AE0DAF0E7C017D90120DA7ED4C7018D3DD
:100BBC00E512941DE51194005003020D08050BE598
:100BCC000B7002050A8016D3E512941CE5119400F3
:100BDC005003020D08050BE50B7002050A75110098
:100BEC0075120122D3E512941FE5119400500302F3
:100BFC000D08751100751201050BE50B7002050A45
:100C0C0022D3E512941EE51194005003020D0875D1
:100C1C001100751201050BE50B7002050A22D3E5D4
:100C2C0012941FE51194005003020D087511007504
:100C3C001201050BE50B7002050A22D3E512941E76
:100C4C00E51194005003020D087511007512010591
:100C5C000BE50B7002050A22D3E512941FE51194E3
:100C6C00005003020D08751100751201050BE50B00
:100C7C007002050A22D3E512941FE5119400407C02
:100C8C00751100751201050BE50B7002050A22D3D4
:100C9C00E512941EE5119400406275110075120165
:100CAC00050BE50B7056050A22D3E512941FE511CE
:100CBC0094004048751100751201050BE50B703C52
:100CCC00050A22D3E512941EE5119400402E7511ED
:100CDC0000751201050BE50B7022050A22D3E512F3
:100CEC00941FE51194004014751100751201750ADA
:0D0CFC0000750B01050EE50E7002050D22BE
:100F1500438901758CD8758AF0D2A9D2AFD28C22BB
:100EA000120F1512000E120ED7120F34120F43122A
:0D0EB0000F05120EBD120AEC12067C80E642
:03000B00020E3AA8
:100E3A00C0E0C0F0C0D075D000C006C007758CD81D
:100E4A00758AF0050CE50C75F06484E5F07004050C
:100E5A0010800DAF0C7E00BE0106BF9003750C001A
:0B0E6A00D007D006D0D0D0F0D0E0328E
:03000000020D09E5
:0C0D0900787FE4F6D8FD758120020D50C3
:100D9500EF8DF0A4A8F0CF8CF0A428CE8DF0A42E72
:020DA500FE222C
:100DA700BC000BBE0029EF8DF084FFADF022E4CC30
:100DB700F875F008EF2FFFEE33FEEC33FCEE9DECF9
:100DC700984005FCEE9DFE0FD5F0E9E4CEFD22ED3F
:100DD700F8F5F0EE8420D21CFEADF075F008EF2F89
:100DE700FFED33FD4007985006D5F0F222C398FD7A
:050DF7000FD5F0EA2217
:100D1500020EA0E493A3F8E493A34003F68001F246
:100D250008DFF48029E493A3F85407240CC8C333DF
:100D3500C4540F4420C8834004F456800146F6DFAE
:100D4500E4800B0102040810204080900E75E47EBB
:100D5500019360BCA3FF543F30E509541FFEE493A3
:100D6500A360010ECF54C025E060A840B8E493A36A
:100D7500FAE493A3F8E493A3C8C582C8CAC583CA95
:100D8500F0A3C8C582C8CAC583CADFE9DEE780BE4D
:010E9F000052
:00000001FF
