C51 COMPILER V9.01   MAIN                                                                  07/15/2020 15:46:27 PAGE 1   


C51 COMPILER V9.01, COMPILATION OF MODULE MAIN
OBJECT MODULE PLACED IN main.OBJ
COMPILER INVOKED BY: D:\Keiluvision4C51\C51\BIN\C51.EXE main.c BROWSE DEBUG OBJECTEXTEND

line level    source

   1          #include "DS1302.h"
   2          #include "LCD1602.h"
   3          #include "music.h"
   4          
   5          typedef unsigned int uint;
   6          typedef unsigned char uchar;
   7          
   8          //按键的IO口
   9          sbit k1 = P3^1;
  10          sbit k2 = P3^0;
  11          sbit k3 = P3^2;
  12          sbit k4 = P3^3;  
  13          
  14          //时间、日期和星期
  15          uchar sec=0,min=0,hour=12;
  16          uchar day=11,month=7;
  17          uint year=20;
  18          uchar *week[] = {"Mon.","Tues.","Wed.","Thur.","Fri.","Sat.","Sun."},Week1=6;
  19          
  20          //模式
  21          uchar mode=1;
  22          uchar plus=1;
  23          uchar shift=1;
  24          
  25          //计时的时间,0.01s,秒、分、小时
  26          uchar s1=0,t_sec=0,t_min=0,t_hour=0;
  27          
  28          
  29          //闹钟
  30          uchar c_min=1,c_hour=12,on=1,turn=0;
  31          
  32          
  33          /*-------------------------------------------------初始化部分start----------------------------------------
             -----------------------*/
  34          
  35          /*---DS1302时钟初始化2020年7月11日星期六12点00分00秒。---//
  36          //---存储顺序是秒分时日月周年,存储格式是用BCD码           ---*/
  37          void Clock_init()
  38          {
  39   1              write_DS1302_dat(0x8e,0);               //关闭读写保护
  40   1      
  41   1              write_DS1302_dat(0x80,encode_BCD(sec));                 // 秒
  42   1              write_DS1302_dat(0x82,encode_BCD(min));                 // 时
  43   1              write_DS1302_dat(0x84,encode_BCD(hour));                // 分
  44   1      
  45   1              write_DS1302_dat(0x86,encode_BCD(day));                 //      日
  46   1              write_DS1302_dat(0x88,encode_BCD(month));               //      月
  47   1              write_DS1302_dat(0x8a,encode_BCD(Week1));               //      星期
  48   1              write_DS1302_dat(0x8c,encode_BCD(year));                //      年
  49   1      
  50   1              write_DS1302_dat(0x8e,0x80);    //开启读写保护
  51   1      }
  52          
  53          //外部中断1初始化
  54          void Int1Init()
C51 COMPILER V9.01   MAIN                                                                  07/15/2020 15:46:27 PAGE 2   

  55          {
  56   1              //设置INT1
  57   1              IT1=1;//跳变沿出发方式（下降沿）
  58   1              EX1=1;//打开INT1的中断允许。    
  59   1              EA=1;//打开总中断       
  60   1      }
  61          
  62          //定时器1初始化
  63          void Timer1_init()
  64          {
  65   1              TMOD=0X11;      //同时设置T0和T1为工作模式1
  66   1              TH1=0Xd8;       //给定时器1赋初值，定时10ms
  67   1              TL1=0Xf0;       
  68   1              ET1=1;          //打开定时器1中断允许
  69   1              EA=1;           //打开总中断
  70   1              TR1=0;          //关闭定时器1                   
  71   1      }
  72          /*-----------------------------------初始化部分end--------------------------------------------------------
             -------------*/
  73          
  74          
  75          //延时函数
  76          void delay(uint i)
  77          {
  78   1              while(i--);
  79   1      }
  80          
  81          
  82          /*------------------------------------按键部分start-------------------------------------------------------
             -------------*/
  83          //按键1功能
  84          void key1press()
  85          {
  86   1              if(k1 == 0)               //检测按键K1是否按下
  87   1              {       
  88   2                      delay(1000);   //消除抖动 一般大约10ms
  89   2                      if(k1 == 0)      //再次判断按键是否按下
  90   2                      {
  91   3                              mode++;
  92   3      
  93   3                              shift=1; //shift初始化
  94   3                              plus=1;  //plus初始化
  95   3      
  96   3                              if(mode == 5)   mode = 1;                       
  97   3                      }
  98   2                      while(!k1);      //检测按键是否松开
  99   2              }
 100   1      }
 101          
 102          //按键2功能
 103          void key2press()
 104          {
 105   1              if(k2 == 0)               //检测按键K2是否按下
 106   1              {       
 107   2                      delay(1000);   //消除抖动 一般大约10ms
 108   2                      if(k2 == 0)      //再次判断按键是否按下
 109   2                      {
 110   3                              plus++;  
 111   3                      }
 112   2                      while(!k2);      //检测按键是否松开
 113   2              }
 114   1      }
C51 COMPILER V9.01   MAIN                                                                  07/15/2020 15:46:27 PAGE 3   

 115          
 116          //按键3功能
 117          void key3press()
 118          {
 119   1              if(k3 == 0)               //检测按键K3是否按下
 120   1              {       
 121   2                      delay(1000);   //消除抖动 一般大约10ms
 122   2                      if(k3 == 0)      //再次判断按键是否按下
 123   2                      {
 124   3                              shift++;
 125   3                              if(shift==8) shift=1;
 126   3                      }
 127   2                      while(!k3);      //检测按键是否松开
 128   2              }
 129   1      }
 130          /*--------------------------------------------------按键部分end-------------------------------------------
             ---------------*/
 131          
 132          
 133          /*--------------------------------------------------处理数据部分start-------------------------------------
             ---------------*/
 134          //获取数据
 135          void get_data()
 136          {       
 137   1              write_DS1302_dat(0x8e,0);           //关闭读写保护
 138   1              sec = read_DS1302_dat(0x81);    //读取秒寄存器
 139   1              min = read_DS1302_dat(0x83);    //读取分寄存器
 140   1              hour = read_DS1302_dat(0x85);   //读取时寄存器
 141   1              day = read_DS1302_dat(0x87);    //读取日寄存器
 142   1              month = read_DS1302_dat(0x89);  //读取月寄存器
 143   1              Week1 = read_DS1302_dat(0x8b);  //读取星期存器
 144   1              year = read_DS1302_dat(0x8d);   //读取年寄存器
 145   1              write_DS1302_dat(0x8e,0x80);    //开启读写保护
 146   1              
 147   1              //BCD解码
 148   1              sec = decode_BCD(sec);
 149   1              min = decode_BCD(min);
 150   1              hour = decode_BCD(hour);
 151   1              day = decode_BCD(day);
 152   1              month = decode_BCD(month);
 153   1              Week1 = decode_BCD(Week1);
 154   1              year = decode_BCD(year);
 155   1      }
 156          
 157          //设置时间和日期
 158          void reset_time_date()
 159          {
 160   1              switch(shift)
 161   1              {
 162   2                      case 1:if(plus >= 2)
 163   2                      {
 164   3                              sec = (sec < 59) ? (sec+1) : 0;
 165   3                              plus = 1;
 166   3                      }
 167   2                      break;
 168   2      
 169   2                      case 2:if(plus >= 2)
 170   2                      {
 171   3                              min = (min < 59) ? (min + 1) : 0;
 172   3                              plus = 1;
 173   3                      }
 174   2                      break;
C51 COMPILER V9.01   MAIN                                                                  07/15/2020 15:46:27 PAGE 4   

 175   2      
 176   2                      case 3:if(plus >= 2)
 177   2                      {
 178   3                              hour = (hour < 23) ? (hour + 1) : 0;
 179   3                              plus = 1;
 180   3                      }
 181   2                      break;
 182   2      
 183   2                      case 4:if(plus >= 2)
 184   2                      {
 185   3                              Week1 = (Week1 < 7) ? (Week1 + 1) : 1;
 186   3                              plus = 1;
 187   3                      }
 188   2                      break;
 189   2      
 190   2                      case 5:if(plus >= 2)
 191   2                      {
 192   3                              day = (day < 31) ? (day + 1) : 1;
 193   3                              plus = 1;
 194   3                      }
 195   2                      break;
 196   2      
 197   2                      case 6:if(plus >= 2)
 198   2                      {
 199   3                              month = (month < 12) ? (month + 1) : 1;
 200   3                              plus = 1;
 201   3                      }
 202   2                      break;
 203   2      
 204   2                      case 7:if(plus >= 2)
 205   2                      {
 206   3                              year = (year < 99) ? (year + 1) : 0;
 207   3                              plus = 1;
 208   3                      }
 209   2                      break;
 210   2              }
 211   1              if(shift > 1)   Clock_init();
 212   1      }
 213          
 214          //计时
 215          void timing()
 216          {
 217   1              if(plus%2==0)
 218   1                      TR1=1;          //打开定时器1
 219   1              else
 220   1                      TR1=0;          //关闭定时器1
 221   1      
 222   1              if(shift==2)    //归零,恢复初始化
 223   1              {  
 224   2                      TR1=0;          //关闭定时器1
 225   2                      s1=0;
 226   2                      t_sec=0;
 227   2                      t_min=0;
 228   2                      t_hour=0;
 229   2                      plus=1;
 230   2                      shift=1;                                
 231   2              }
 232   1      }
 233          
 234          //设置闹钟
 235          void setting_alarm()
 236          {
C51 COMPILER V9.01   MAIN                                                                  07/15/2020 15:46:27 PAGE 5   

 237   1              switch(shift)
 238   1              {
 239   2                      case 1:if(plus >= 2)
 240   2                      {
 241   3                              c_min = (c_min < 59) ? (c_min+1) : 0;
 242   3                              plus = 1;
 243   3                      }               
 244   2                      break;
 245   2      
 246   2                      case 2:if(plus >= 2)
 247   2                      {
 248   3                              c_hour = (c_hour < 23) ? (c_hour + 1) : 0;
 249   3                              plus = 1;
 250   3                      }
 251   2                      break;
 252   2      
 253   2                      case 3:if(plus >= 2)
 254   2                      {
 255   3                              on = (on == 1) ? 0 : 1;
 256   3                              plus = 1;
 257   3                      }
 258   2                      break;
 259   2      
 260   2                      default:        shift=1;
 261   2                      break;
 262   2              }
 263   1      }
 264          /*--------------------------------------------------处理数据部分end---------------------------------------
             -------------*/
 265          
 266          
 267          /*--------------------------------------------------显示部分start-----------------------------------------
             -------------*/
 268          /*工作模式下的LCD显示格式：12:00:00 Sat.
 269                  不闪烁，无光标             2020/07/11     */
 270          void display_working()
 271          {
 272   1              uchar *Week2;
 273   1              get_data();//获取数据
 274   1      
 275   1              //显示
 276   1              write_cmd(0x38); //设置16*2显示
 277   1              write_cmd(0x0c); //设置整体显示，关光标、不闪烁
 278   1              //write_cmd(0x01); 清屏
 279   1              write_cmd(0x06); //设置地址指针移动方向，即向右+1
 280   1              write_cmd(0x80 | 0x00); //设置第一行显示地址
 281   1      
 282   1              //显示时间和星期：12:00:00 Sat.
 283   1              write_dat(' ');
 284   1              write_dat(' ');
 285   1              write_dat((hour/10)+'0');
 286   1              write_dat((hour%10)+'0');
 287   1              write_dat(':');
 288   1              write_dat((min/10)+'0');
 289   1              write_dat((min%10)+'0');
 290   1              write_dat(':');
 291   1              write_dat((sec/10)+'0');
 292   1              write_dat((sec%10)+'0');
 293   1              write_dat(' ');
 294   1              Week2=week[Week1-1];
 295   1              while(*Week2 != '\0')
 296   1              {
C51 COMPILER V9.01   MAIN                                                                  07/15/2020 15:46:27 PAGE 6   

 297   2                      write_dat(*Week2++);
 298   2              }
 299   1      
 300   1              write_cmd(0xc0 | 0x40); //设置第二行显示地址
 301   1      
 302   1              //显示日期：2020/07/11
 303   1              write_dat(' ');
 304   1              write_dat(' ');
 305   1              write_dat(2+'0');
 306   1              write_dat('0');
 307   1              write_dat((year/10)+'0');
 308   1              write_dat((year%10)+'0');
 309   1              write_dat('/');
 310   1              write_dat((month/10)+'0');
 311   1              write_dat((month%10)+'0');
 312   1              write_dat('/');
 313   1              write_dat((day/10)+'0');
 314   1              write_dat((day%10)+'0');
 315   1              write_dat(' ');
 316   1              write_dat(' ');
 317   1              write_dat(' ');
 318   1      }
 319          
 320          /*设置模式下的LCD显示格式：12:00:00 Sat.
 321                  闪烁，无光标               2020/07/11     */
 322          void display_setting()
 323          {
 324   1              uchar *Week2;
 325   1      
 326   1              reset_time_date();//设置时间和日期
 327   1      
 328   1              //显示
 329   1              write_cmd(0x38); //设置16*2显示
 330   1              write_cmd(0x0c); //设置整体显示，关光标、不闪烁
 331   1              //write_cmd(0x01); 清屏
 332   1              write_cmd(0x06); //设置地址指针移动方向，即向右+1
 333   1              write_cmd(0x80 | 0x00); //设置第一行显示地址
 334   1      
 335   1              switch(shift)
 336   1              {
 337   2                      case 1:write_dat('s');break;
 338   2                      case 2:write_dat('m');break;
 339   2                      case 3:write_dat('h');break;
 340   2                      case 4:write_dat('w');break;
 341   2                      default:write_dat(' ');break;
 342   2              }
 343   1              write_dat(' ');
 344   1      
 345   1              //显示时间和星期
 346   1              write_dat((hour/10)+'0');
 347   1              write_dat((hour%10)+'0');
 348   1              write_dat(':');
 349   1              write_dat((min/10)+'0');
 350   1              write_dat((min%10)+'0');
 351   1              write_dat(':');
 352   1              write_dat((sec/10)+'0');
 353   1              write_dat((sec%10)+'0');
 354   1              write_dat(' ');
 355   1              Week2=week[Week1-1];
 356   1              while(*Week2 != '\0')
 357   1              {
 358   2                      write_dat(*Week2++);
C51 COMPILER V9.01   MAIN                                                                  07/15/2020 15:46:27 PAGE 7   

 359   2              }
 360   1      
 361   1              write_cmd(0xc0 | 0x40); //设置第二行显示地址
 362   1              switch(shift)
 363   1              {
 364   2                      case 5:write_dat('d');break;
 365   2                      case 6:write_dat('m');break;
 366   2                      case 7:write_dat('y');break;
 367   2                      default:write_dat(' ');break;
 368   2              }
 369   1              write_dat(' ');
 370   1      
 371   1              //显示日期
 372   1              write_dat(2+'0');
 373   1              write_dat('0');
 374   1              write_dat((year/10)+'0');
 375   1              write_dat((year%10)+'0');
 376   1              write_dat('/');
 377   1              write_dat((month/10)+'0');
 378   1              write_dat((month%10)+'0');
 379   1              write_dat('/');
 380   1              write_dat((day/10)+'0');
 381   1              write_dat((day%10)+'0');
 382   1              write_dat(' ');
 383   1              write_dat(' ');
 384   1              write_dat(' ');
 385   1      }
 386          
 387          /*计时模式下的LCD显示格式：      Timing
 388                  不闪烁，无光标             00:00:00:00    */
 389          void display_timing()
 390          {
 391   1              uchar title[] = "Timing",*p=title;
 392   1      
 393   1              timing();       //      计时
 394   1      
 395   1              write_cmd(0x38); //设置16*2显示
 396   1              write_cmd(0x0c); //设置整体显示，关光标、不闪烁
 397   1              write_cmd(0x06); //设置地址指针移动方向，即向右+1
 398   1      
 399   1              write_cmd(0x80 | 0x00); //设置第一行显示地址
 400   1              //显示“Timing”
 401   1              write_dat(' ');
 402   1              write_dat(' ');
 403   1              write_dat(' ');
 404   1              write_dat(' ');
 405   1              write_dat(' ');
 406   1              while(*p != '\0')
 407   1                      write_dat(*p++);
 408   1              write_dat(' ');
 409   1              write_dat(' ');
 410   1              write_dat(' ');
 411   1              write_dat(' ');
 412   1              write_dat(' ');
 413   1      
 414   1              write_cmd(0xc0 | 0x40); //设置第二行显示地址
 415   1              //显示时间
 416   1              write_dat(' ');
 417   1              write_dat(' ');
 418   1              write_dat(' ');
 419   1              write_dat((t_hour/10)+'0');
 420   1              write_dat((t_hour%10)+'0');
C51 COMPILER V9.01   MAIN                                                                  07/15/2020 15:46:27 PAGE 8   

 421   1              write_dat(':');
 422   1              write_dat((t_min/10)+'0');
 423   1              write_dat((t_min%10)+'0');
 424   1              write_dat(':');
 425   1              write_dat((t_sec/10)+'0');
 426   1              write_dat((t_sec%10)+'0');
 427   1              write_dat(':');
 428   1              write_dat((s1/10)+'0');
 429   1              write_dat((s1%10)+'0');         
 430   1      }
 431          
 432          //设置闹钟时的显示
 433          void display_clock()
 434          {
 435   1              uchar title[] = "Alarm",*p=title;
 436   1      
 437   1              setting_alarm(); //设置闹钟
 438   1      
 439   1              write_cmd(0x38); //设置16*2显示
 440   1              write_cmd(0x0c); //设置整体显示，关光标、不闪烁
 441   1              write_cmd(0x06); //设置地址指针移动方向，即向右+1
 442   1      
 443   1              write_cmd(0x80 | 0x00); //设置第一行显示地址
 444   1              //显示“Timing”
 445   1              while(*p != '\0')
 446   1                      write_dat(*p++);
 447   1              write_dat(' ');
 448   1              if(on == 1)
 449   1              {
 450   2                      write_dat('o');
 451   2                      write_dat('n');
 452   2                      write_dat(' ');
 453   2              }
 454   1              else
 455   1              {
 456   2                      write_dat('o');
 457   2                      write_dat('f');
 458   2                      write_dat('f');
 459   2              }
 460   1              write_dat(' ');
 461   1              write_dat(' ');
 462   1              write_dat(' ');
 463   1              write_dat(' ');
 464   1              write_dat(' ');
 465   1              write_dat(' ');
 466   1              write_dat(' ');
 467   1      
 468   1              write_cmd(0xc0 | 0x40); //设置第二行显示地址
 469   1              //显示时间
 470   1              write_dat(' ');
 471   1              write_dat(' ');
 472   1              write_dat(' ');
 473   1              write_dat(' ');
 474   1              write_dat(' ');
 475   1              write_dat(' ');
 476   1              write_dat((c_hour/10)+'0');
 477   1              write_dat((c_hour%10)+'0');
 478   1              write_dat(':');
 479   1              write_dat((c_min/10)+'0');
 480   1              write_dat((c_min%10)+'0');
 481   1              write_dat(' ');
 482   1              write_dat(' ');
C51 COMPILER V9.01   MAIN                                                                  07/15/2020 15:46:27 PAGE 9   

 483   1              write_dat(' ');
 484   1              write_dat(' ');
 485   1              write_dat(' ');
 486   1      }
 487          
 488          //显示
 489          void display()
 490          {
 491   1              if (mode == 1)  
 492   1                      display_working();
 493   1      
 494   1              else if(mode == 2)
 495   1              { 
 496   2                      write_cmd(0x01); //清屏
 497   2                      display_setting();
 498   2                      delay(1000);
 499   2              }
 500   1      
 501   1              else if(mode == 3)
 502   1                      display_timing();
 503   1      
 504   1              else if(mode == 4)
 505   1                      display_clock();
 506   1      }
 507          
 508          //闹钟响时，显示“The alarm is going off”
 509          void display_alarm()
 510          {
 511   1              uchar *title[] = {"  The alarm is  ","   going off    "},*p=title[0];
 512   1      
 513   1              write_cmd(0x38); //设置16*2显示
 514   1              write_cmd(0x0c); //设置整体显示，关光标、不闪烁
 515   1              write_cmd(0x06); //设置地址指针移动方向，即向右+1
 516   1      
 517   1              write_cmd(0x80 | 0x00); //设置第一行显示地址
 518   1              while(*p != '\0')
 519   1                      write_dat(*p++);
 520   1      
 521   1              write_cmd(0xc0 | 0x40); //设置第二行显示地址
 522   1              p = title[1];
 523   1              while(*p != '\0')
 524   1                      write_dat(*p++);        
 525   1      }
 526          /*--------------------------------------------------显示部分end-------------------------------------------
             -----------*/
 527          
 528          
 529          //闹钟响铃
 530          void alarm_goes_off()
 531          {
 532   1              if(on == 1)
 533   1                      if(hour == c_hour && min == c_min && sec >= 0 && sec <= 2)
 534   1                              turn = 1;
 535   1      
 536   1              if(turn == 1)
 537   1              {
 538   2                      display_alarm(); //闹钟LCD显示          
 539   2                      song_init(sky); //音乐初始化
 540   2                      time_init();//定时器1初始化
 541   2                      while(turn == 1)
 542   2                              if(tone!=0)     play_tone(tone);         //一直在播放音调，播放的音调由定时器切换，
 543   2                                                                                       //音调时常由定时器决定
C51 COMPILER V9.01   MAIN                                                                  07/15/2020 15:46:27 PAGE 10  

 544   2      
 545   2                      Timer1_init();//定时器1重新初始化
 546   2              }
 547   1      }
 548          
 549          
 550          //主函数
 551          void main()
 552          {       
 553   1              Clock_init();                   //时钟初始化
 554   1              Timer1_init();                  //定时器1初始化
 555   1              Int1Init();                             //外部中断初始化
 556   1              while(1)
 557   1              {       
 558   2                      //按键判断
 559   2                      key1press();            //切换模式,改变mode的值
 560   2                      key2press();            //plus++，更改
 561   2                      key3press();            //shift++，切换
 562   2                              
 563   2                      display();                      //LCD显示
 564   2                      alarm_goes_off();       //判断是否响闹钟
 565   2              }
 566   1      }
 567          
 568          //外部中断1的中断函数
 569          void Int1()     interrupt 2             
 570          {
 571   1              delay(1000);     //延时消抖
 572   1              if(k4 == 0)
 573   1              {
 574   2                      turn = 0;
 575   2              }
 576   1      }
 577          
 578          //定时器1中断函数
 579          void Timer1() interrupt 3
 580          {
 581   1              if(turn == 1) //闹钟响时
 582   1              {
 583   2                      timer1_interrupt(sky);
 584   2              }
 585   1      
 586   1              else//计时模式时
 587   1              {
 588   2                      TH1 = 0Xd8;      //给定时器1赋初值，定时10ms
 589   2                      TL1 = 0Xf0;
 590   2                      s1++;
 591   2                      if(s1 == 100)
 592   2                      {
 593   3                              s1 = 0;
 594   3                              t_sec++;
 595   3                      }
 596   2              }
 597   1      } 


MODULE INFORMATION:   STATIC OVERLAYABLE
   CODE SIZE        =   2533    ----
   CONSTANT SIZE    =    487    ----
   XDATA SIZE       =   ----    ----
   PDATA SIZE       =   ----    ----
   DATA SIZE        =     89      37
C51 COMPILER V9.01   MAIN                                                                  07/15/2020 15:46:27 PAGE 11  

   IDATA SIZE       =   ----    ----
   BIT SIZE         =   ----    ----
END OF MODULE INFORMATION.


C51 COMPILATION COMPLETE.  0 WARNING(S),  0 ERROR(S)
