:10001E004D6F6E2E00547565732E005765642E005D
:10002E00546875722E004672692E005361742E004C
:10003E0053756E2E00202054686520616C61726DC0
:10004E00206973202000202020676F696E67206F63
:10005E006666202020200000000200000200000240
:10006E00060101070101010203070101010202035A
:10007E00020207010400020203010103010106014D
:10008E00030501010601020102020501040001023D
:10009E000301020401030301010401020102020330
:1000AE000103000001010201010201010201070129
:1000BE00030401010401020701020701040000020A
:1000CE0006010107010101020307010101020203FA
:1000DE0002020701040000020301010301010601EF
:1000EE0003050101060102010202050104000002DE
:1000FE0002010103010104010201020107010201D3
:10010E0002030202010202010302010102030000C6
:10011E0002010201070101060101060101070102A8
:10012E0005010206010400000201020102020103A0
:10013E00020302020103020205020202020400008F
:10014E00020501010501010102030701010102027D
:10015E00030202030204000002060101070101016D
:10016E00020207010202020102020101020305015D
:10017E000105010300000104020203020202020251
:10018E000102020302040000020302020602040539
:10019E000202050202030201020201010204000230
:1001AE000101020102020201020102020102020227
:1001BE000502020302040002020302020602040503
:1001CE000204030201020201010204000001010205
:1001DE0001020202010201020201020202070102F1
:1001EE000601020854696D696E6700416C61726D9B
:0701FE0000FF0043FF005465
:1009EF00202A150EE80D490BD60B3109F708E00741
:1009FF00E8077806A705ED059804FB047003F403D8
:100A0F00C5035302F602CB025D021A01D201600048
:100A1F00010D0002560000030AFF00650158000196
:100A2F005C00015B0C015A0B0114070254001415F2
:100A3F003FFF001EFF0023FF0029FF002EFF0034A1
:100A4F00FF0039FF003E015906011301015D01014D
:100A5F001101011200010E00011000010F00010928
:0A0A6F000101080C015F01015E00A7
:100E4100EF1FAA0670011E4A6013E4FCFDC3ED9476
:0D0E51004BEC940050EA0DBD00010C80F048
:010E5E002271
:100EAD007C007D0A120341EF4E6007EF1F70F81EA4
:030EBD0080F5229B
:05001600B295020EADE1
:10000300438910758D02758B18D2AFD2ABD28E2275
:070F44008B0A8A0B890C22C5
:100A7A008B618A628963758D3C758BB00560E50D63
:100A8A0075F004A4FFC3E5609FE5F06480F8748004
:100A9A0098405FE4F560AB0AAA0BA90C1202FBFFAF
:100AAA00601990000112031475F007A42F25E024A1
:100ABA0013F8E6F55608E6F5578005E4F556F557B6
:100ACA00AB0AAA0BA90C900002120314F50D7403C9
:100ADA00250CF50CE4350BF50BFAA90C1202FBB444
:100AEA00080985610A85620B85630C7F1E7E0012E8
:030AFA000E412288
:100BEF00E4FD7F8E120D9CAF58120EC0AD077F80B3
:100BFF00120D9CAF5C120EC0AD077F82120D9CAF21
:100C0F005B120EC0AD077F84120D9CAF5A120EC03F
:100C1F00AD077F86120D9CAF14120EC0AD077F88F3
:100C2F00120D9CAF59120EC0AD077F8A120D9CAFEB
:100C3F0055120EC0AD077F8C120D9C7D807F8E02EA
:020C4F000D9CFA
:070F4B00D28AD2AAD2AF2224
:100EF600758911758DD8758BF0D2ABD2AFC28E22A3
:040F26007FE87E03DF
:0B0F2A00EF1FAC0670011E4C70F62299
:100E5F0020B119120F2620B1100513751101755D00
:0D0E6F0001E513B4050375130130B1FD2238
:0F0F350020B00B120F2620B002055D30B0FD2258
:100E960020B213120F2620B20A0511E511B4080379
:070EA60075110130B2FD22BD
:100B7800E4FD7F8E120D9C7F81120D528F587F836A
:100B8800120D528F5C7F85120D528F5B7F87120D7D
:100B9800528F5A7F89120D528F147F8B120D528FEC
:100BA800597F8D120D527554008F557D807F8E129E
:100BB8000D9CAF58120EE58F58AF5C120EE58F5C96
:100BC800AF5B120EE58F5BAF5A120EE58F5AAF146A
:100BD800120EE58F14AF59120EE58F59AF55120E4C
:070BE800E57554008F552252
:10086200E51114B40700400302095890087B75F0A3
:1008720003A4C58325F0C583730208900208AD0264
:1008820008CA0208E60208FF020918020931E55DFA
:10089200C394025003020958E558943B5006E558A8
:1008A20004FF80027F008F58020955E55DC3940260
:1008B2005003020958E55C943B5006E55C04FF8056
:1008C200027F008F5C020955E55DC394025003026A
:1008D2000958E55B94175006E55B04FF80027F0030
:1008E2008F5B806FE55DC39402406BE559940750BE
:1008F20006E55904FF80027F018F598056E55DC3EA
:1009020094024052E55A941F5006E55A04FF8002B1
:100912007F018F5A803DE55DC394024039E514940E
:100922000C5006E51404FF80027F018F148024E539
:100932005DC394024020E5559463E5549400500B46
:10094200E5552401FFE43554FE80047E007F008ECD
:10095200548F55755D01E511D394014003120BEFDD
:010962002272
:100DFE00E55D20E004D28E8002C28EE511B40211B0
:100E0E00C28EE4F512F50EF510F50F755D01751134
:020E1E000122AF
:100C5100E51124FE60201460362402704AE55DC36C
:100C610094024046E509943B5006E50904FF8002E1
:100C71007F008F09802DE55DC39402402DE5089426
:100C8100175006E50804FF80027F008F088014E5F5
:100C91005DC394024014E55FB401047F0080027FCC
:0B0CA100018F5F755D012275110122BB
:10050B00120B787F38120F067F0C120F067F061224
:10051B000F067F80120F067F20120F167F20120FFF
:10052B0016E55B75F00A842430FF120F16E55B7538
:10053B00F00A84E5F02430FF120F167F3A120F16E3
:10054B00E55C75F00A842430FF120F16E55C75F03C
:10055B000A84E5F02430FF120F167F3A120F16E5CE
:10056B005875F00A842430FF120F16E55875F00AFF
:10057B0084E5F02430FF120F167F20120F16E55979
:10058B0075F003A4243CF8860308E6FA08E68B64AE
:10059B008A65F566AB64AA65A9661202FB60130552
:1005AB0066E5667002056514F91202FBFF120F1661
:1005BB0080E27FC0120F067F20120F167F20120FD2
:1005CB00167F32120F167F30120F16AE54AF557CBA
:1005DB00007D0A120341EF2430FF120F16AE54AF09
:1005EB00557C007D0A120341ED2430FF120F167F5C
:1005FB002F120F16E51475F00A842430FF120F1614
:10060B00E51475F00A84E5F02430FF120F167F2FE6
:10061B00120F16E55A75F00A842430FF120F16E5F7
:10062B005A75F00A84E5F02430FF120F167F201262
:0C063B000F167F20120F167F20020F16F2
:100396001208627F38120F067F0C120F067F0612B4
:1003A6000F067F80120F06E51124FE600E14600F03
:1003B600146010240370107F73800E7F6D800A7F97
:1003C6006880067F7780027F20120F167F20120F2B
:1003D60016E55B75F00A842430FF120F16E55B758F
:1003E600F00A84E5F02430FF120F167F3A120F163A
:1003F600E55C75F00A842430FF120F16E55C75F093
:100406000A84E5F02430FF120F167F3A120F16E524
:100416005875F00A842430FF120F16E55875F00A55
:1004260084E5F02430FF120F167F20120F16E559CF
:1004360075F003A4243CF8860308E6FA08E68B6404
:100446008A65F566AB64AA65A9661202FB601305A8
:1004560066E5667002056514F91202FBFF120F16B7
:1004660080E27FC0120F06E51124FA600B14600CBF
:100476002402700C7F64800A7F6D80067F7980027B
:100486007F20120F167F20120F167F32120F167F53
:1004960030120F16AE54AF557C007D0A120341EFA1
:1004A6002430FF120F16AE54AF557C007D0A12039E
:1004B60041ED2430FF120F167F2F120F16E514752B
:1004C600F00A842430FF120F16E51475F00A84E54D
:1004D600F02430FF120F167F2F120F16E55A75F013
:1004E6000A842430FF120F16E55A75F00A84E5F0E7
:1004F6002430FF120F167F20120F167F20120F16C0
:050506007F20020F162A
:1007550078647C007D007BFF7A0179F27E007F075B
:100765001202D5756B00756C00756D64120DFE7FF8
:1007750038120F067F0C120F067F06120F067F80B8
:10078500120F067F20120F167F20120F167F2012E0
:100795000F167F20120F167F208019AB6BAA6CA94C
:1007A5006D1202FB6013056DE56D7002056C14F9A1
:1007B5001202FBFF120F1680E27F20120F167F2018
:1007C500120F167F20120F167F20120F167F201290
:1007D5000F167FC0120F067F20120F167F20120FF3
:1007E500167F20120F16E50F75F00A842430FF12CC
:1007F5000F16E50F75F00A84E5F02430FF120F1689
:100805007F3A120F16E51075F00A842430FF120F97
:1008150016E51075F00A84E5F02430FF120F167FF7
:100825003A120F16E50E75F00A842430FF120F16E2
:10083500E50E75F00A84E5F02430FF120F167F3AB5
:10084500120F16E51275F00A842430FF120F16E513
:0D0855001275F00A84E5F02430FF020F1642
:1006470078647C007D007BFF7A0179F97E007F0664
:100657001202D5756A00756B00756C64120C517FB8
:1006670038120F067F0C120F067F06120F067F80C7
:10067700120F06AB6AAA6BA96C1202FB6013056C1A
:10068700E56C7002056B14F91202FBFF120F16805E
:10069700E27F20120F16E55F7F6FB4010C120F1671
:1006A7007F6E120F167F20800A120F167F66120FB9
:1006B700167F66120F167F20120F167F20120F1655
:1006C7007F20120F167F20120F167F20120F167F22
:1006D70020120F167F20120F167FC0120F067F20E1
:1006E700120F167F20120F167F20120F167F20126F
:1006F7000F167F20120F167F20120F16E50875F0D0
:100707000A842430FF120F16E50875F00A84E5F015
:100717002430FF120F167F3A120F16E50975F00AFB
:10072700842430FF120F16E50975F00A84E5F024DA
:1007370030FF120F167F20120F167F20120F167F21
:0E07470020120F167F20120F167F20020F16B1
:100DD100E513B4010302050BE513B4020F7F011201
:100DE1000F061203967FE87E03020F2AE513B40370
:0D0DF10003020755E513B404031206472260
:100AFD0078647C007D007BFF7A0179FF7E007F06A4
:100B0D001202D585646A85656B85666C7F38120F18
:100B1D00067F0C120F067F06120F067F80120F063E
:100B2D00AB6AAA6BA96C1202FB6013056CE56C70C5
:100B3D0002056B14F91202FBFF120F1680E27FC043
:100B4D00120F0685676A85686B85696CAB6AAA6B3F
:100B5D00A96C1202FB6013056CE56C7002056B1439
:0A0B6D00F91202FBFF120F1680E2DE
:010B7700225B
:100D0600E55FB4011BE55BB50816E55CB50911E5C1
:100D160058C39400400AE558D394025003755E0107
:100D2600E55EB40126120AFD7BFF7A007965120F93
:100D360044120003E55EB4010FE557455660F5AF72
:0C0D460057AE5612001680EC120EF6227A
:100E7C00120BEF120EF6120F4B120E5F120F3512F1
:0A0E8C000E96120DD1120D0680EF34
:03001300020E20BA
:100E2000C0E0C0D075D000C004C006C007120F26B5
:100E300020B303755E00D007D006D004D0D0D0E038
:010E4000327F
:03001B00020CAC28
:100CAC00C0E0C0F0C083C082C0D075D000C000C00E
:100CBC0001C002C003C004C005C006C007E55EB495
:100CCC00010B7BFF7A007965120A7A8012758DD838
:100CDC00758BF00512E512B46405751200050ED083
:100CEC0007D006D005D004D003D002D001D000D05C
:0A0CFC00D0D082D083D0F0D0E032D7
:100EC000EF75F00A84FEEF75F00A84EEC454F02545
:020ED000F0FF31
:010ED20022FD
:100EE500EFC4540FFEEF540FFFEE75F00AA42FFF69
:010EF50022DA
:100D9C00C2B500C2B600D2B500E4FEEF1392B4EFB8
:100DAC00C313FFD2B600C2B6000EBE08EEE4FEEDD1
:100DBC001392B4EDC313FDD2B600C2B6000EBE083A
:040DCC00EEC2B500BE
:010DD0002200
:100D5200E4FEFDC2B500C2B600D2B5FBEF1392B4F9
:100D6200EFC313FFD2B600C2B6000BBB08EEE4FB22
:100D7200A2B4E433FDC43333335480FFEEC3134FC4
:100D8200FED2B600C2B6000BBB08E5C2B500D2B6B1
:090D920000C2B400D2B400AF06A7
:010D9B002235
:100ED3007580FFC2A6D2A5D2A7AF80C2A7EF20E735
:010EE300F618
:010EE40022EB
:100F0600AE07120ED3C2A6C2A58E80D2A7C2A72252
:100F1600AE07120ED3D2A6C2A58E80D2A7C2A72232
:030000000209638F
:0C096300787FE4F6D8FD75816D0209AACA
:10020500E709F608DFFA8046E709F208DFFA803EDB
:1002150088828C83E709F0A3DFFA8032E309F608C8
:10022500DFFA8078E309F208DFFA807088828C8330
:10023500E309F0A3DFFA806489828A83E0A3F608E4
:10024500DFFA805889828A83E0A3F208DFFA804CBE
:1002550080D280FA80C680D4806980F28033801095
:1002650080A680EA809A80A880DA80E280CA8033FE
:1002750089828A83ECFAE493A3C8C582C8CCC58376
:10028500CCF0A3C8C582C8CCC583CCDFE9DEE78046
:100295000D89828A83E493A3F608DFF9ECFAA9F0C5
:1002A500EDFB2289828A83ECFAE0A3C8C582C8CC1B
:1002B500C583CCF0A3C8C582C8CCC583CCDFEADE34
:1002C500E880DB89828A83E493A3F208DFF980CC96
:1002D50088F0EF60010E4E60C388F0ED2402B4048F
:1002E5000050B9F582EB2402B4040050AF23234536
:0602F50082239002557304
:1002FB00BB010689828A83E0225002E722BBFE0201
:09030B00E32289828A83E4932233
:10031400BB010CE58229F582E5833AF583E022509E
:1003240006E92582F8E622BBFE06E92582F8E222E8
:0D033400E58229F582E5833AF583E4932202
:10034100BC000BBE0029EF8DF084FFADF022E4CCA0
:10035100F875F008EF2FFFEE33FEEC33FCEE9DEC69
:10036100984005FCEE9DFE0FD5F0E9E4CEFD22EDAF
:10037100F8F5F0EE8420D21CFEADF075F008EF2FF9
:10038100FFED33FD4007985006D5F0F222C398FDEA
:050391000FD5F0EA2287
:10096F00020E7CE493A3F8E493A34003F68001F214
:10097F0008DFF48029E493A3F85407240CC8C33389
:10098F00C4540F4420C8834004F456800146F6DF58
:10099F00E4800B01020408102040809009EFE47EF0
:1009AF00019360BCA3FF543F30E509541FFEE4934D
:1009BF00A360010ECF54C025E060A840B8E493A314
:1009CF00FAE493A3F8E493A3C8C582C8CAC583CA3F
:1009DF00F0A3C8C582C8CAC583CADFE9DEE780BEF7
:010A7900007C
:00000001FF
