BL51 BANKED LINKER/LOCATER V6.22                                                        07/15/2020  15:46:28  PAGE 1


BL51 BANKED LINKER/LOCATER V6.22, INVOKED BY:
D:\KEILUVISION4C51\C51\BIN\BL51.EXE main.obj, DS1302.obj, LCD1602.obj TO 电子时钟promax RAMSIZE (256)


MEMORY MODEL: SMALL


INPUT MODULES INCLUDED:
  main.obj (MAIN)
  DS1302.obj (DS1302)
  LCD1602.obj (LCD1602)
  D:\KEILUVISION4C51\C51\LIB\C51S.LIB (?C_STARTUP)
  D:\KEILUVISION4C51\C51\LIB\C51S.LIB (?C?COPY)
  D:\KEILUVISION4C51\C51\LIB\C51S.LIB (?C?CLDPTR)
  D:\KEILUVISION4C51\C51\LIB\C51S.LIB (?C?CLDOPTR)
  D:\KEILUVISION4C51\C51\LIB\C51S.LIB (?C?UIDIV)
  D:\KEILUVISION4C51\C51\LIB\C51S.LIB (?C_INIT)


LINK MAP OF MODULE:  电子时钟promax (MAIN)


            TYPE    BASE      LENGTH    RELOCATION   SEGMENT NAME
            -----------------------------------------------------

            * * * * * * *   D A T A   M E M O R Y   * * * * * * *
            REG     0000H     0008H     ABSOLUTE     "REG BANK 0"
            DATA    0008H     0059H     UNIT         ?DT?MAIN
            DATA    0061H     000DH     UNIT         _DATA_GROUP_
            IDATA   006EH     0001H     UNIT         ?STACK

            * * * * * * *   C O D E   M E M O R Y   * * * * * * *
            CODE    0000H     0003H     ABSOLUTE     
            CODE    0003H     0010H     UNIT         ?PR?TIME_INIT?MAIN
            CODE    0013H     0003H     ABSOLUTE     
            CODE    0016H     0005H     UNIT         ?PR?_PLAY_TONE?MAIN
            CODE    001BH     0003H     ABSOLUTE     
            CODE    001EH     01E7H     UNIT         ?CO?MAIN
            CODE    0205H     0191H     UNIT         ?C?LIB_CODE
            CODE    0396H     0175H     UNIT         ?PR?DISPLAY_SETTING?MAIN
            CODE    050BH     013CH     UNIT         ?PR?DISPLAY_WORKING?MAIN
            CODE    0647H     010EH     UNIT         ?PR?DISPLAY_CLOCK?MAIN
            CODE    0755H     010DH     UNIT         ?PR?DISPLAY_TIMING?MAIN
            CODE    0862H     0101H     UNIT         ?PR?RESET_TIME_DATE?MAIN
            CODE    0963H     008CH     UNIT         ?C_C51STARTUP
            CODE    09EFH     008BH     UNIT         ?C_INITSEG
            CODE    0A7AH     0083H     UNIT         ?PR?_TIMER1_INTERRUPT?MAIN
            CODE    0AFDH     007BH     UNIT         ?PR?DISPLAY_ALARM?MAIN
            CODE    0B78H     0077H     UNIT         ?PR?GET_DATA?MAIN
            CODE    0BEFH     0062H     UNIT         ?PR?CLOCK_INIT?MAIN
            CODE    0C51H     005BH     UNIT         ?PR?SETTING_ALARM?MAIN
            CODE    0CACH     005AH     UNIT         ?PR?TIMER1?MAIN
            CODE    0D06H     004CH     UNIT         ?PR?ALARM_GOES_OFF?MAIN
            CODE    0D52H     004AH     UNIT         ?PR?_READ_DS1302_DAT?DS1302
            CODE    0D9CH     0035H     UNIT         ?PR?_WRITE_DS1302_DAT?DS1302
            CODE    0DD1H     002DH     UNIT         ?PR?DISPLAY?MAIN
            CODE    0DFEH     0022H     UNIT         ?PR?TIMING?MAIN
            CODE    0E20H     0021H     UNIT         ?PR?INT1?MAIN
BL51 BANKED LINKER/LOCATER V6.22                                                      07/15/2020  15:46:28  PAGE 2


            CODE    0E41H     001EH     UNIT         ?PR?_DELAY_MS?MAIN
            CODE    0E5FH     001DH     UNIT         ?PR?KEY1PRESS?MAIN
            CODE    0E7CH     001AH     UNIT         ?PR?MAIN?MAIN
            CODE    0E96H     0017H     UNIT         ?PR?KEY3PRESS?MAIN
            CODE    0EADH     0013H     UNIT         ?PR?_DELAY_US?MAIN
            CODE    0EC0H     0013H     UNIT         ?PR?_ENCODE_BCD?DS1302
            CODE    0ED3H     0012H     UNIT         ?PR?READ_BUSY?LCD1602
            CODE    0EE5H     0011H     UNIT         ?PR?_DECODE_BCD?DS1302
            CODE    0EF6H     0010H     UNIT         ?PR?TIMER1_INIT?MAIN
            CODE    0F06H     0010H     UNIT         ?PR?_WRITE_CMD?LCD1602
            CODE    0F16H     0010H     UNIT         ?PR?_WRITE_DAT?LCD1602
            CODE    0F26H     000FH     UNIT         ?PR?_DELAY?MAIN
            CODE    0F35H     000FH     UNIT         ?PR?KEY2PRESS?MAIN
            CODE    0F44H     0007H     UNIT         ?PR?_SONG_INIT?MAIN
            CODE    0F4BH     0007H     UNIT         ?PR?INT1INIT?MAIN



OVERLAY MAP OF MODULE:   电子时钟promax (MAIN)


SEGMENT                                DATA_GROUP 
  +--> CALLED SEGMENT                START    LENGTH
----------------------------------------------------
?PR?INT1?MAIN                        -----    -----
  +--> ?PR?_DELAY?MAIN

*** NEW ROOT ***************************************************

?PR?TIMER1?MAIN                      -----    -----
  +--> ?CO?MAIN
  +--> ?PR?_TIMER1_INTERRUPT?MAIN

?PR?_TIMER1_INTERRUPT?MAIN           0061H    0003H
  +--> ?PR?_DELAY_MS?MAIN

*** NEW ROOT ***************************************************

?C_C51STARTUP                        -----    -----
  +--> ?PR?MAIN?MAIN
  +--> ?C_INITSEG

?PR?MAIN?MAIN                        -----    -----
  +--> ?PR?CLOCK_INIT?MAIN
  +--> ?PR?TIMER1_INIT?MAIN
  +--> ?PR?INT1INIT?MAIN
  +--> ?PR?KEY1PRESS?MAIN
  +--> ?PR?KEY2PRESS?MAIN
  +--> ?PR?KEY3PRESS?MAIN
  +--> ?PR?DISPLAY?MAIN
  +--> ?PR?ALARM_GOES_OFF?MAIN

?PR?CLOCK_INIT?MAIN                  -----    -----
  +--> ?PR?_WRITE_DS1302_DAT?DS1302
  +--> ?PR?_ENCODE_BCD?DS1302

?PR?KEY1PRESS?MAIN                   -----    -----
BL51 BANKED LINKER/LOCATER V6.22                                                      07/15/2020  15:46:28  PAGE 3


  +--> ?PR?_DELAY?MAIN

?PR?KEY2PRESS?MAIN                   -----    -----
  +--> ?PR?_DELAY?MAIN

?PR?KEY3PRESS?MAIN                   -----    -----
  +--> ?PR?_DELAY?MAIN

?PR?DISPLAY?MAIN                     -----    -----
  +--> ?PR?DISPLAY_WORKING?MAIN
  +--> ?PR?_WRITE_CMD?LCD1602
  +--> ?PR?DISPLAY_SETTING?MAIN
  +--> ?PR?_DELAY?MAIN
  +--> ?PR?DISPLAY_TIMING?MAIN
  +--> ?PR?DISPLAY_CLOCK?MAIN

?PR?DISPLAY_WORKING?MAIN             0064H    0003H
  +--> ?PR?GET_DATA?MAIN
  +--> ?PR?_WRITE_CMD?LCD1602
  +--> ?PR?_WRITE_DAT?LCD1602

?PR?GET_DATA?MAIN                    -----    -----
  +--> ?PR?_WRITE_DS1302_DAT?DS1302
  +--> ?PR?_READ_DS1302_DAT?DS1302
  +--> ?PR?_DECODE_BCD?DS1302

?PR?_WRITE_CMD?LCD1602               -----    -----
  +--> ?PR?READ_BUSY?LCD1602

?PR?_WRITE_DAT?LCD1602               -----    -----
  +--> ?PR?READ_BUSY?LCD1602

?PR?DISPLAY_SETTING?MAIN             0064H    0003H
  +--> ?PR?RESET_TIME_DATE?MAIN
  +--> ?PR?_WRITE_CMD?LCD1602
  +--> ?PR?_WRITE_DAT?LCD1602

?PR?RESET_TIME_DATE?MAIN             -----    -----
  +--> ?PR?CLOCK_INIT?MAIN

?PR?DISPLAY_TIMING?MAIN              0064H    000AH
  +--> ?CO?MAIN
  +--> ?PR?TIMING?MAIN
  +--> ?PR?_WRITE_CMD?LCD1602
  +--> ?PR?_WRITE_DAT?LCD1602

?PR?DISPLAY_CLOCK?MAIN               0064H    0009H
  +--> ?CO?MAIN
  +--> ?PR?SETTING_ALARM?MAIN
  +--> ?PR?_WRITE_CMD?LCD1602
  +--> ?PR?_WRITE_DAT?LCD1602

?PR?ALARM_GOES_OFF?MAIN              -----    -----
  +--> ?PR?DISPLAY_ALARM?MAIN
  +--> ?CO?MAIN
  +--> ?PR?_SONG_INIT?MAIN
  +--> ?PR?TIME_INIT?MAIN
BL51 BANKED LINKER/LOCATER V6.22                                                      07/15/2020  15:46:28  PAGE 4


  +--> ?PR?_PLAY_TONE?MAIN
  +--> ?PR?TIMER1_INIT?MAIN

?PR?DISPLAY_ALARM?MAIN               0064H    0009H
  +--> ?CO?MAIN
  +--> ?PR?_WRITE_CMD?LCD1602
  +--> ?PR?_WRITE_DAT?LCD1602

?PR?_PLAY_TONE?MAIN                  -----    -----
  +--> ?PR?_DELAY_US?MAIN

?C_INITSEG                           -----    -----
  +--> ?CO?MAIN



SYMBOL TABLE OF MODULE:  电子时钟promax (MAIN)

  VALUE           TYPE          NAME
  ----------------------------------

  -------         MODULE        MAIN
  C:0000H         SYMBOL        _ICE_DUMMY_
  D:0090H         PUBLIC        P1
  D:00A0H         PUBLIC        P2
  D:00B0H         PUBLIC        P3
  D:0008H         PUBLIC        c_hour
  C:0BEFH         PUBLIC        Clock_init
  B:0090H.5       PUBLIC        Buzzer
  B:00A8H.7       PUBLIC        EA
  D:0009H         PUBLIC        c_min
  D:000AH         PUBLIC        tone_p
  C:0DFEH         PUBLIC        timing
  D:000DH         PUBLIC        t_tone
  D:00A8H         PUBLIC        IE
  D:000EH         PUBLIC        t_sec
  C:0F2AH         PUBLIC        _delay
  D:000FH         PUBLIC        t_hour
  D:00B8H         PUBLIC        IP
  D:0010H         PUBLIC        t_min
  B:00B0H.1       PUBLIC        k1
  B:00B0H.0       PUBLIC        k2
  B:00B0H.2       PUBLIC        k3
  B:00B0H.3       PUBLIC        k4
  D:0011H         PUBLIC        shift
  D:0012H         PUBLIC        s1
  C:0E7CH         PUBLIC        main
  D:0013H         PUBLIC        mode
  D:0014H         PUBLIC        month
  C:0A7AH         PUBLIC        _timer1_interrupt
  D:0015H         PUBLIC        tones
  C:0E5FH         PUBLIC        key1press
  C:0F35H         PUBLIC        key2press
  D:003FH         PUBLIC        week
  C:0E96H         PUBLIC        key3press
  D:0054H         PUBLIC        year
  D:0098H         PUBLIC        SCON
BL51 BANKED LINKER/LOCATER V6.22                                                      07/15/2020  15:46:28  PAGE 5


  C:0CACH         PUBLIC        Timer1
  D:0089H         PUBLIC        TMOD
  D:0088H         PUBLIC        TCON
  D:0056H         PUBLIC        tone
  C:0862H         PUBLIC        reset_time_date
  D:0058H         PUBLIC        sec
  C:0D06H         PUBLIC        alarm_goes_off
  C:0B78H         PUBLIC        get_data
  D:0059H         PUBLIC        Week1
  D:005AH         PUBLIC        day
  D:005BH         PUBLIC        hour
  C:01F2H         SYMBOL        _?ix1000
  C:01F9H         SYMBOL        _?ix1001
  C:01FFH         SYMBOL        _?ix1002
  D:005CH         PUBLIC        min
  D:005DH         PUBLIC        plus
  C:0003H         PUBLIC        time_init
  B:00A8H.3       PUBLIC        ET1
  D:005EH         PUBLIC        turn
  C:0EF6H         PUBLIC        Timer1_init
  D:008DH         PUBLIC        TH1
  B:00A8H.2       PUBLIC        EX1
  B:0088H.2       PUBLIC        IT1
  C:0F44H         PUBLIC        _song_init
  C:0016H         PUBLIC        _play_tone
  D:008BH         PUBLIC        TL1
  C:0E41H         PUBLIC        _delay_ms
  B:0088H.6       PUBLIC        TR1
  C:0065H         PUBLIC        sky
  C:0EADH         PUBLIC        _delay_us
  C:0E20H         PUBLIC        Int1
  D:005FH         PUBLIC        on
  C:0396H         PUBLIC        display_setting
  C:050BH         PUBLIC        display_working
  C:0755H         PUBLIC        display_timing
  D:00C8H         PUBLIC        T2CON
  C:0647H         PUBLIC        display_clock
  C:0AFDH         PUBLIC        display_alarm
  C:0C51H         PUBLIC        setting_alarm
  C:0F4BH         PUBLIC        Int1Init
  D:0060H         PUBLIC        music_s
  C:0DD1H         PUBLIC        display
  D:00D0H         PUBLIC        PSW
  -------         PROC          _DELAY_MS
  D:0006H         SYMBOL        t
  -------         DO            
  D:0004H         SYMBOL        i
  -------         ENDDO         
  C:0E41H         LINE#         206
  C:0E41H         LINE#         207
  C:0E41H         LINE#         208
  C:0E41H         LINE#         209
  C:0E4BH         LINE#         210
  C:0E5EH         LINE#         211
  -------         ENDPROC       _DELAY_MS
  -------         PROC          _DELAY_US
  D:0006H         SYMBOL        t
BL51 BANKED LINKER/LOCATER V6.22                                                      07/15/2020  15:46:28  PAGE 6


  C:0EADH         LINE#         213
  C:0EADH         LINE#         214
  C:0EADH         LINE#         215
  C:0EB4H         LINE#         216
  C:0EBFH         LINE#         217
  -------         ENDPROC       _DELAY_US
  -------         PROC          _PLAY_TONE
  D:0006H         SYMBOL        tone
  C:0016H         LINE#         219
  C:0016H         LINE#         220
  C:0016H         LINE#         222
  C:0018H         LINE#         223
  -------         ENDPROC       _PLAY_TONE
  -------         PROC          TIME_INIT
  C:0003H         LINE#         226
  C:0003H         LINE#         227
  C:0003H         LINE#         228
  C:0006H         LINE#         229
  C:0009H         LINE#         230
  C:000CH         LINE#         231
  C:000EH         LINE#         232
  C:0010H         LINE#         233
  C:0012H         LINE#         234
  -------         ENDPROC       TIME_INIT
  -------         PROC          _SONG_INIT
  D:0001H         SYMBOL        song
  C:0F44H         LINE#         236
  C:0F44H         LINE#         237
  C:0F44H         LINE#         238
  C:0F4AH         LINE#         239
  -------         ENDPROC       _SONG_INIT
  -------         PROC          _TIMER1_INTERRUPT
  D:0061H         SYMBOL        song
  C:0A7AH         LINE#         241
  C:0A80H         LINE#         242
  C:0A80H         LINE#         243
  C:0A83H         LINE#         244
  C:0A86H         LINE#         245
  C:0A88H         LINE#         247
  C:0A9DH         LINE#         248
  C:0A9DH         LINE#         249
  C:0AA0H         LINE#         250
  C:0AACH         LINE#         251
  C:0AC5H         LINE#         253
  C:0ACAH         LINE#         254
  C:0AD8H         LINE#         256
  C:0AE3H         LINE#         258
  C:0AF5H         LINE#         260
  C:0AFCH         LINE#         261
  C:0AFCH         LINE#         262
  -------         ENDPROC       _TIMER1_INTERRUPT
  -------         PROC          CLOCK_INIT
  C:0BEFH         LINE#         37
  C:0BEFH         LINE#         38
  C:0BEFH         LINE#         39
  C:0BF6H         LINE#         41
  C:0C02H         LINE#         42
BL51 BANKED LINKER/LOCATER V6.22                                                      07/15/2020  15:46:28  PAGE 7


  C:0C0EH         LINE#         43
  C:0C1AH         LINE#         45
  C:0C26H         LINE#         46
  C:0C32H         LINE#         47
  C:0C3EH         LINE#         48
  C:0C4AH         LINE#         50
  -------         ENDPROC       CLOCK_INIT
  -------         PROC          INT1INIT
  C:0F4BH         LINE#         54
  C:0F4BH         LINE#         55
  C:0F4BH         LINE#         57
  C:0F4DH         LINE#         58
  C:0F4FH         LINE#         59
  C:0F51H         LINE#         60
  -------         ENDPROC       INT1INIT
  -------         PROC          TIMER1_INIT
  C:0EF6H         LINE#         63
  C:0EF6H         LINE#         64
  C:0EF6H         LINE#         65
  C:0EF9H         LINE#         66
  C:0EFCH         LINE#         67
  C:0EFFH         LINE#         68
  C:0F01H         LINE#         69
  C:0F03H         LINE#         70
  C:0F05H         LINE#         71
  -------         ENDPROC       TIMER1_INIT
  C:0F26H         SYMBOL        L?0177
  -------         PROC          L?0176
  -------         ENDPROC       L?0176
  C:0F26H         SYMBOL        L?0177
  -------         PROC          _DELAY
  D:0006H         SYMBOL        i
  C:0F2AH         LINE#         76
  C:0F2AH         LINE#         77
  C:0F2AH         LINE#         78
  C:0F34H         LINE#         79
  -------         ENDPROC       _DELAY
  -------         PROC          KEY1PRESS
  C:0E5FH         LINE#         84
  C:0E5FH         LINE#         85
  C:0E5FH         LINE#         86
  C:0E62H         LINE#         87
  C:0E62H         LINE#         88
  C:0E65H         LINE#         89
  C:0E68H         LINE#         90
  C:0E68H         LINE#         91
  C:0E6AH         LINE#         93
  C:0E6DH         LINE#         94
  C:0E70H         LINE#         96
  C:0E78H         LINE#         97
  C:0E78H         LINE#         98
  C:0E7BH         LINE#         99
  C:0E7BH         LINE#         100
  -------         ENDPROC       KEY1PRESS
  -------         PROC          KEY2PRESS
  C:0F35H         LINE#         103
  C:0F35H         LINE#         104
BL51 BANKED LINKER/LOCATER V6.22                                                      07/15/2020  15:46:28  PAGE 8


  C:0F35H         LINE#         105
  C:0F38H         LINE#         106
  C:0F38H         LINE#         107
  C:0F3BH         LINE#         108
  C:0F3EH         LINE#         109
  C:0F3EH         LINE#         110
  C:0F40H         LINE#         111
  C:0F40H         LINE#         112
  C:0F43H         LINE#         113
  C:0F43H         LINE#         114
  -------         ENDPROC       KEY2PRESS
  -------         PROC          KEY3PRESS
  C:0E96H         LINE#         117
  C:0E96H         LINE#         118
  C:0E96H         LINE#         119
  C:0E99H         LINE#         120
  C:0E99H         LINE#         121
  C:0E9CH         LINE#         122
  C:0E9FH         LINE#         123
  C:0E9FH         LINE#         124
  C:0EA1H         LINE#         125
  C:0EA9H         LINE#         126
  C:0EA9H         LINE#         127
  C:0EACH         LINE#         128
  C:0EACH         LINE#         129
  -------         ENDPROC       KEY3PRESS
  -------         PROC          GET_DATA
  C:0B78H         LINE#         135
  C:0B78H         LINE#         136
  C:0B78H         LINE#         137
  C:0B7FH         LINE#         138
  C:0B86H         LINE#         139
  C:0B8DH         LINE#         140
  C:0B94H         LINE#         141
  C:0B9BH         LINE#         142
  C:0BA2H         LINE#         143
  C:0BA9H         LINE#         144
  C:0BB3H         LINE#         145
  C:0BBAH         LINE#         148
  C:0BC1H         LINE#         149
  C:0BC8H         LINE#         150
  C:0BCFH         LINE#         151
  C:0BD6H         LINE#         152
  C:0BDDH         LINE#         153
  C:0BE4H         LINE#         154
  C:0BEEH         LINE#         155
  -------         ENDPROC       GET_DATA
  -------         PROC          RESET_TIME_DATE
  C:0862H         LINE#         158
  C:0862H         LINE#         159
  C:0862H         LINE#         160
  C:0890H         LINE#         161
  C:0890H         LINE#         162
  C:089AH         LINE#         163
  C:089AH         LINE#         164
  C:08AAH         LINE#         165
  C:08AAH         LINE#         166
BL51 BANKED LINKER/LOCATER V6.22                                                      07/15/2020  15:46:28  PAGE 9


  C:08AAH         LINE#         167
  C:08ADH         LINE#         169
  C:08B7H         LINE#         170
  C:08B7H         LINE#         171
  C:08C7H         LINE#         172
  C:08C7H         LINE#         173
  C:08C7H         LINE#         174
  C:08CAH         LINE#         176
  C:08D4H         LINE#         177
  C:08D4H         LINE#         178
  C:08E4H         LINE#         179
  C:08E4H         LINE#         180
  C:08E4H         LINE#         181
  C:08E6H         LINE#         183
  C:08EDH         LINE#         184
  C:08EDH         LINE#         185
  C:08FDH         LINE#         186
  C:08FDH         LINE#         187
  C:08FDH         LINE#         188
  C:08FFH         LINE#         190
  C:0906H         LINE#         191
  C:0906H         LINE#         192
  C:0916H         LINE#         193
  C:0916H         LINE#         194
  C:0916H         LINE#         195
  C:0918H         LINE#         197
  C:091FH         LINE#         198
  C:091FH         LINE#         199
  C:092FH         LINE#         200
  C:092FH         LINE#         201
  C:092FH         LINE#         202
  C:0931H         LINE#         204
  C:0938H         LINE#         205
  C:0938H         LINE#         206
  C:0955H         LINE#         207
  C:0958H         LINE#         208
  C:0958H         LINE#         209
  C:0958H         LINE#         210
  C:0958H         LINE#         211
  C:0962H         LINE#         212
  -------         ENDPROC       RESET_TIME_DATE
  -------         PROC          TIMING
  C:0DFEH         LINE#         215
  C:0DFEH         LINE#         216
  C:0DFEH         LINE#         217
  C:0E03H         LINE#         218
  C:0E07H         LINE#         220
  C:0E09H         LINE#         222
  C:0E0EH         LINE#         223
  C:0E0EH         LINE#         224
  C:0E10H         LINE#         225
  C:0E13H         LINE#         226
  C:0E15H         LINE#         227
  C:0E17H         LINE#         228
  C:0E19H         LINE#         229
  C:0E1CH         LINE#         230
  C:0E1FH         LINE#         231
BL51 BANKED LINKER/LOCATER V6.22                                                      07/15/2020  15:46:28  PAGE 10


  C:0E1FH         LINE#         232
  -------         ENDPROC       TIMING
  -------         PROC          SETTING_ALARM
  C:0C51H         LINE#         235
  C:0C51H         LINE#         236
  C:0C51H         LINE#         237
  C:0C5EH         LINE#         238
  C:0C5EH         LINE#         239
  C:0C65H         LINE#         240
  C:0C65H         LINE#         241
  C:0C75H         LINE#         242
  C:0C75H         LINE#         243
  C:0C75H         LINE#         244
  C:0C77H         LINE#         246
  C:0C7EH         LINE#         247
  C:0C7EH         LINE#         248
  C:0C8EH         LINE#         249
  C:0C8EH         LINE#         250
  C:0C8EH         LINE#         251
  C:0C90H         LINE#         253
  C:0C97H         LINE#         254
  C:0C97H         LINE#         255
  C:0CA4H         LINE#         256
  C:0CA7H         LINE#         257
  C:0CA7H         LINE#         258
  C:0CA8H         LINE#         260
  C:0CABH         LINE#         261
  C:0CABH         LINE#         262
  C:0CABH         LINE#         263
  -------         ENDPROC       SETTING_ALARM
  -------         PROC          DISPLAY_WORKING
  -------         DO            
  D:0064H         SYMBOL        Week2
  -------         ENDDO         
  C:050BH         LINE#         270
  C:050BH         LINE#         271
  C:050BH         LINE#         273
  C:050EH         LINE#         276
  C:0513H         LINE#         277
  C:0518H         LINE#         279
  C:051DH         LINE#         280
  C:0522H         LINE#         283
  C:0527H         LINE#         284
  C:052CH         LINE#         285
  C:0538H         LINE#         286
  C:0546H         LINE#         287
  C:054BH         LINE#         288
  C:0557H         LINE#         289
  C:0565H         LINE#         290
  C:056AH         LINE#         291
  C:0576H         LINE#         292
  C:0584H         LINE#         293
  C:0589H         LINE#         294
  C:059FH         LINE#         295
  C:05AAH         LINE#         296
  C:05AAH         LINE#         297
  C:05BBH         LINE#         298
BL51 BANKED LINKER/LOCATER V6.22                                                      07/15/2020  15:46:28  PAGE 11


  C:05BDH         LINE#         300
  C:05C2H         LINE#         303
  C:05C7H         LINE#         304
  C:05CCH         LINE#         305
  C:05D1H         LINE#         306
  C:05D6H         LINE#         307
  C:05E8H         LINE#         308
  C:05FAH         LINE#         309
  C:05FFH         LINE#         310
  C:060BH         LINE#         311
  C:0619H         LINE#         312
  C:061EH         LINE#         313
  C:062AH         LINE#         314
  C:0638H         LINE#         315
  C:063DH         LINE#         316
  C:0642H         LINE#         317
  -------         ENDPROC       DISPLAY_WORKING
  -------         PROC          DISPLAY_SETTING
  -------         DO            
  D:0064H         SYMBOL        Week2
  -------         ENDDO         
  C:0396H         LINE#         322
  C:0396H         LINE#         323
  C:0396H         LINE#         326
  C:0399H         LINE#         329
  C:039EH         LINE#         330
  C:03A3H         LINE#         332
  C:03A8H         LINE#         333
  C:03ADH         LINE#         335
  C:03BDH         LINE#         336
  C:03BDH         LINE#         337
  C:03C1H         LINE#         338
  C:03C5H         LINE#         339
  C:03C9H         LINE#         340
  C:03CDH         LINE#         341
  C:03D2H         LINE#         342
  C:03D2H         LINE#         343
  C:03D7H         LINE#         346
  C:03E3H         LINE#         347
  C:03F1H         LINE#         348
  C:03F6H         LINE#         349
  C:0402H         LINE#         350
  C:0410H         LINE#         351
  C:0415H         LINE#         352
  C:0421H         LINE#         353
  C:042FH         LINE#         354
  C:0434H         LINE#         355
  C:044AH         LINE#         356
  C:0455H         LINE#         357
  C:0455H         LINE#         358
  C:0466H         LINE#         359
  C:0468H         LINE#         361
  C:046DH         LINE#         362
  C:047AH         LINE#         363
  C:047AH         LINE#         364
  C:047EH         LINE#         365
  C:0482H         LINE#         366
BL51 BANKED LINKER/LOCATER V6.22                                                      07/15/2020  15:46:28  PAGE 12


  C:0486H         LINE#         367
  C:048BH         LINE#         368
  C:048BH         LINE#         369
  C:0490H         LINE#         372
  C:0495H         LINE#         373
  C:049AH         LINE#         374
  C:04ACH         LINE#         375
  C:04BEH         LINE#         376
  C:04C3H         LINE#         377
  C:04CFH         LINE#         378
  C:04DDH         LINE#         379
  C:04E2H         LINE#         380
  C:04EEH         LINE#         381
  C:04FCH         LINE#         382
  C:0501H         LINE#         383
  C:0506H         LINE#         384
  -------         ENDPROC       DISPLAY_SETTING
  -------         PROC          DISPLAY_TIMING
  -------         DO            
  D:0064H         SYMBOL        title
  D:006BH         SYMBOL        p
  -------         ENDDO         
  C:0755H         LINE#         389
  C:0755H         LINE#         390
  C:0755H         LINE#         391
  C:0771H         LINE#         393
  C:0774H         LINE#         395
  C:0779H         LINE#         396
  C:077EH         LINE#         397
  C:0783H         LINE#         399
  C:0788H         LINE#         401
  C:078DH         LINE#         402
  C:0792H         LINE#         403
  C:0797H         LINE#         404
  C:079CH         LINE#         405
  C:07A0H         LINE#         406
  C:07ABH         LINE#         407
  C:07BEH         LINE#         408
  C:07C3H         LINE#         409
  C:07C8H         LINE#         410
  C:07CDH         LINE#         411
  C:07D2H         LINE#         412
  C:07D7H         LINE#         414
  C:07DCH         LINE#         416
  C:07E1H         LINE#         417
  C:07E6H         LINE#         418
  C:07EBH         LINE#         419
  C:07F7H         LINE#         420
  C:0805H         LINE#         421
  C:080AH         LINE#         422
  C:0816H         LINE#         423
  C:0824H         LINE#         424
  C:0829H         LINE#         425
  C:0835H         LINE#         426
  C:0843H         LINE#         427
  C:0848H         LINE#         428
  C:0854H         LINE#         429
BL51 BANKED LINKER/LOCATER V6.22                                                      07/15/2020  15:46:28  PAGE 13


  -------         ENDPROC       DISPLAY_TIMING
  -------         PROC          DISPLAY_CLOCK
  -------         DO            
  D:0064H         SYMBOL        title
  D:006AH         SYMBOL        p
  -------         ENDDO         
  C:0647H         LINE#         433
  C:0647H         LINE#         434
  C:0647H         LINE#         435
  C:0663H         LINE#         437
  C:0666H         LINE#         439
  C:066BH         LINE#         440
  C:0670H         LINE#         441
  C:0675H         LINE#         443
  C:067AH         LINE#         445
  C:0685H         LINE#         446
  C:0698H         LINE#         447
  C:069DH         LINE#         448
  C:06A4H         LINE#         449
  C:06A4H         LINE#         450
  C:06A7H         LINE#         451
  C:06ACH         LINE#         452
  C:06AEH         LINE#         453
  C:06B0H         LINE#         455
  C:06B0H         LINE#         456
  C:06B3H         LINE#         457
  C:06B8H         LINE#         458
  C:06BDH         LINE#         459
  C:06BDH         LINE#         460
  C:06C2H         LINE#         461
  C:06C7H         LINE#         462
  C:06CCH         LINE#         463
  C:06D1H         LINE#         464
  C:06D6H         LINE#         465
  C:06DBH         LINE#         466
  C:06E0H         LINE#         468
  C:06E5H         LINE#         470
  C:06EAH         LINE#         471
  C:06EFH         LINE#         472
  C:06F4H         LINE#         473
  C:06F9H         LINE#         474
  C:06FEH         LINE#         475
  C:0703H         LINE#         476
  C:070FH         LINE#         477
  C:071DH         LINE#         478
  C:0722H         LINE#         479
  C:072EH         LINE#         480
  C:073CH         LINE#         481
  C:0741H         LINE#         482
  C:0746H         LINE#         483
  C:074BH         LINE#         484
  C:0750H         LINE#         485
  -------         ENDPROC       DISPLAY_CLOCK
  -------         PROC          DISPLAY
  C:0DD1H         LINE#         489
  C:0DD1H         LINE#         490
  C:0DD1H         LINE#         491
BL51 BANKED LINKER/LOCATER V6.22                                                      07/15/2020  15:46:28  PAGE 14


  C:0DD6H         LINE#         492
  C:0DD9H         LINE#         494
  C:0DDEH         LINE#         495
  C:0DDEH         LINE#         496
  C:0DE3H         LINE#         497
  C:0DE6H         LINE#         498
  C:0DEDH         LINE#         499
  C:0DEDH         LINE#         501
  C:0DF2H         LINE#         502
  C:0DF5H         LINE#         504
  C:0DFAH         LINE#         505
  C:0DFDH         LINE#         506
  -------         ENDPROC       DISPLAY
  -------         PROC          DISPLAY_ALARM
  -------         DO            
  D:0064H         SYMBOL        title
  D:006AH         SYMBOL        p
  -------         ENDDO         
  C:0AFDH         LINE#         509
  C:0AFDH         LINE#         510
  C:0AFDH         LINE#         511
  C:0B19H         LINE#         513
  C:0B1EH         LINE#         514
  C:0B23H         LINE#         515
  C:0B28H         LINE#         517
  C:0B2DH         LINE#         518
  C:0B38H         LINE#         519
  C:0B4BH         LINE#         521
  C:0B50H         LINE#         522
  C:0B59H         LINE#         523
  C:0B64H         LINE#         524
  C:0B77H         LINE#         525
  -------         ENDPROC       DISPLAY_ALARM
  -------         PROC          ALARM_GOES_OFF
  C:0D06H         LINE#         530
  C:0D06H         LINE#         531
  C:0D06H         LINE#         532
  C:0D0BH         LINE#         533
  C:0D23H         LINE#         534
  C:0D26H         LINE#         536
  C:0D2BH         LINE#         537
  C:0D2BH         LINE#         538
  C:0D2EH         LINE#         539
  C:0D37H         LINE#         540
  C:0D3AH         LINE#         541
  C:0D3FH         LINE#         542
  C:0D4EH         LINE#         545
  C:0D51H         LINE#         546
  C:0D51H         LINE#         547
  -------         ENDPROC       ALARM_GOES_OFF
  -------         PROC          MAIN
  C:0E7CH         LINE#         551
  C:0E7CH         LINE#         552
  C:0E7CH         LINE#         553
  C:0E7FH         LINE#         554
  C:0E82H         LINE#         555
  C:0E85H         LINE#         556
BL51 BANKED LINKER/LOCATER V6.22                                                      07/15/2020  15:46:28  PAGE 15


  C:0E85H         LINE#         557
  C:0E85H         LINE#         559
  C:0E88H         LINE#         560
  C:0E8BH         LINE#         561
  C:0E8EH         LINE#         563
  C:0E91H         LINE#         564
  C:0E94H         LINE#         565
  -------         ENDPROC       MAIN
  -------         PROC          INT1
  C:0E20H         LINE#         569
  C:0E2DH         LINE#         571
  C:0E30H         LINE#         572
  C:0E33H         LINE#         573
  C:0E33H         LINE#         574
  C:0E36H         LINE#         575
  C:0E36H         LINE#         576
  -------         ENDPROC       INT1
  -------         PROC          TIMER1
  C:0CACH         LINE#         579
  C:0CC9H         LINE#         581
  C:0CCEH         LINE#         582
  C:0CCEH         LINE#         583
  C:0CD7H         LINE#         584
  C:0CD9H         LINE#         587
  C:0CD9H         LINE#         588
  C:0CDCH         LINE#         589
  C:0CDFH         LINE#         590
  C:0CE1H         LINE#         591
  C:0CE6H         LINE#         592
  C:0CE6H         LINE#         593
  C:0CE9H         LINE#         594
  C:0CEBH         LINE#         595
  C:0CEBH         LINE#         596
  C:0CEBH         LINE#         597
  -------         ENDPROC       TIMER1
  -------         ENDMOD        MAIN

  -------         MODULE        DS1302
  C:0000H         SYMBOL        _ICE_DUMMY_
  D:0090H         PUBLIC        P1
  B:00B0H.6       PUBLIC        TSCLK
  D:00B0H         PUBLIC        P3
  C:0D9CH         PUBLIC        _write_DS1302_dat
  D:00A8H         PUBLIC        IE
  C:0EE5H         PUBLIC        _decode_BCD
  D:00B8H         PUBLIC        IP
  C:0EC0H         PUBLIC        _encode_BCD
  D:0098H         PUBLIC        SCON
  D:0088H         PUBLIC        TCON
  B:00B0H.5       PUBLIC        TRST
  D:00C8H         PUBLIC        T2CON
  B:00B0H.4       PUBLIC        TIO
  C:0D52H         PUBLIC        _read_DS1302_dat
  D:00D0H         PUBLIC        PSW
  -------         PROC          _ENCODE_BCD
  D:0007H         SYMBOL        dat
  -------         DO            
BL51 BANKED LINKER/LOCATER V6.22                                                      07/15/2020  15:46:28  PAGE 16


  D:0006H         SYMBOL        dat1
  D:0007H         SYMBOL        dat2
  -------         ENDDO         
  C:0EC0H         LINE#         4
  C:0EC0H         LINE#         5
  C:0EC0H         LINE#         7
  C:0EC6H         LINE#         8
  C:0ECBH         LINE#         9
  C:0ED2H         LINE#         10
  C:0ED2H         LINE#         11
  -------         ENDPROC       _ENCODE_BCD
  -------         PROC          _DECODE_BCD
  D:0007H         SYMBOL        dat
  -------         DO            
  D:0006H         SYMBOL        dat1
  D:0007H         SYMBOL        dat2
  -------         ENDDO         
  C:0EE5H         LINE#         14
  C:0EE5H         LINE#         15
  C:0EE5H         LINE#         17
  C:0EEAH         LINE#         18
  C:0EEEH         LINE#         19
  C:0EF5H         LINE#         20
  C:0EF5H         LINE#         21
  -------         ENDPROC       _DECODE_BCD
  -------         PROC          _WRITE_DS1302_DAT
  D:0007H         SYMBOL        addr
  D:0005H         SYMBOL        dat
  -------         DO            
  D:0006H         SYMBOL        i
  -------         ENDDO         
  C:0D9CH         LINE#         24
  C:0D9CH         LINE#         25
  C:0D9CH         LINE#         28
  C:0D9EH         LINE#         29
  C:0D9FH         LINE#         30
  C:0DA1H         LINE#         31
  C:0DA2H         LINE#         33
  C:0DA4H         LINE#         34
  C:0DA5H         LINE#         35
  C:0DA7H         LINE#         36
  C:0DA7H         LINE#         38
  C:0DABH         LINE#         39
  C:0DAFH         LINE#         40
  C:0DB1H         LINE#         41
  C:0DB2H         LINE#         42
  C:0DB4H         LINE#         43
  C:0DB5H         LINE#         44
  C:0DB9H         LINE#         45
  C:0DBBH         LINE#         46
  C:0DBBH         LINE#         48
  C:0DBFH         LINE#         49
  C:0DC3H         LINE#         50
  C:0DC5H         LINE#         51
  C:0DC6H         LINE#         52
  C:0DC8H         LINE#         53
  C:0DC9H         LINE#         54
BL51 BANKED LINKER/LOCATER V6.22                                                      07/15/2020  15:46:28  PAGE 17


  C:0DCDH         LINE#         55
  C:0DCFH         LINE#         56
  C:0DD0H         LINE#         57
  -------         ENDPROC       _WRITE_DS1302_DAT
  -------         PROC          _READ_DS1302_DAT
  D:0007H         SYMBOL        addr
  -------         DO            
  D:0003H         SYMBOL        i
  D:0006H         SYMBOL        dat
  D:0005H         SYMBOL        dat1
  -------         ENDDO         
  C:0D52H         LINE#         60
  C:0D52H         LINE#         61
  C:0D52H         LINE#         62
  C:0D55H         LINE#         64
  C:0D57H         LINE#         65
  C:0D58H         LINE#         66
  C:0D5AH         LINE#         67
  C:0D5BH         LINE#         69
  C:0D5DH         LINE#         70
  C:0D5EH         LINE#         71
  C:0D5EH         LINE#         72
  C:0D62H         LINE#         73
  C:0D66H         LINE#         74
  C:0D68H         LINE#         75
  C:0D69H         LINE#         76
  C:0D6BH         LINE#         77
  C:0D6CH         LINE#         78
  C:0D70H         LINE#         79
  C:0D72H         LINE#         80
  C:0D72H         LINE#         81
  C:0D77H         LINE#         82
  C:0D83H         LINE#         84
  C:0D85H         LINE#         85
  C:0D86H         LINE#         86
  C:0D88H         LINE#         87
  C:0D89H         LINE#         88
  C:0D8DH         LINE#         90
  C:0D8FH         LINE#         91
  C:0D90H         LINE#         92
  C:0D92H         LINE#         93
  C:0D93H         LINE#         94
  C:0D95H         LINE#         95
  C:0D96H         LINE#         96
  C:0D98H         LINE#         97
  C:0D99H         LINE#         98
  C:0D9BH         LINE#         99
  -------         ENDPROC       _READ_DS1302_DAT
  -------         ENDMOD        DS1302

  -------         MODULE        LCD1602
  C:0000H         SYMBOL        _ICE_DUMMY_
  D:0080H         PUBLIC        P0
  D:0090H         PUBLIC        P1
  D:00A0H         PUBLIC        P2
  D:00B0H         PUBLIC        P3
  D:00A8H         PUBLIC        IE
BL51 BANKED LINKER/LOCATER V6.22                                                      07/15/2020  15:46:28  PAGE 18


  B:00A0H.7       PUBLIC        EN
  D:00B8H         PUBLIC        IP
  B:00A0H.6       PUBLIC        RS
  B:00A0H.5       PUBLIC        RW
  D:0098H         PUBLIC        SCON
  D:0088H         PUBLIC        TCON
  C:0F06H         PUBLIC        _write_cmd
  C:0ED3H         PUBLIC        read_busy
  C:0F16H         PUBLIC        _write_dat
  D:00C8H         PUBLIC        T2CON
  D:00D0H         PUBLIC        PSW
  -------         PROC          READ_BUSY
  -------         DO            
  D:0007H         SYMBOL        busy
  -------         ENDDO         
  C:0ED3H         LINE#         4
  C:0ED3H         LINE#         5
  C:0ED3H         LINE#         7
  C:0ED6H         LINE#         8
  C:0ED8H         LINE#         9
  C:0EDAH         LINE#         11
  C:0EDAH         LINE#         12
  C:0EDCH         LINE#         13
  C:0EDEH         LINE#         14
  C:0EE0H         LINE#         15
  C:0EE4H         LINE#         16
  -------         ENDPROC       READ_BUSY
  -------         PROC          _WRITE_CMD
  D:0006H         SYMBOL        cmd
  C:0F06H         LINE#         19
  C:0F08H         LINE#         20
  C:0F08H         LINE#         21
  C:0F0BH         LINE#         22
  C:0F0DH         LINE#         23
  C:0F0FH         LINE#         24
  C:0F11H         LINE#         25
  C:0F13H         LINE#         26
  C:0F15H         LINE#         27
  -------         ENDPROC       _WRITE_CMD
  -------         PROC          _WRITE_DAT
  D:0006H         SYMBOL        dat
  C:0F16H         LINE#         30
  C:0F18H         LINE#         31
  C:0F18H         LINE#         32
  C:0F1BH         LINE#         33
  C:0F1DH         LINE#         34
  C:0F1FH         LINE#         35
  C:0F21H         LINE#         36
  C:0F23H         LINE#         37
  C:0F25H         LINE#         38
  -------         ENDPROC       _WRITE_DAT
  -------         ENDMOD        LCD1602

  -------         MODULE        ?C?COPY
  C:02D5H         PUBLIC        ?C?COPY
  -------         ENDMOD        ?C?COPY

BL51 BANKED LINKER/LOCATER V6.22                                                      07/15/2020  15:46:28  PAGE 19


  -------         MODULE        ?C?CLDPTR
  C:02FBH         PUBLIC        ?C?CLDPTR
  -------         ENDMOD        ?C?CLDPTR

  -------         MODULE        ?C?CLDOPTR
  C:0314H         PUBLIC        ?C?CLDOPTR
  -------         ENDMOD        ?C?CLDOPTR

  -------         MODULE        ?C?UIDIV
  C:0341H         PUBLIC        ?C?UIDIV
  -------         ENDMOD        ?C?UIDIV

Program Size: data=111.0 xdata=0 code=3922
LINK/LOCATE RUN COMPLETE.  0 WARNING(S),  0 ERROR(S)
