BL51 BANKED LINKER/LOCATER V6.22                                                        02/25/2020  11:30:19  PAGE 1


BL51 BANKED LINKER/LOCATER V6.22, INVOKED BY:
D:\KEILUVISION4C51\C51\BIN\BL51.EXE 电子时钟Pro.obj TO 电子时钟Pro RAMSIZE (256)


MEMORY MODEL: SMALL


INPUT MODULES INCLUDED:
  电子时钟Pro.obj (电子时_覲RO)
  D:\KEILUVISION4C51\C51\LIB\C51S.LIB (?C_STARTUP)
  D:\KEILUVISION4C51\C51\LIB\C51S.LIB (?C?IMUL)
  D:\KEILUVISION4C51\C51\LIB\C51S.LIB (?C?UIDIV)
  D:\KEILUVISION4C51\C51\LIB\C51S.LIB (?C_INIT)


LINK MAP OF MODULE:  电子时钟Pro (电子时_覲RO)


            TYPE    BASE      LENGTH    RELOCATION   SEGMENT NAME
            -----------------------------------------------------

            * * * * * * *   D A T A   M E M O R Y   * * * * * * *
            REG     0000H     0008H     ABSOLUTE     "REG BANK 0"
            DATA    0008H     001BH     UNIT         ?DT?电子时_覲RO
            DATA    0023H     0004H     UNIT         _DATA_GROUP_
            IDATA   0027H     0001H     UNIT         ?STACK

            * * * * * * *   C O D E   M E M O R Y   * * * * * * *
            CODE    0000H     0003H     ABSOLUTE     
                    0003H     0008H                  *** GAP ***
            CODE    000BH     0003H     ABSOLUTE     
            CODE    000EH     000BH     UNIT         ?PR?MODEL?电子时_覲RO
                    0019H     0002H                  *** GAP ***
            CODE    001BH     0003H     ABSOLUTE     
            CODE    001EH     0943H     UNIT         ?PR?SET_MODEL?电子时_覲RO
            CODE    0961H     026BH     UNIT         ?PR?KEY_FUNCTION?电子时_覲RO
            CODE    0BCCH     0223H     UNIT         ?PR?TIME_DATE_UPDATE?电子时_覲RO
            CODE    0DEFH     0140H     UNIT         ?PR?WORK_MODEL?电子时_覲RO
            CODE    0F2FH     008CH     UNIT         ?C_C51STARTUP
            CODE    0FBBH     0067H     UNIT         ?C?LIB_CODE
            CODE    1022H     005CH     UNIT         ?PR?TIMING_MODEL?电子时_覲RO
            CODE    107EH     004CH     UNIT         ?C_INITSEG
            CODE    10CAH     003BH     UNIT         ?PR?TIMING_CTRL?电子时_覲RO
            CODE    1105H     003BH     UNIT         ?PR?TIMER0?电子时_覲RO
            CODE    1140H     002BH     UNIT         ?PR?_DISPLAY?电子时_覲RO
            CODE    116BH     0026H     UNIT         ?PR?KEY1PRESS?电子时_覲RO
            CODE    1191H     0020H     UNIT         ?PR?MAIN?电子时_覲RO
            CODE    11B1H     001BH     UNIT         ?PR?TIMER1?电子时_覲RO
            CODE    11CCH     001AH     UNIT         ?PR?TIMER0_TIMER1_INIT?电子时_覲RO
            CODE    11E6H     001AH     UNIT         ?PR?OPEN_BEEP?电子时_覲RO
            CODE    1200H     0017H     UNIT         ?CO?电子时_覲RO
            CODE    1217H     0013H     UNIT         ?PR?KEY4PRESS?电子时_覲RO
            CODE    122AH     000FH     UNIT         ?PR?_DELAY?电子时_覲RO
            CODE    1239H     000FH     UNIT         ?PR?KEY2PRESS?电子时_覲RO
            CODE    1248H     000FH     UNIT         ?PR?KEY3PRESS?电子时_覲RO



BL51 BANKED LINKER/LOCATER V6.22                                                      02/25/2020  11:30:19  PAGE 2


OVERLAY MAP OF MODULE:   电子时钟Pro (电子时_覲RO)


SEGMENT                                      DATA_GROUP 
  +--> CALLED SEGMENT                      START    LENGTH
----------------------------------------------------------
?C_C51STARTUP                              -----    -----
  +--> ?PR?MAIN?电子时_覲RO
  +--> ?C_INITSEG

?PR?MAIN?电子时_覲RO                       -----    -----
  +--> ?PR?TIMER0_TIMER1_INIT?电子时_覲RO
  +--> ?PR?MODEL?电子时_覲RO
  +--> ?PR?KEY1PRESS?电子时_覲RO
  +--> ?PR?KEY2PRESS?电子时_覲RO
  +--> ?PR?KEY3PRESS?电子时_覲RO
  +--> ?PR?KEY4PRESS?电子时_覲RO
  +--> ?PR?KEY_FUNCTION?电子时_覲RO
  +--> ?PR?TIMING_CTRL?电子时_覲RO
  +--> ?PR?TIME_DATE_UPDATE?电子时_覲RO
  +--> ?PR?OPEN_BEEP?电子时_覲RO

?PR?MODEL?电子时_覲RO                      -----    -----
  +--> ?PR?WORK_MODEL?电子时_覲RO
  +--> ?PR?SET_MODEL?电子时_覲RO

?PR?WORK_MODEL?电子时_覲RO                 0023H    0002H
  +--> ?PR?_DISPLAY?电子时_覲RO
  +--> ?PR?TIMING_MODEL?电子时_覲RO

?PR?_DISPLAY?电子时_覲RO                   -----    -----
  +--> ?CO?电子时_覲RO
  +--> ?PR?_DELAY?电子时_覲RO

?PR?TIMING_MODEL?电子时_覲RO               -----    -----
  +--> ?PR?_DISPLAY?电子时_覲RO

?PR?SET_MODEL?电子时_覲RO                  0023H    0004H
  +--> ?PR?_DISPLAY?电子时_覲RO

?PR?KEY1PRESS?电子时_覲RO                  -----    -----
  +--> ?PR?_DELAY?电子时_覲RO

?PR?KEY2PRESS?电子时_覲RO                  -----    -----
  +--> ?PR?_DELAY?电子时_覲RO

?PR?KEY3PRESS?电子时_覲RO                  -----    -----
  +--> ?PR?_DELAY?电子时_覲RO

?PR?KEY4PRESS?电子时_覲RO                  -----    -----
  +--> ?PR?_DELAY?电子时_覲RO



SYMBOL TABLE OF MODULE:  电子时钟Pro (电子时_覲RO)

  VALUE           TYPE          NAME
BL51 BANKED LINKER/LOCATER V6.22                                                      02/25/2020  11:30:19  PAGE 3


  ----------------------------------

  -------         MODULE        电子时_覲RO
  C:0000H         SYMBOL        _ICE_DUMMY_
  D:0080H         PUBLIC        P0
  C:1022H         PUBLIC        timing_model
  D:0090H         PUBLIC        P1
  D:00A0H         PUBLIC        P2
  D:0008H         PUBLIC        setting
  D:00B0H         PUBLIC        P3
  B:00A8H.7       PUBLIC        EA
  D:0009H         PUBLIC        timing
  D:00A8H         PUBLIC        IE
  D:000AH         PUBLIC        clock
  C:120FH         PUBLIC        smgwei
  C:122EH         PUBLIC        _delay
  C:000EH         PUBLIC        model
  C:0961H         PUBLIC        key_function
  D:00B8H         PUBLIC        IP
  C:0BCCH         PUBLIC        time_date_update
  B:00B0H.1       PUBLIC        k1
  B:00B0H.0       PUBLIC        k2
  B:00B0H.2       PUBLIC        k3
  B:0090H.5       PUBLIC        beep
  B:00B0H.3       PUBLIC        k4
  D:000BH         PUBLIC        noise
  D:000CH         PUBLIC        s0
  C:10CAH         PUBLIC        timing_ctrl
  D:000DH         PUBLIC        jian
  D:000EH         PUBLIC        s1
  D:000FH         PUBLIC        other
  C:1191H         PUBLIC        main
  D:0010H         PUBLIC        month
  C:116BH         PUBLIC        key1press
  C:1239H         PUBLIC        key2press
  D:0012H         PUBLIC        week
  C:1248H         PUBLIC        key3press
  C:1217H         PUBLIC        key4press
  C:11E6H         PUBLIC        open_beep
  D:0013H         PUBLIC        year
  C:1105H         PUBLIC        Timer0
  D:0098H         PUBLIC        SCON
  C:11B1H         PUBLIC        Timer1
  D:0015H         PUBLIC        jia
  D:0089H         PUBLIC        TMOD
  D:0088H         PUBLIC        TCON
  D:0016H         PUBLIC        ctrl
  C:0DEFH         PUBLIC        work_model
  D:0017H         PUBLIC        sec
  D:0018H         PUBLIC        day
  D:001AH         PUBLIC        hour
  C:11CCH         PUBLIC        Timer0_Timer1_Init
  C:001EH         PUBLIC        set_model
  D:001BH         PUBLIC        min
  B:00A8H.1       PUBLIC        ET0
  B:00A8H.3       PUBLIC        ET1
  D:008CH         PUBLIC        TH0
BL51 BANKED LINKER/LOCATER V6.22                                                      02/25/2020  11:30:19  PAGE 4


  D:008DH         PUBLIC        TH1
  D:008AH         PUBLIC        TL0
  D:008BH         PUBLIC        TL1
  B:0088H.4       PUBLIC        TR0
  B:0088H.6       PUBLIC        TR1
  D:001CH         PUBLIC        transform
  D:00C8H         PUBLIC        T2CON
  D:001DH         PUBLIC        N_sec
  D:001EH         PUBLIC        sec1
  D:001FH         PUBLIC        N_hour
  D:0020H         PUBLIC        hour1
  C:1200H         PUBLIC        smgduan
  D:0021H         PUBLIC        N_min
  D:0022H         PUBLIC        min1
  C:1152H         PUBLIC        _display
  D:00D0H         PUBLIC        PSW
  C:122AH         SYMBOL        L?0347
  -------         PROC          L?0346
  -------         ENDPROC       L?0346
  C:122AH         SYMBOL        L?0347
  -------         PROC          _DELAY
  D:0006H         SYMBOL        i
  C:122EH         LINE#         45
  C:122EH         LINE#         46
  C:122EH         LINE#         47
  C:1238H         LINE#         48
  -------         ENDPROC       _DELAY
  C:1148H         SYMBOL        L?0344
  C:114AH         SYMBOL        L?0345
  -------         PROC          L?0343
  -------         ENDPROC       L?0343
  C:1148H         SYMBOL        L?0344
  C:114AH         SYMBOL        L?0345
  -------         PROC          _DISPLAY
  D:0007H         SYMBOL        j
  D:0005H         SYMBOL        k
  C:1152H         LINE#         51
  C:1152H         LINE#         52
  C:1152H         LINE#         53
  C:1159H         LINE#         54
  C:1160H         LINE#         55
  C:1167H         LINE#         56
  C:116AH         LINE#         57
  -------         ENDPROC       _DISPLAY
  -------         PROC          TIMER0_TIMER1_INIT
  C:11CCH         LINE#         59
  C:11CCH         LINE#         60
  C:11CCH         LINE#         61
  C:11CFH         LINE#         62
  C:11D2H         LINE#         63
  C:11D5H         LINE#         64
  C:11D8H         LINE#         65
  C:11DBH         LINE#         66
  C:11DDH         LINE#         67
  C:11DFH         LINE#         68
  C:11E1H         LINE#         69
  C:11E3H         LINE#         70
BL51 BANKED LINKER/LOCATER V6.22                                                      02/25/2020  11:30:19  PAGE 5


  C:11E5H         LINE#         71
  -------         ENDPROC       TIMER0_TIMER1_INIT
  -------         PROC          MODEL
  C:000EH         LINE#         73
  C:000EH         LINE#         74
  C:000EH         LINE#         75
  C:0012H         LINE#         76
  C:0015H         LINE#         78
  C:0018H         LINE#         79
  -------         ENDPROC       MODEL
  -------         PROC          WORK_MODEL
  -------         DO            
  D:0023H         SYMBOL        a
  D:0002H         SYMBOL        b
  -------         ENDDO         
  C:0DEFH         LINE#         81
  C:0DEFH         LINE#         82
  C:0DEFH         LINE#         84
  C:0DF6H         LINE#         85
  C:0DF6H         LINE#         86
  C:0DFDH         LINE#         87
  C:0DFDH         LINE#         88
  C:0E04H         LINE#         89
  C:0E04H         LINE#         90
  C:0E11H         LINE#         91
  C:0E1DH         LINE#         92
  C:0E24H         LINE#         93
  C:0E31H         LINE#         94
  C:0E3DH         LINE#         95
  C:0E44H         LINE#         96
  C:0E49H         LINE#         97
  C:0E50H         LINE#         98
  C:0E53H         LINE#         100
  C:0E53H         LINE#         101
  C:0E7BH         LINE#         102
  C:0EB5H         LINE#         103
  C:0EC1H         LINE#         104
  C:0ED3H         LINE#         105
  C:0EE3H         LINE#         106
  C:0EF5H         LINE#         107
  C:0F05H         LINE#         108
  C:0F0CH         LINE#         109
  C:0F13H         LINE#         110
  C:0F22H         LINE#         111
  C:0F22H         LINE#         112
  C:0F24H         LINE#         114
  C:0F2BH         LINE#         115
  C:0F2BH         LINE#         117
  C:0F2EH         LINE#         118
  -------         ENDPROC       WORK_MODEL
  -------         PROC          SET_MODEL
  -------         DO            
  D:0023H         SYMBOL        a
  D:0025H         SYMBOL        b
  -------         ENDDO         
  C:001EH         LINE#         120
  C:001EH         LINE#         121
BL51 BANKED LINKER/LOCATER V6.22                                                      02/25/2020  11:30:19  PAGE 6


  C:001EH         LINE#         125
  C:0027H         LINE#         126
  C:0027H         LINE#         127
  C:005FH         LINE#         128
  C:005FH         LINE#         129
  C:0066H         LINE#         130
  C:0066H         LINE#         131
  C:0068H         LINE#         132
  C:00AEH         LINE#         133
  C:00AEH         LINE#         134
  C:00BBH         LINE#         135
  C:00C7H         LINE#         136
  C:00C7H         LINE#         137
  C:00D4H         LINE#         138
  C:00DDH         LINE#         139
  C:00DDH         LINE#         140
  C:00DDH         LINE#         141
  C:00E0H         LINE#         143
  C:00E9H         LINE#         144
  C:00E9H         LINE#         145
  C:0121H         LINE#         146
  C:0121H         LINE#         147
  C:0128H         LINE#         148
  C:0128H         LINE#         149
  C:012AH         LINE#         150
  C:0170H         LINE#         151
  C:0170H         LINE#         152
  C:017DH         LINE#         153
  C:0189H         LINE#         154
  C:0189H         LINE#         155
  C:0196H         LINE#         156
  C:01A2H         LINE#         157
  C:01A7H         LINE#         158
  C:01A9H         LINE#         159
  C:01ACH         LINE#         161
  C:01B5H         LINE#         162
  C:01B5H         LINE#         163
  C:01EDH         LINE#         164
  C:01EDH         LINE#         165
  C:01F4H         LINE#         166
  C:01F4H         LINE#         167
  C:01F6H         LINE#         168
  C:023CH         LINE#         169
  C:023CH         LINE#         170
  C:0241H         LINE#         171
  C:024DH         LINE#         172
  C:024DH         LINE#         173
  C:025AH         LINE#         174
  C:0266H         LINE#         175
  C:0273H         LINE#         176
  C:0275H         LINE#         177
  C:0278H         LINE#         180
  C:0281H         LINE#         181
  C:0281H         LINE#         182
  C:02A9H         LINE#         183
  C:02E3H         LINE#         184
  C:031BH         LINE#         185
BL51 BANKED LINKER/LOCATER V6.22                                                      02/25/2020  11:30:19  PAGE 7


  C:031BH         LINE#         186
  C:0322H         LINE#         187
  C:0322H         LINE#         188
  C:0324H         LINE#         189
  C:0368H         LINE#         190
  C:0368H         LINE#         191
  C:0378H         LINE#         192
  C:038AH         LINE#         193
  C:038AH         LINE#         194
  C:039AH         LINE#         195
  C:03A9H         LINE#         196
  C:03A9H         LINE#         197
  C:03A9H         LINE#         198
  C:03A9H         LINE#         199
  C:03A9H         LINE#         200
  C:03ACH         LINE#         202
  C:03B5H         LINE#         203
  C:03B5H         LINE#         204
  C:03DDH         LINE#         205
  C:0417H         LINE#         206
  C:0452H         LINE#         207
  C:0452H         LINE#         208
  C:0459H         LINE#         209
  C:0459H         LINE#         210
  C:045BH         LINE#         211
  C:049FH         LINE#         212
  C:049FH         LINE#         213
  C:04AFH         LINE#         214
  C:04C1H         LINE#         215
  C:04C1H         LINE#         216
  C:04D1H         LINE#         217
  C:04E3H         LINE#         218
  C:04F3H         LINE#         219
  C:04FAH         LINE#         220
  C:0501H         LINE#         221
  C:050EH         LINE#         222
  C:0511H         LINE#         224
  C:051AH         LINE#         225
  C:051AH         LINE#         226
  C:0542H         LINE#         227
  C:057CH         LINE#         228
  C:05B4H         LINE#         229
  C:05B4H         LINE#         230
  C:05BBH         LINE#         231
  C:05C0H         LINE#         232
  C:05C5H         LINE#         233
  C:05C5H         LINE#         234
  C:05C7H         LINE#         235
  C:060BH         LINE#         236
  C:060BH         LINE#         237
  C:061BH         LINE#         238
  C:0622H         LINE#         239
  C:0629H         LINE#         240
  C:063BH         LINE#         241
  C:063BH         LINE#         242
  C:064BH         LINE#         243
  C:065DH         LINE#         244
BL51 BANKED LINKER/LOCATER V6.22                                                      02/25/2020  11:30:19  PAGE 8


  C:066DH         LINE#         245
  C:067CH         LINE#         246
  C:067FH         LINE#         249
  C:0685H         LINE#         250
  C:0685H         LINE#         251
  C:06BDH         LINE#         252
  C:06C4H         LINE#         254
  C:06C8H         LINE#         255
  C:06CBH         LINE#         258
  C:06D1H         LINE#         259
  C:06D1H         LINE#         260
  C:06D5H         LINE#         261
  C:06D5H         LINE#         262
  C:06DBH         LINE#         263
  C:06E2H         LINE#         264
  C:06E4H         LINE#         265
  C:06E7H         LINE#         266
  C:06F0H         LINE#         267
  C:06F0H         LINE#         268
  C:06F6H         LINE#         269
  C:06FAH         LINE#         270
  C:06FAH         LINE#         271
  C:06FDH         LINE#         273
  C:0706H         LINE#         274
  C:0706H         LINE#         275
  C:073EH         LINE#         276
  C:073EH         LINE#         277
  C:0745H         LINE#         278
  C:0745H         LINE#         279
  C:0747H         LINE#         280
  C:078DH         LINE#         281
  C:078DH         LINE#         282
  C:079AH         LINE#         283
  C:07A6H         LINE#         284
  C:07A6H         LINE#         285
  C:07B3H         LINE#         286
  C:07B7H         LINE#         287
  C:07BAH         LINE#         288
  C:07C3H         LINE#         289
  C:07C6H         LINE#         291
  C:07CFH         LINE#         292
  C:07CFH         LINE#         293
  C:0807H         LINE#         294
  C:0807H         LINE#         295
  C:080EH         LINE#         296
  C:080EH         LINE#         297
  C:0810H         LINE#         298
  C:0856H         LINE#         299
  C:0856H         LINE#         300
  C:0863H         LINE#         301
  C:086FH         LINE#         302
  C:086FH         LINE#         303
  C:087CH         LINE#         304
  C:0880H         LINE#         305
  C:0883H         LINE#         306
  C:088CH         LINE#         307
  C:088FH         LINE#         309
BL51 BANKED LINKER/LOCATER V6.22                                                      02/25/2020  11:30:19  PAGE 9


  C:0898H         LINE#         310
  C:0898H         LINE#         311
  C:08D0H         LINE#         312
  C:08D0H         LINE#         313
  C:08D7H         LINE#         314
  C:08D7H         LINE#         315
  C:08D9H         LINE#         316
  C:091FH         LINE#         317
  C:091FH         LINE#         318
  C:0922H         LINE#         319
  C:092EH         LINE#         320
  C:092EH         LINE#         321
  C:093BH         LINE#         322
  C:0947H         LINE#         323
  C:0954H         LINE#         324
  C:0960H         LINE#         325
  C:0960H         LINE#         326
  -------         ENDPROC       SET_MODEL
  -------         PROC          TIMING_MODEL
  C:1022H         LINE#         328
  C:1022H         LINE#         329
  C:1022H         LINE#         330
  C:102FH         LINE#         331
  C:103BH         LINE#         332
  C:1048H         LINE#         333
  C:1054H         LINE#         334
  C:1061H         LINE#         335
  C:106DH         LINE#         336
  C:1072H         LINE#         337
  -------         ENDPROC       TIMING_MODEL
  -------         PROC          KEY1PRESS
  C:116BH         LINE#         340
  C:116BH         LINE#         341
  C:116BH         LINE#         342
  C:116EH         LINE#         343
  C:116EH         LINE#         344
  C:1171H         LINE#         345
  C:1174H         LINE#         346
  C:1174H         LINE#         347
  C:1176H         LINE#         348
  C:1183H         LINE#         349
  C:118DH         LINE#         350
  C:118DH         LINE#         351
  C:1190H         LINE#         352
  C:1190H         LINE#         353
  -------         ENDPROC       KEY1PRESS
  -------         PROC          KEY2PRESS
  C:1239H         LINE#         355
  C:1239H         LINE#         356
  C:1239H         LINE#         357
  C:123CH         LINE#         358
  C:123CH         LINE#         359
  C:123FH         LINE#         360
  C:1242H         LINE#         361
  C:1242H         LINE#         362
  C:1244H         LINE#         363
  C:1244H         LINE#         364
BL51 BANKED LINKER/LOCATER V6.22                                                      02/25/2020  11:30:19  PAGE 10


  C:1247H         LINE#         365
  C:1247H         LINE#         366
  -------         ENDPROC       KEY2PRESS
  -------         PROC          KEY3PRESS
  C:1248H         LINE#         368
  C:1248H         LINE#         369
  C:1248H         LINE#         370
  C:124BH         LINE#         371
  C:124BH         LINE#         372
  C:124EH         LINE#         373
  C:1251H         LINE#         374
  C:1251H         LINE#         375
  C:1253H         LINE#         376
  C:1253H         LINE#         377
  C:1256H         LINE#         378
  C:1256H         LINE#         379
  -------         ENDPROC       KEY3PRESS
  -------         PROC          KEY4PRESS
  C:1217H         LINE#         381
  C:1217H         LINE#         382
  C:1217H         LINE#         383
  C:121AH         LINE#         384
  C:121AH         LINE#         385
  C:121DH         LINE#         386
  C:1220H         LINE#         387
  C:1220H         LINE#         388
  C:1226H         LINE#         389
  C:1226H         LINE#         390
  C:1229H         LINE#         391
  C:1229H         LINE#         392
  -------         ENDPROC       KEY4PRESS
  -------         PROC          KEY_FUNCTION
  C:0961H         LINE#         394
  C:0961H         LINE#         395
  C:0961H         LINE#         396
  C:0996H         LINE#         397
  C:0996H         LINE#         399
  C:099BH         LINE#         400
  C:099BH         LINE#         401
  C:099EH         LINE#         402
  C:09A0H         LINE#         403
  C:09A1H         LINE#         404
  C:09AAH         LINE#         405
  C:09AAH         LINE#         406
  C:09ACH         LINE#         407
  C:09AEH         LINE#         408
  C:09BBH         LINE#         409
  C:09BBH         LINE#         410
  C:09BCH         LINE#         411
  C:09C1H         LINE#         412
  C:09C1H         LINE#         413
  C:09C4H         LINE#         414
  C:09C6H         LINE#         415
  C:09C7H         LINE#         416
  C:09D0H         LINE#         417
  C:09D0H         LINE#         418
  C:09D2H         LINE#         419
BL51 BANKED LINKER/LOCATER V6.22                                                      02/25/2020  11:30:19  PAGE 11


  C:09D4H         LINE#         420
  C:09E1H         LINE#         421
  C:09E1H         LINE#         422
  C:09E2H         LINE#         423
  C:09E7H         LINE#         424
  C:09E7H         LINE#         425
  C:09EAH         LINE#         426
  C:09ECH         LINE#         427
  C:09EDH         LINE#         428
  C:09F6H         LINE#         429
  C:09F6H         LINE#         430
  C:09F8H         LINE#         431
  C:09FAH         LINE#         432
  C:0A07H         LINE#         433
  C:0A07H         LINE#         434
  C:0A08H         LINE#         436
  C:0A0DH         LINE#         437
  C:0A0DH         LINE#         438
  C:0A10H         LINE#         439
  C:0A18H         LINE#         440
  C:0A19H         LINE#         441
  C:0A22H         LINE#         442
  C:0A22H         LINE#         443
  C:0A24H         LINE#         444
  C:0A2CH         LINE#         445
  C:0A40H         LINE#         446
  C:0A40H         LINE#         447
  C:0A41H         LINE#         448
  C:0A46H         LINE#         449
  C:0A46H         LINE#         450
  C:0A49H         LINE#         451
  C:0A51H         LINE#         452
  C:0A52H         LINE#         453
  C:0A5BH         LINE#         454
  C:0A5BH         LINE#         455
  C:0A5DH         LINE#         456
  C:0A65H         LINE#         457
  C:0A79H         LINE#         458
  C:0A79H         LINE#         459
  C:0A7AH         LINE#         460
  C:0A7FH         LINE#         461
  C:0A7FH         LINE#         462
  C:0A82H         LINE#         463
  C:0A8AH         LINE#         464
  C:0A8BH         LINE#         465
  C:0A94H         LINE#         466
  C:0A94H         LINE#         467
  C:0A96H         LINE#         468
  C:0A9EH         LINE#         469
  C:0AAEH         LINE#         470
  C:0AAEH         LINE#         471
  C:0AAFH         LINE#         473
  C:0AB4H         LINE#         474
  C:0AB4H         LINE#         475
  C:0AB7H         LINE#         476
  C:0AB9H         LINE#         477
  C:0ABAH         LINE#         478
BL51 BANKED LINKER/LOCATER V6.22                                                      02/25/2020  11:30:19  PAGE 12


  C:0AC3H         LINE#         479
  C:0AC3H         LINE#         480
  C:0AC5H         LINE#         481
  C:0AC7H         LINE#         482
  C:0AD4H         LINE#         483
  C:0AD4H         LINE#         484
  C:0AD5H         LINE#         486
  C:0ADAH         LINE#         487
  C:0ADAH         LINE#         488
  C:0ADDH         LINE#         489
  C:0AE0H         LINE#         490
  C:0AE1H         LINE#         491
  C:0AEAH         LINE#         492
  C:0AEAH         LINE#         493
  C:0AECH         LINE#         494
  C:0AEEH         LINE#         495
  C:0AEEH         LINE#         496
  C:0AEFH         LINE#         497
  C:0AF4H         LINE#         498
  C:0AF4H         LINE#         499
  C:0AF7H         LINE#         500
  C:0AF9H         LINE#         501
  C:0B03H         LINE#         502
  C:0B03H         LINE#         503
  C:0B0CH         LINE#         504
  C:0B0CH         LINE#         505
  C:0B0EH         LINE#         506
  C:0B10H         LINE#         507
  C:0B1DH         LINE#         508
  C:0B1DH         LINE#         509
  C:0B1EH         LINE#         510
  C:0B23H         LINE#         511
  C:0B23H         LINE#         512
  C:0B26H         LINE#         513
  C:0B28H         LINE#         514
  C:0B32H         LINE#         515
  C:0B32H         LINE#         516
  C:0B3BH         LINE#         517
  C:0B3BH         LINE#         518
  C:0B3DH         LINE#         519
  C:0B3FH         LINE#         520
  C:0B4CH         LINE#         521
  C:0B4CH         LINE#         522
  C:0B4DH         LINE#         523
  C:0B52H         LINE#         524
  C:0B52H         LINE#         525
  C:0B55H         LINE#         526
  C:0B57H         LINE#         527
  C:0B61H         LINE#         528
  C:0B61H         LINE#         529
  C:0B67H         LINE#         530
  C:0B67H         LINE#         531
  C:0B69H         LINE#         532
  C:0B6BH         LINE#         533
  C:0B75H         LINE#         534
  C:0B75H         LINE#         535
  C:0B76H         LINE#         537
BL51 BANKED LINKER/LOCATER V6.22                                                      02/25/2020  11:30:19  PAGE 13


  C:0B80H         LINE#         538
  C:0B80H         LINE#         539
  C:0B83H         LINE#         540
  C:0B85H         LINE#         541
  C:0B85H         LINE#         542
  C:0B8AH         LINE#         543
  C:0B8AH         LINE#         544
  C:0B8DH         LINE#         545
  C:0B97H         LINE#         546
  C:0B9AH         LINE#         547
  C:0B9AH         LINE#         548
  C:0BA3H         LINE#         549
  C:0BA3H         LINE#         550
  C:0BA6H         LINE#         551
  C:0BAFH         LINE#         552
  C:0BB2H         LINE#         553
  C:0BB2H         LINE#         554
  C:0BBCH         LINE#         555
  C:0BBCH         LINE#         556
  C:0BBFH         LINE#         557
  C:0BC8H         LINE#         558
  C:0BCBH         LINE#         559
  C:0BCBH         LINE#         560
  C:0BCBH         LINE#         561
  C:0BCBH         LINE#         562
  -------         ENDPROC       KEY_FUNCTION
  -------         PROC          TIMING_CTRL
  C:10CAH         LINE#         564
  C:10CAH         LINE#         565
  C:10CAH         LINE#         566
  C:10CEH         LINE#         567
  C:10CEH         LINE#         568
  C:10D0H         LINE#         569
  C:10D2H         LINE#         570
  C:10D4H         LINE#         571
  C:10D6H         LINE#         572
  C:10D8H         LINE#         573
  C:10D9H         LINE#         575
  C:10D9H         LINE#         576
  C:10E1H         LINE#         577
  C:10E3H         LINE#         579
  C:10F2H         LINE#         580
  C:10FCH         LINE#         581
  C:1104H         LINE#         582
  C:1104H         LINE#         583
  -------         ENDPROC       TIMING_CTRL
  -------         PROC          TIME_DATE_UPDATE
  C:0BCCH         LINE#         585
  C:0BCCH         LINE#         586
  C:0BCCH         LINE#         587
  C:0BD3H         LINE#         588
  C:0BD3H         LINE#         589
  C:0BD9H         LINE#         590
  C:0BDBH         LINE#         591
  C:0BDBH         LINE#         592
  C:0BE7H         LINE#         593
  C:0BEEH         LINE#         594
BL51 BANKED LINKER/LOCATER V6.22                                                      02/25/2020  11:30:19  PAGE 14


  C:0BEEH         LINE#         595
  C:0BF1H         LINE#         596
  C:0BF9H         LINE#         597
  C:0BFBH         LINE#         598
  C:0BFBH         LINE#         599
  C:0C05H         LINE#         600
  C:0C49H         LINE#         601
  C:0C49H         LINE#         602
  C:0C66H         LINE#         603
  C:0C92H         LINE#         604
  C:0CB9H         LINE#         605
  C:0CD5H         LINE#         606
  C:0CD6H         LINE#         607
  C:0CF3H         LINE#         608
  C:0D10H         LINE#         609
  C:0D2DH         LINE#         610
  C:0D4AH         LINE#         611
  C:0D67H         LINE#         612
  C:0D81H         LINE#         613
  C:0D9BH         LINE#         614
  C:0DB5H         LINE#         615
  C:0DCFH         LINE#         616
  C:0DEEH         LINE#         617
  C:0DEEH         LINE#         618
  -------         ENDPROC       TIME_DATE_UPDATE
  -------         PROC          OPEN_BEEP
  C:11E6H         LINE#         620
  C:11E6H         LINE#         621
  C:11E6H         LINE#         622
  C:11F5H         LINE#         623
  C:11F5H         LINE#         624
  C:11F8H         LINE#         625
  C:11F8H         LINE#         626
  C:11FFH         LINE#         627
  -------         ENDPROC       OPEN_BEEP
  -------         PROC          MAIN
  C:1191H         LINE#         629
  C:1191H         LINE#         630
  C:1191H         LINE#         631
  C:1194H         LINE#         632
  C:1194H         LINE#         633
  C:1194H         LINE#         634
  C:1197H         LINE#         635
  C:119AH         LINE#         636
  C:119DH         LINE#         637
  C:11A0H         LINE#         638
  C:11A3H         LINE#         639
  C:11A6H         LINE#         640
  C:11A9H         LINE#         641
  C:11ACH         LINE#         642
  C:11AFH         LINE#         643
  -------         ENDPROC       MAIN
  -------         PROC          TIMER0
  C:1105H         LINE#         646
  C:1112H         LINE#         648
  C:1115H         LINE#         649
  C:1118H         LINE#         650
BL51 BANKED LINKER/LOCATER V6.22                                                      02/25/2020  11:30:19  PAGE 15


  C:111AH         LINE#         651
  C:1124H         LINE#         652
  C:1124H         LINE#         653
  C:1126H         LINE#         654
  C:1128H         LINE#         655
  C:1132H         LINE#         656
  C:1132H         LINE#         657
  C:1135H         LINE#         658
  C:1135H         LINE#         659
  -------         ENDPROC       TIMER0
  -------         PROC          TIMER1
  C:11B1H         LINE#         661
  C:11B5H         LINE#         663
  C:11B8H         LINE#         664
  C:11BBH         LINE#         665
  C:11BDH         LINE#         666
  C:11C2H         LINE#         667
  C:11C2H         LINE#         668
  C:11C5H         LINE#         669
  C:11C7H         LINE#         670
  C:11C7H         LINE#         671
  -------         ENDPROC       TIMER1
  -------         ENDMOD        电子时_覲RO

  -------         MODULE        ?C?IMUL
  C:0FBBH         PUBLIC        ?C?IMUL
  -------         ENDMOD        ?C?IMUL

  -------         MODULE        ?C?UIDIV
  C:0FCDH         PUBLIC        ?C?UIDIV
  -------         ENDMOD        ?C?UIDIV

Program Size: data=40.0 xdata=0 code=4685
LINK/LOCATE RUN COMPLETE.  0 WARNING(S),  0 ERROR(S)
