:101200003F065B4F666D7D077F6F40008071370042
:0712100004080C1014181C67
:10107E00011700011B00011A00011E0001220001D0
:10108E002000021307E402100002021800020112EF
:10109E0007011D00012100011F01010B00010A00C3
:1010AE00010C00010E00010800011C0001090001E5
:0B10BE001600011500010D00010F00DD
:04122A007FE87E03D8
:0B122E00EF1FAC0670011E4C70F62292
:1011400075F00A84FD121152E51F75F00A84ADF0A6
:021150007F0618
:10115200EF90120F93F5A0ED90120093F5807F644B
:091162007E0012122EE4F5802239
:1011CC00758911758CD8758AF0758DD8758BF0D2A0
:0A11DC00A9D2ABD2AFD28CC28E2292
:0B000E00E5087003020DEF12001E2237
:100DEF00E5096003020F2BE51C6003020F24E50CDD
:100DFF00C394C8504FE51775F00A84ADF0E4FF12A5
:100E0F001152E51775F00A84FD7F011211527D0A08
:100E1F007F02121152E51B75F00A84ADF07F0312A9
:100E2F001152E51B75F00A84FD7F041211527D0AE1
:100E3F007F05121152E51A12114AE51A75F00A844C
:100E4F00FD020F20AE13AF147C037DE8120FCD7C93
:100E5F00007D0A120FBBAA06AB07AE13AF147D6459
:100E6F00120FCDC3EF9BF524EE9AF523AE13AF14FB
:100E7F007C037DE8120FCD7C007D64120FBBAA06A8
:100E8F00AB07AE13AF147D0A120FCDC3EF9BFBEE72
:100E9F009AFAAE23AF247C007D0A120FBBC3EB9FDF
:100EAF00FFEA9EAB07FAAE18AF19120FCDE4FF128F
:100EBF001152AE18AF197C007D0A120FCDAD077F0E
:100ECF0001121152AE10AF117C007D0A120FCD7FAF
:100EDF0002121152AE10AF117C007D0A120FCDAD70
:100EEF00077F03121152AE13AF147C007D0A120F4D
:100EFF00CD7F04121152AD037F05121152AD247F25
:100F0F0006121152AE13AF147C037DE8120FCDAD54
:0F0F1F00077F078004AD12E4FF02115212102267
:010F2E0022A0
:10001E00E508640160030200E0E50CD39432403140
:10002E00E50CD394644006E50C94964024E50CD37D
:10003E0094C84006E50C94FA4017AF0C7E00D3EF3F
:10004E00942C748094814012EF945E74809481504D
:10005E00097D0BE4FF121152805AE50CD394324005
:10006E0007E50CD394644038E50CD394964007E52D
:10007E000CD394C8402AE50CD394FA400BD3E50C6C
:10008E00942C748094814018AF0C7E00D3EF945E54
:10009E00748094814023D3EF94907480948150198E
:1000AE00E51775F00A84ADF0E4FF121152E51775ED
:1000BE00F00A84FD7F01121152E51B75F00A84AD22
:1000CE00F07F03121152E51B75F00A84FD7F0402C6
:1000DE00019FE508640260030201ACE50CD3943283
:1000EE004031E50CD394644006E50C94964024E52B
:1000FE000CD394C84006E50C94FA4017AF0C7E0062
:10010E00D3EF942C748094814012EF945E7480949B
:10011E008150097D0B7F03121152805AE50CD39446
:10012E00324007E50CD394644038E50CD3949640E6
:10013E0007E50CD394C8402AE50CD394FA400BD3B0
:10014E00E50C942C748094814018AF0C7E00D3EF94
:10015E00945E748094814023D3EF94907480948144
:10016E005019E51B75F00A84ADF07F03121152E5AC
:10017E001B75F00A84FD7F04121152E51775F00A03
:10018E0084ADF0E4FF121152E51775F00A84FD7F7D
:10019E0001121152E51A12114AE51A0207BCE508BE
:1001AE0064036003020278E50CD394324031E50C0F
:1001BE00D394644006E50C94964024E50CD394C881
:1001CE004006E50C94FA4017AF0C7E00D3EF942C4A
:1001DE00748094814012EF945E7480948150097DF6
:1001EE000B7F061211528052E50CD394324007E574
:1001FE000CD394644038E50CD394964007E50CD3A9
:10020E0094C8402AE50CD394FA400BD3E50C942CF9
:10021E00748094814018AF0C7E00D3EF945E74808E
:10022E009481401BD3EF9490748094815011E51A01
:10023E0012114AE51A75F00A84FD7F07121152E574
:10024E001775F00A84ADF0E4FF121152E51775F040
:10025E000A84FD7F01121152E51B75F00A84ADF080
:10026E007F03121152E51B020956E5086404600370
:10027E000203ACAE13AF147C037DE8120FCD7C00ED
:10028E007D0A120FBBAA06AB07AE13AF147D641224
:10029E000FCDC3EF9BF524EE9AF523AE13AF147C6E
:1002AE00037DE8120FCD7C007D64120FBBAA06AB56
:1002BE0007AE13AF147D0A120FCDC3EF9BFBEE9A60
:1002CE00FAAE23AF247C007D0A120FBBC3EB9FF561
:1002DE0026EA9EF525E50CD394324031E50CD394F5
:1002EE00644006E50C94964024E50CD394C8400671
:1002FE00E50C94FA4017AF0C7E00D3EF942C74806B
:10030E0094814012EF945E7480948150097D0BE4C9
:10031E00FF1211528061E50CD394324007E50CD3E5
:10032E0094644036E50CD394964007E50CD394C8FC
:10033E004028E50CD394FA400BD3E50C942C748032
:10034E0094814016AF0CD3EF945E74809481402C50
:10035E00D3EF9490748094815022AE18AF197C0024
:10036E007D0A120FCDE4FF121152AE18AF197C00A8
:10037E007D0A120FCDAD077F01121152AE10AF11D3
:10038E007C007D0A120FCD7F02121152AE10AF11FA
:10039E007C007D0A120FCDAD077F030204E0E50855
:1003AE0064056003020511AE13AF147C037DE812E1
:1003BE000FCD7C007D0A120FBBAA06AB07AE13AFA2
:1003CE00147D64120FCDC3EF9BF524EE9AF523AE88
:1003DE0013AF147C037DE8120FCD7C007D64120FE9
:1003EE00BBAA06AB07AE13AF147D0A120FCDC3EF37
:1003FE009BFBEE9AFAAE23AF247C007D0A120FBB54
:10040E00C3EB9FF526EA9EF525E50CD394324034D6
:10041E00E50CD394644007E50CD394964026E50C86
:10042E00D394C84007E50CD394FA4018AF0C7E0065
:10043E00D3EF942C748094814013D3EF945E748028
:10044E00948150097D0B7F021211528061E50CD30D
:10045E0094324007E50CD394644036E50CD3949661
:10046E004007E50CD394C84028E50CD394FA400B12
:10047E00D3E50C942C748094814016AF0CD3EF947A
:10048E005E74809481402CD3EF949074809481504C
:10049E0022AE10AF117C007D0A120FCD7F02121119
:1004AE0052AE10AF117C007D0A120FCDAD077F0347
:1004BE00121152AE18AF197C007D0A120FCDE4FF57
:1004CE00121152AE18AF197C007D0A120FCDAD0776
:1004DE007F01121152AE13AF147C007D0A120FCDA4
:1004EE007F04121152AD267F05121152AD247F06E4
:1004FE00121152AE13AF147C037DE8120FCDAD076F
:10050E000207C1E5086406600302067FAE13AF144E
:10051E007C037DE8120FCD7C007D0A120FBBAA066C
:10052E00AB07AE13AF147D64120FCDC3EF9BF52452
:10053E00EE9AF523AE13AF147C037DE8120FCD7C3B
:10054E00007D64120FBBAA06AB07AE13AF147D0A73
:10055E00120FCDC3EF9BFBEE9AFAAE23AF247C00B5
:10056E007D0A120FBBC3EB9FF526EA9EF525E50C1F
:10057E00D394324031E50CD394644006E50C949646
:10058E004024E50CD394C84006E50C94FA4017AF0E
:10059E000C7E00D3EF942C74809481401CEF945EFB
:1005AE007480948150137D0B7F041211527F0512BB
:1005BE0011527F06121152806FE50CD39432400710
:1005CE00E50CD394644036E50CD394964007E50CC5
:1005DE00D394C84028E50CD394FA400BD3E50C9481
:1005EE002C748094814016AF0CD3EF945E7480947B
:1005FE0081403AD3EF9490748094815030AE13AF13
:10060E00147C007D0A120FCD7F04121152AD267F8D
:10061E0005121152AD247F06121152AE13AF147C87
:10062E00037DE8120FCDAD077F07121152AE18AF42
:10063E00197C007D0A120FCDE4FF121152AE18AFD5
:10064E00197C007D0A120FCDAD077F01121152AE3B
:10065E0010AF117C007D0A120FCD7F02121152AE27
:10066E0010AF117C007D0A120FCDAD077F0302097A
:10067E005DE50864077046E50CD394324031E50C15
:10068E00D394644006E50C94964024E50CD394C8AC
:10069E004006E50C94FA4017AF0C7E00D3EF942C75
:1006AE00748094814010EF945E7480948150077D25
:1006BE000BE4FF02095DAD12E4FF02095DE508647B
:1006CE0008702CE50B7012FD7F021211527D0D7F0A
:1006DE0001121152E4FF02095DE50B640160030291
:1006EE000960FD7F011211527D0EE4FF02095DE5E6
:1006FE0008640960030207C6E50CD394324031E565
:10070E000CD394644006E50C94964024E50CD394E7
:10071E00C84006E50C94FA4017AF0C7E00D3EF9458
:10072E002C748094814012EF945E748094815009F1
:10073E007D0BE4FF121152805AE50CD39432400720
:10074E00E50CD394644038E50CD394964007E50C41
:10075E00D394C8402AE50CD394FA400BD3E50C94FD
:10076E002C748094814018AF0C7E00D3EF945E748D
:10077E008094814023D3EF9490748094815019E536
:10078E001D75F00A84ADF0E4FF121152E51D75F0EF
:10079E000A84FD7F01121152E52175F00A84ADF035
:1007AE007F03121152E5217F04121140E51F75F0EF
:1007BE000A84FD7F0702095DE508640A60030208EA
:1007CE008FE50CD394324031E50CD394644006E5AA
:1007DE000C94964024E50CD394C84006E50C94FA8C
:1007EE004017AF0C7E00D3EF942C7480948140128E
:1007FE00EF945E7480948150097D0B7F0312115229
:10080E00805AE50CD394324007E50CD394644038FB
:10081E00E50CD394964007E50CD394C8402AE50C1A
:10082E00D394FA400BD3E50C942C74809481401829
:10083E00AF0C7E00D3EF945E748094814023D3EF8F
:10084E009490748094815019E52175F00A84ADF06E
:10085E007F03121152E52175F00A84FD7F041211F7
:10086E0052E51D75F00A84ADF0E4FF121152E51D3C
:10087E007F01121140E51F75F00A84FD7F07020902
:10088E005DE508640B6003020960E50CD394324009
:10089E0031E50CD394644006E50C94964024E50CA7
:1008AE00D394C84006E50C94FA4017AF0C7E00D3E3
:1008BE00EF942C748094814012EF945E7480948136
:1008CE0050097D0B7F061211528050E50CD39432E5
:1008DE004007E50CD394644038E50CD3949640075A
:1008EE00E50CD394C8402AE50CD394FA400BD3E51B
:1008FE000C942C748094814018AF0C7E00D3EF942E
:10090E005E748094814019D3EF94907480948150DA
:10091E000F121148E51F75F00A84FD7F0712115260
:10092E00E51D75F00A84ADF0E4FF121152E51D7558
:10093E00F00A84FD7F01121152E52175F00A84AD93
:10094E00F07F03121152E52175F00A84FD7F041227
:02095E00115234
:010960002274
:10102200E50E75F00A84ADF0E4FF121152E50E757B
:10103200F00A84FD7F01121152E51E75F00A84AD9B
:10104200F07F02121152E51E75F00A84FD7F031231
:101052001152E52275F00A84ADF07F04121152E5B7
:101062002275F00A84FD7F05121152E52012114A01
:0C107200E52075F00A84FD7F0702115292
:10116B0020B12212122A20B1190508E508B409088A
:10117B00E50B7004F508800AE508D3940B4003E4F3
:06118B00F50830B1FD2261
:0F12390020B00B12122A20B002051530B0FD2292
:0F12480020B20B12122A20B202050D30B2FD2285
:1012170020B30F12122A20B306E5087002050F301B
:03122700B3FD22F2
:10096100E508B40C004003020BCB900972F828286B
:1009710073020B760209960209BC0209E2020A0817
:10098100020A41020A7A020AAF020AD5020AEF02FA
:100991000B1E020B4DE515B40106E4F515051722F2
:1009A100E50D64016003020BCBF50D1517E517C3C7
:1009B10094004003020BCB75173B22E515B40106E9
:1009C100E4F515051B22E50D64016003020BCBF56F
:1009D1000D151BE51BC394004003020BCB751B3B9C
:1009E10022E515B40106E4F515051A22E50D6401A9
:1009F1006003020BCBF50D151AE51AC394004003F1
:100A0100020BCB751A1722E515B4010CE4F5150597
:100A110019E519703B051822E50D64016003020B0D
:100A2100CBF50DE519151970021518D3E5199400C8
:100A3100E51894004003020BCB75180075190122CB
:100A4100E515B4010CE4F5150511E5117002051069
:100A510022E50D64016003020BCBF50DE5111511C3
:100A610070021510D3E5119400E5109400400302C3
:100A71000BCB75100075110C22E515B4010CE4F5D2
:100A8100150514E5147002051322E50D64016003D8
:100A9100020BCBF50DE514151470021513C3E51304
:100AA10094004003020BCB7513077514E422E5157E
:100AB100B40106E4F515051222E50D640160030297
:100AC1000BCBF50D1512E512D394004003020BCBAD
:100AD10075120722E515B40107E4F515750B01221E
:100AE100E50D64016003020BCBF50DF50B22E51555
:100AF100B4010FE4F515051DE51DD3943B4003E456
:100B0100F51DE50D64016003020BCBF50D151DE527
:100B11001DC394004003020BCB751D3B22E515B4A8
:100B2100010FE4F5150521E521D3943B4003E4F5DC
:100B310021E50D64016003020BCBF50D1521E521C3
:100B4100C394004003020BCB75213B22E515B40190
:100B51000FE4F515051FE51FD394174003E4F51FB6
:100B6100E50D64017064F50D151FE51FC394005078
:100B710059751F1722E50AB4010AE50FB40105E40E
:100B8100F50FF50AE50FB40110E4F50FE51CB4010A
:100B910005E4F51C8003751C01E50A7014E50DB42C
:100BA100010FE4F50DE50970057509018003E4F510
:100BB10009E509B40114E515B4010FE4F515E516CD
:0B0BC100B40104E4F5162275160122B1
:1010CA00E509700BC28EF50EF51EF522F52022E514
:1010DA00167004C28E8002D28EE51EC3943C40086C
:1010EA0074C4251EF51E0522E522B43C05E4F5224A
:0B10FA000520E520B41803E4F52022D7
:100BCC00E517C3943C400874C42517F517051BE5BD
:100BDC001BC3943C4005E4F51B051AE51AC3941895
:100BEC00400DE4F51A0519E519700205180512E512
:100BFC0012D394074003751201E5106003020DEE49
:100C0C00E51114B40C004003020DEE900C2575F0A8
:100C1C0003A4C58325F0C58373020C49020C66023C
:100C2C000CD6020CF3020D10020D2D020D4A020D12
:100C3C0067020D81020D9B020DB5020DCFD3E51994
:100C4C00941FE51894005003020DEE7518007519E9
:100C5C00010511E5117002051022E51454037026EC
:100C6C00AE13AF14FC7D64120FCDED4C6018D3E5C0
:100C7C0019941DE51894005003020DEE0511E511B1
:100C8C0070410510803DAE13AF147C017D90120FA6
:100C9C00CDED4C7018D3E519941DE5189400500354
:100CAC00020DEE0511E511700205108016D3E51941
:100CBC00941CE51894005003020DEE0511E511701B
:100CCC0002051075180075190122D3E519941FE55A
:100CDC001894005003020DEE7518007519010511DA
:100CEC00E5117002051022D3E519941EE518940045
:100CFC005003020DEE7518007519010511E5117000
:100D0C0002051022D3E519941FE518940050030234
:100D1C000DEE7518007519010511E511700205101D
:100D2C0022D3E519941EE51894005003020DEE75BC
:100D3C0018007519010511E5117002051022D3E593
:100D4C0019941FE51894005003020DEE75180075E8
:100D5C0019010511E5117002051022D3E519941F34
:100D6C00E5189400407C7518007519010511E51102
:100D7C007002051022D3E519941EE5189400406208
:100D8C007518007519010511E5117056051022D35F
:100D9C00E519941FE5189400404875180075190161
:100DAC000511E511703C051022D3E519941EE518C8
:100DBC009400402E7518007519010511E51170226B
:100DCC00051022D3E519941FE518940040147518EA
:100DDC00007519017510007511010514E5147002E8
:030DEC00051322CA
:1011E600E51DB5170DE521B51B08E51FB51A0375F5
:0A11F6000A01E50AB40102B29522D5
:101191001211CC12000E12116B12123912124812D6
:1011A10012171209611210CA120BCC1211E680E358
:03000B00021105DA
:10110500C0E0C0F0C0D075D000C006C007758CD84F
:10111500758AF0050CE50C75F06484E5F07004053E
:1011250017800DAF0C7E00BE0106BF9003750C0045
:0B113500D007D006D0D0D0F0D0E032C0
:03001B000211B11E
:1011B100C0E0C0D0758DD8758BF0050EE50EB46416
:0B11C10005750E00051ED0D0D0E032F6
:03000000020F2FBD
:0C0F2F00787FE4F6D8FD758126020F766D
:100FBB00EF8DF0A4A8F0CF8CF0A428CE8DF0A42E4A
:020FCB00FE2204
:100FCD00BC000BBE0029EF8DF084FFADF022E4CC08
:100FDD00F875F008EF2FFFEE33FEEC33FCEE9DECD1
:100FED00984005FCEE9DFE0FD5F0E9E4CEFD22ED17
:100FFD00F8F5F0EE8420D21CFEADF075F008EF2F61
:10100D00FFED33FD4007985006D5F0F222C398FD51
:05101D000FD5F0EA22EE
:100F3B00021191E493A3F8E493A34003F68001F22A
:100F4B0008DFF48029E493A3F85407240CC8C333B7
:100F5B00C4540F4420C8834004F456800146F6DF86
:100F6B00E4800B010204081020408090107EE47E88
:100F7B00019360BCA3FF543F30E509541FFEE4937B
:100F8B00A360010ECF54C025E060A840B8E493A342
:100F9B00FAE493A3F8E493A3C8C582C8CAC583CA6D
:100FAB00F0A3C8C582C8CAC583CADFE9DEE780BE25
:0110C9000026
:00000001FF
